{
	"contracts/DecentralizedCharityFund.sol": {
		"DecentralizedCharityFund": {
			"abi": [
				{
					"inputs": [],
					"stateMutability": "nonpayable",
					"type": "constructor"
				},
				{
					"inputs": [],
					"name": "donate",
					"outputs": [],
					"stateMutability": "payable",
					"type": "function"
				},
				{
					"inputs": [
						{
							"internalType": "address",
							"name": "",
							"type": "address"
						}
					],
					"name": "donorVotingPower",
					"outputs": [
						{
							"internalType": "uint256",
							"name": "",
							"type": "uint256"
						}
					],
					"stateMutability": "view",
					"type": "function"
				},
				{
					"inputs": [
						{
							"internalType": "uint256",
							"name": "requestId",
							"type": "uint256"
						}
					],
					"name": "finalizeRequest",
					"outputs": [
						{
							"internalType": "bool",
							"name": "",
							"type": "bool"
						}
					],
					"stateMutability": "nonpayable",
					"type": "function"
				},
				{
					"inputs": [
						{
							"internalType": "uint256",
							"name": "",
							"type": "uint256"
						}
					],
					"name": "fundingRequests",
					"outputs": [
						{
							"internalType": "address",
							"name": "projectAddress",
							"type": "address"
						},
						{
							"internalType": "uint256",
							"name": "requestedAmount",
							"type": "uint256"
						},
						{
							"internalType": "string",
							"name": "projectDescription",
							"type": "string"
						},
						{
							"internalType": "uint256",
							"name": "votesReceived",
							"type": "uint256"
						},
						{
							"internalType": "bool",
							"name": "isFinalized",
							"type": "bool"
						}
					],
					"stateMutability": "view",
					"type": "function"
				},
				{
					"inputs": [],
					"name": "getFundingHistory",
					"outputs": [
						{
							"internalType": "address[]",
							"name": "",
							"type": "address[]"
						},
						{
							"internalType": "uint256[]",
							"name": "",
							"type": "uint256[]"
						},
						{
							"internalType": "string[]",
							"name": "",
							"type": "string[]"
						}
					],
					"stateMutability": "view",
					"type": "function"
				},
				{
					"inputs": [
						{
							"internalType": "address",
							"name": "projectAddress",
							"type": "address"
						},
						{
							"internalType": "uint256",
							"name": "requestedAmount",
							"type": "uint256"
						},
						{
							"internalType": "string",
							"name": "projectDescription",
							"type": "string"
						}
					],
					"name": "submitFundingRequest",
					"outputs": [
						{
							"internalType": "uint256",
							"name": "",
							"type": "uint256"
						}
					],
					"stateMutability": "nonpayable",
					"type": "function"
				},
				{
					"inputs": [],
					"name": "totalDonations",
					"outputs": [
						{
							"internalType": "uint256",
							"name": "",
							"type": "uint256"
						}
					],
					"stateMutability": "view",
					"type": "function"
				},
				{
					"inputs": [
						{
							"internalType": "uint256",
							"name": "requestId",
							"type": "uint256"
						}
					],
					"name": "voteOnRequest",
					"outputs": [
						{
							"internalType": "bool",
							"name": "",
							"type": "bool"
						}
					],
					"stateMutability": "nonpayable",
					"type": "function"
				}
			],
			"devdoc": {
				"kind": "dev",
				"methods": {},
				"version": 1
			},
			"evm": {
				"assembly": "    /* \"contracts/DecentralizedCharityFund.sol\":57:3776  contract DecentralizedCharityFund {... */\n  mstore(0x40, 0x80)\n    /* \"contracts/DecentralizedCharityFund.sol\":471:492  constructor() {... */\n  callvalue\n  dup1\n  iszero\n  tag_1\n  jumpi\n  0x00\n  dup1\n  revert\ntag_1:\n  pop\n    /* \"contracts/DecentralizedCharityFund.sol\":57:3776  contract DecentralizedCharityFund {... */\n  dataSize(sub_0)\n  dup1\n  dataOffset(sub_0)\n  0x00\n  codecopy\n  0x00\n  return\nstop\n\nsub_0: assembly {\n        /* \"contracts/DecentralizedCharityFund.sol\":57:3776  contract DecentralizedCharityFund {... */\n      mstore(0x40, 0x80)\n      jumpi(tag_1, lt(calldatasize, 0x04))\n      shr(0xe0, calldataload(0x00))\n      dup1\n      0xd4971f61\n      gt\n      tag_10\n      jumpi\n      dup1\n      0xd4971f61\n      eq\n      tag_6\n      jumpi\n      dup1\n      0xde2ed893\n      eq\n      tag_7\n      jumpi\n      dup1\n      0xe2274075\n      eq\n      tag_8\n      jumpi\n      dup1\n      0xed88c68e\n      eq\n      tag_9\n      jumpi\n      jump(tag_1)\n    tag_10:\n      dup1\n      0x03441006\n      eq\n      tag_2\n      jumpi\n      dup1\n      0xb1e92059\n      eq\n      tag_3\n      jumpi\n      dup1\n      0xba561486\n      eq\n      tag_4\n      jumpi\n      dup1\n      0xc28a3309\n      eq\n      tag_5\n      jumpi\n    tag_1:\n      0x00\n      dup1\n      revert\n        /* \"contracts/DecentralizedCharityFund.sol\":2272:2944  function finalizeRequest(uint256 requestId) public returns (bool) {... */\n    tag_2:\n      callvalue\n      dup1\n      iszero\n      tag_11\n      jumpi\n      0x00\n      dup1\n      revert\n    tag_11:\n      pop\n      tag_12\n      0x04\n      dup1\n      calldatasize\n      sub\n      dup2\n      add\n      swap1\n      tag_13\n      swap2\n      swap1\n      tag_14\n      jump\t// in\n    tag_13:\n      tag_15\n      jump\t// in\n    tag_12:\n      mload(0x40)\n      tag_16\n      swap2\n      swap1\n      tag_17\n      jump\t// in\n    tag_16:\n      mload(0x40)\n      dup1\n      swap2\n      sub\n      swap1\n      return\n        /* \"contracts/DecentralizedCharityFund.sol\":2950:3774  function getFundingHistory() public view returns (... */\n    tag_3:\n      callvalue\n      dup1\n      iszero\n      tag_18\n      jumpi\n      0x00\n      dup1\n      revert\n    tag_18:\n      pop\n      tag_19\n      tag_20\n      jump\t// in\n    tag_19:\n      mload(0x40)\n      tag_21\n      swap4\n      swap3\n      swap2\n      swap1\n      tag_22\n      jump\t// in\n    tag_21:\n      mload(0x40)\n      dup1\n      swap2\n      sub\n      swap1\n      return\n        /* \"contracts/DecentralizedCharityFund.sol\":424:463  FundingRequest[] public fundingRequests */\n    tag_4:\n      callvalue\n      dup1\n      iszero\n      tag_23\n      jumpi\n      0x00\n      dup1\n      revert\n    tag_23:\n      pop\n      tag_24\n      0x04\n      dup1\n      calldatasize\n      sub\n      dup2\n      add\n      swap1\n      tag_25\n      swap2\n      swap1\n      tag_14\n      jump\t// in\n    tag_25:\n      tag_26\n      jump\t// in\n    tag_24:\n      mload(0x40)\n      tag_27\n      swap6\n      swap5\n      swap4\n      swap3\n      swap2\n      swap1\n      tag_28\n      jump\t// in\n    tag_27:\n      mload(0x40)\n      dup1\n      swap2\n      sub\n      swap1\n      return\n        /* \"contracts/DecentralizedCharityFund.sol\":699:1479  function submitFundingRequest(... */\n    tag_5:\n      callvalue\n      dup1\n      iszero\n      tag_29\n      jumpi\n      0x00\n      dup1\n      revert\n    tag_29:\n      pop\n      tag_30\n      0x04\n      dup1\n      calldatasize\n      sub\n      dup2\n      add\n      swap1\n      tag_31\n      swap2\n      swap1\n      tag_32\n      jump\t// in\n    tag_31:\n      tag_33\n      jump\t// in\n    tag_30:\n      mload(0x40)\n      tag_34\n      swap2\n      swap1\n      tag_35\n      jump\t// in\n    tag_34:\n      mload(0x40)\n      dup1\n      swap2\n      sub\n      swap1\n      return\n        /* \"contracts/DecentralizedCharityFund.sol\":367:418  mapping(address => uint256) public donorVotingPower */\n    tag_6:\n      callvalue\n      dup1\n      iszero\n      tag_36\n      jumpi\n      0x00\n      dup1\n      revert\n    tag_36:\n      pop\n      tag_37\n      0x04\n      dup1\n      calldatasize\n      sub\n      dup2\n      add\n      swap1\n      tag_38\n      swap2\n      swap1\n      tag_39\n      jump\t// in\n    tag_38:\n      tag_40\n      jump\t// in\n    tag_37:\n      mload(0x40)\n      tag_41\n      swap2\n      swap1\n      tag_35\n      jump\t// in\n    tag_41:\n      mload(0x40)\n      dup1\n      swap2\n      sub\n      swap1\n      return\n        /* \"contracts/DecentralizedCharityFund.sol\":332:361  uint256 public totalDonations */\n    tag_7:\n      callvalue\n      dup1\n      iszero\n      tag_42\n      jumpi\n      0x00\n      dup1\n      revert\n    tag_42:\n      pop\n      tag_43\n      tag_44\n      jump\t// in\n    tag_43:\n      mload(0x40)\n      tag_45\n      swap2\n      swap1\n      tag_35\n      jump\t// in\n    tag_45:\n      mload(0x40)\n      dup1\n      swap2\n      sub\n      swap1\n      return\n        /* \"contracts/DecentralizedCharityFund.sol\":1485:2266  function voteOnRequest(uint256 requestId) public returns (bool) {... */\n    tag_8:\n      callvalue\n      dup1\n      iszero\n      tag_46\n      jumpi\n      0x00\n      dup1\n      revert\n    tag_46:\n      pop\n      tag_47\n      0x04\n      dup1\n      calldatasize\n      sub\n      dup2\n      add\n      swap1\n      tag_48\n      swap2\n      swap1\n      tag_14\n      jump\t// in\n    tag_48:\n      tag_49\n      jump\t// in\n    tag_47:\n      mload(0x40)\n      tag_50\n      swap2\n      swap1\n      tag_17\n      jump\t// in\n    tag_50:\n      mload(0x40)\n      dup1\n      swap2\n      sub\n      swap1\n      return\n        /* \"contracts/DecentralizedCharityFund.sol\":498:693  function donate() public payable {... */\n    tag_9:\n      tag_51\n      tag_52\n      jump\t// in\n    tag_51:\n      stop\n        /* \"contracts/DecentralizedCharityFund.sol\":2272:2944  function finalizeRequest(uint256 requestId) public returns (bool) {... */\n    tag_15:\n        /* \"contracts/DecentralizedCharityFund.sol\":2332:2336  bool */\n      0x00\n        /* \"contracts/DecentralizedCharityFund.sol\":2368:2383  fundingRequests */\n      0x02\n        /* \"contracts/DecentralizedCharityFund.sol\":2368:2390  fundingRequests.length */\n      dup1\n      sload\n      swap1\n      pop\n        /* \"contracts/DecentralizedCharityFund.sol\":2356:2365  requestId */\n      dup3\n        /* \"contracts/DecentralizedCharityFund.sol\":2356:2390  requestId < fundingRequests.length */\n      lt\n        /* \"contracts/DecentralizedCharityFund.sol\":2348:2413  require(requestId < fundingRequests.length, \"Invalid request ID\") */\n      tag_54\n      jumpi\n      mload(0x40)\n      0x08c379a000000000000000000000000000000000000000000000000000000000\n      dup2\n      mstore\n      0x04\n      add\n      tag_55\n      swap1\n      tag_56\n      jump\t// in\n    tag_55:\n      mload(0x40)\n      dup1\n      swap2\n      sub\n      swap1\n      revert\n    tag_54:\n        /* \"contracts/DecentralizedCharityFund.sol\":2423:2453  FundingRequest storage request */\n      0x00\n        /* \"contracts/DecentralizedCharityFund.sol\":2456:2471  fundingRequests */\n      0x02\n        /* \"contracts/DecentralizedCharityFund.sol\":2472:2481  requestId */\n      dup4\n        /* \"contracts/DecentralizedCharityFund.sol\":2456:2482  fundingRequests[requestId] */\n      dup2\n      sload\n      dup2\n      lt\n      tag_57\n      jumpi\n      tag_58\n      tag_59\n      jump\t// in\n    tag_58:\n    tag_57:\n      swap1\n      0x00\n      mstore\n      keccak256(0x00, 0x20)\n      swap1\n      0x06\n      mul\n      add\n        /* \"contracts/DecentralizedCharityFund.sol\":2423:2482  FundingRequest storage request = fundingRequests[requestId] */\n      swap1\n      pop\n        /* \"contracts/DecentralizedCharityFund.sol\":2510:2517  request */\n      dup1\n        /* \"contracts/DecentralizedCharityFund.sol\":2510:2529  request.isFinalized */\n      0x04\n      add\n      0x00\n      swap1\n      sload\n      swap1\n      0x0100\n      exp\n      swap1\n      div\n      0xff\n      and\n        /* \"contracts/DecentralizedCharityFund.sol\":2509:2529  !request.isFinalized */\n      iszero\n        /* \"contracts/DecentralizedCharityFund.sol\":2501:2559  require(!request.isFinalized, \"Request already finalized\") */\n      tag_61\n      jumpi\n      mload(0x40)\n      0x08c379a000000000000000000000000000000000000000000000000000000000\n      dup2\n      mstore\n      0x04\n      add\n      tag_62\n      swap1\n      tag_63\n      jump\t// in\n    tag_62:\n      mload(0x40)\n      dup1\n      swap2\n      sub\n      swap1\n      revert\n    tag_61:\n        /* \"contracts/DecentralizedCharityFund.sol\":2618:2619  2 */\n      0x02\n        /* \"contracts/DecentralizedCharityFund.sol\":2601:2615  totalDonations */\n      sload(0x00)\n        /* \"contracts/DecentralizedCharityFund.sol\":2601:2619  totalDonations / 2 */\n      tag_64\n      swap2\n      swap1\n      tag_65\n      jump\t// in\n    tag_64:\n        /* \"contracts/DecentralizedCharityFund.sol\":2577:2584  request */\n      dup2\n        /* \"contracts/DecentralizedCharityFund.sol\":2577:2598  request.votesReceived */\n      0x03\n      add\n      sload\n        /* \"contracts/DecentralizedCharityFund.sol\":2577:2619  request.votesReceived > totalDonations / 2 */\n      gt\n        /* \"contracts/DecentralizedCharityFund.sol\":2569:2642  require(request.votesReceived > totalDonations / 2, \"Insufficient votes\") */\n      tag_66\n      jumpi\n      mload(0x40)\n      0x08c379a000000000000000000000000000000000000000000000000000000000\n      dup2\n      mstore\n      0x04\n      add\n      tag_67\n      swap1\n      tag_68\n      jump\t// in\n    tag_67:\n      mload(0x40)\n      dup1\n      swap2\n      sub\n      swap1\n      revert\n    tag_66:\n        /* \"contracts/DecentralizedCharityFund.sol\":2685:2692  request */\n      dup1\n        /* \"contracts/DecentralizedCharityFund.sol\":2685:2708  request.requestedAmount */\n      0x01\n      add\n      sload\n        /* \"contracts/DecentralizedCharityFund.sol\":2660:2681  address(this).balance */\n      selfbalance\n        /* \"contracts/DecentralizedCharityFund.sol\":2660:2708  address(this).balance >= request.requestedAmount */\n      lt\n      iszero\n        /* \"contracts/DecentralizedCharityFund.sol\":2652:2742  require(address(this).balance >= request.requestedAmount, \"Insufficient contract balance\") */\n      tag_69\n      jumpi\n      mload(0x40)\n      0x08c379a000000000000000000000000000000000000000000000000000000000\n      dup2\n      mstore\n      0x04\n      add\n      tag_70\n      swap1\n      tag_71\n      jump\t// in\n    tag_70:\n      mload(0x40)\n      dup1\n      swap2\n      sub\n      swap1\n      revert\n    tag_69:\n        /* \"contracts/DecentralizedCharityFund.sol\":2754:2766  bool success */\n      0x00\n        /* \"contracts/DecentralizedCharityFund.sol\":2772:2779  request */\n      dup2\n        /* \"contracts/DecentralizedCharityFund.sol\":2772:2794  request.projectAddress */\n      0x00\n      add\n      0x00\n      swap1\n      sload\n      swap1\n      0x0100\n      exp\n      swap1\n      div\n      0xffffffffffffffffffffffffffffffffffffffff\n      and\n        /* \"contracts/DecentralizedCharityFund.sol\":2772:2799  request.projectAddress.call */\n      0xffffffffffffffffffffffffffffffffffffffff\n      and\n        /* \"contracts/DecentralizedCharityFund.sol\":2807:2814  request */\n      dup3\n        /* \"contracts/DecentralizedCharityFund.sol\":2807:2830  request.requestedAmount */\n      0x01\n      add\n      sload\n        /* \"contracts/DecentralizedCharityFund.sol\":2772:2835  request.projectAddress.call{value: request.requestedAmount}(\"\") */\n      mload(0x40)\n      tag_72\n      swap1\n      tag_73\n      jump\t// in\n    tag_72:\n      0x00\n      mload(0x40)\n      dup1\n      dup4\n      sub\n      dup2\n      dup6\n      dup8\n      gas\n      call\n      swap3\n      pop\n      pop\n      pop\n      returndatasize\n      dup1\n      0x00\n      dup2\n      eq\n      tag_76\n      jumpi\n      mload(0x40)\n      swap2\n      pop\n      and(add(returndatasize, 0x3f), not(0x1f))\n      dup3\n      add\n      0x40\n      mstore\n      returndatasize\n      dup3\n      mstore\n      returndatasize\n      0x00\n      0x20\n      dup5\n      add\n      returndatacopy\n      jump(tag_75)\n    tag_76:\n      0x60\n      swap2\n      pop\n    tag_75:\n      pop\n        /* \"contracts/DecentralizedCharityFund.sol\":2753:2835  (bool success, ) = request.projectAddress.call{value: request.requestedAmount}(\"\") */\n      pop\n      swap1\n      pop\n        /* \"contracts/DecentralizedCharityFund.sol\":2853:2860  success */\n      dup1\n        /* \"contracts/DecentralizedCharityFund.sol\":2845:2880  require(success, \"Transfer failed\") */\n      tag_77\n      jumpi\n      mload(0x40)\n      0x08c379a000000000000000000000000000000000000000000000000000000000\n      dup2\n      mstore\n      0x04\n      add\n      tag_78\n      swap1\n      tag_79\n      jump\t// in\n    tag_78:\n      mload(0x40)\n      dup1\n      swap2\n      sub\n      swap1\n      revert\n    tag_77:\n        /* \"contracts/DecentralizedCharityFund.sol\":2912:2916  true */\n      0x01\n        /* \"contracts/DecentralizedCharityFund.sol\":2890:2897  request */\n      dup3\n        /* \"contracts/DecentralizedCharityFund.sol\":2890:2909  request.isFinalized */\n      0x04\n      add\n      0x00\n        /* \"contracts/DecentralizedCharityFund.sol\":2890:2916  request.isFinalized = true */\n      0x0100\n      exp\n      dup2\n      sload\n      dup2\n      0xff\n      mul\n      not\n      and\n      swap1\n      dup4\n      iszero\n      iszero\n      mul\n      or\n      swap1\n      sstore\n      pop\n        /* \"contracts/DecentralizedCharityFund.sol\":2933:2937  true */\n      0x01\n        /* \"contracts/DecentralizedCharityFund.sol\":2926:2937  return true */\n      swap3\n      pop\n      pop\n      pop\n        /* \"contracts/DecentralizedCharityFund.sol\":2272:2944  function finalizeRequest(uint256 requestId) public returns (bool) {... */\n      swap2\n      swap1\n      pop\n      jump\t// out\n        /* \"contracts/DecentralizedCharityFund.sol\":2950:3774  function getFundingHistory() public view returns (... */\n    tag_20:\n        /* \"contracts/DecentralizedCharityFund.sol\":3009:3025  address[] memory */\n      0x60\n        /* \"contracts/DecentralizedCharityFund.sol\":3035:3051  uint256[] memory */\n      dup1\n        /* \"contracts/DecentralizedCharityFund.sol\":3061:3076  string[] memory */\n      0x60\n        /* \"contracts/DecentralizedCharityFund.sol\":3093:3107  uint256 length */\n      0x00\n        /* \"contracts/DecentralizedCharityFund.sol\":3110:3125  fundingRequests */\n      0x02\n        /* \"contracts/DecentralizedCharityFund.sol\":3110:3132  fundingRequests.length */\n      dup1\n      sload\n      swap1\n      pop\n        /* \"contracts/DecentralizedCharityFund.sol\":3093:3132  uint256 length = fundingRequests.length */\n      swap1\n      pop\n        /* \"contracts/DecentralizedCharityFund.sol\":3142:3175  address[] memory projectAddresses */\n      0x00\n        /* \"contracts/DecentralizedCharityFund.sol\":3192:3198  length */\n      dup2\n        /* \"contracts/DecentralizedCharityFund.sol\":3178:3199  new address[](length) */\n      0xffffffffffffffff\n      dup2\n      gt\n      iszero\n      tag_81\n      jumpi\n      tag_82\n      tag_83\n      jump\t// in\n    tag_82:\n    tag_81:\n      mload(0x40)\n      swap1\n      dup1\n      dup3\n      mstore\n      dup1\n      0x20\n      mul\n      0x20\n      add\n      dup3\n      add\n      0x40\n      mstore\n      dup1\n      iszero\n      tag_84\n      jumpi\n      dup2\n      0x20\n      add\n      0x20\n      dup3\n      mul\n      dup1\n      calldatasize\n      dup4\n      calldatacopy\n      dup1\n      dup3\n      add\n      swap2\n      pop\n      pop\n      swap1\n      pop\n    tag_84:\n      pop\n        /* \"contracts/DecentralizedCharityFund.sol\":3142:3199  address[] memory projectAddresses = new address[](length) */\n      swap1\n      pop\n        /* \"contracts/DecentralizedCharityFund.sol\":3209:3240  uint256[] memory requestAmounts */\n      0x00\n        /* \"contracts/DecentralizedCharityFund.sol\":3257:3263  length */\n      dup3\n        /* \"contracts/DecentralizedCharityFund.sol\":3243:3264  new uint256[](length) */\n      0xffffffffffffffff\n      dup2\n      gt\n      iszero\n      tag_85\n      jumpi\n      tag_86\n      tag_83\n      jump\t// in\n    tag_86:\n    tag_85:\n      mload(0x40)\n      swap1\n      dup1\n      dup3\n      mstore\n      dup1\n      0x20\n      mul\n      0x20\n      add\n      dup3\n      add\n      0x40\n      mstore\n      dup1\n      iszero\n      tag_87\n      jumpi\n      dup2\n      0x20\n      add\n      0x20\n      dup3\n      mul\n      dup1\n      calldatasize\n      dup4\n      calldatacopy\n      dup1\n      dup3\n      add\n      swap2\n      pop\n      pop\n      swap1\n      pop\n    tag_87:\n      pop\n        /* \"contracts/DecentralizedCharityFund.sol\":3209:3264  uint256[] memory requestAmounts = new uint256[](length) */\n      swap1\n      pop\n        /* \"contracts/DecentralizedCharityFund.sol\":3274:3302  string[] memory descriptions */\n      0x00\n        /* \"contracts/DecentralizedCharityFund.sol\":3318:3324  length */\n      dup4\n        /* \"contracts/DecentralizedCharityFund.sol\":3305:3325  new string[](length) */\n      0xffffffffffffffff\n      dup2\n      gt\n      iszero\n      tag_88\n      jumpi\n      tag_89\n      tag_83\n      jump\t// in\n    tag_89:\n    tag_88:\n      mload(0x40)\n      swap1\n      dup1\n      dup3\n      mstore\n      dup1\n      0x20\n      mul\n      0x20\n      add\n      dup3\n      add\n      0x40\n      mstore\n      dup1\n      iszero\n      tag_90\n      jumpi\n      dup2\n      0x20\n      add\n    tag_91:\n      0x60\n      dup2\n      mstore\n      0x20\n      add\n      swap1\n      0x01\n      swap1\n      sub\n      swap1\n      dup2\n      tag_91\n      jumpi\n      swap1\n      pop\n    tag_90:\n      pop\n        /* \"contracts/DecentralizedCharityFund.sol\":3274:3325  string[] memory descriptions = new string[](length) */\n      swap1\n      pop\n        /* \"contracts/DecentralizedCharityFund.sol\":3341:3350  uint256 i */\n      0x00\n        /* \"contracts/DecentralizedCharityFund.sol\":3336:3702  for (uint256 i = 0; i < length; i++) {... */\n    tag_92:\n        /* \"contracts/DecentralizedCharityFund.sol\":3360:3366  length */\n      dup5\n        /* \"contracts/DecentralizedCharityFund.sol\":3356:3357  i */\n      dup2\n        /* \"contracts/DecentralizedCharityFund.sol\":3356:3366  i < length */\n      lt\n        /* \"contracts/DecentralizedCharityFund.sol\":3336:3702  for (uint256 i = 0; i < length; i++) {... */\n      iszero\n      tag_93\n      jumpi\n        /* \"contracts/DecentralizedCharityFund.sol\":3391:3406  fundingRequests */\n      0x02\n        /* \"contracts/DecentralizedCharityFund.sol\":3407:3408  i */\n      dup2\n        /* \"contracts/DecentralizedCharityFund.sol\":3391:3409  fundingRequests[i] */\n      dup2\n      sload\n      dup2\n      lt\n      tag_95\n      jumpi\n      tag_96\n      tag_59\n      jump\t// in\n    tag_96:\n    tag_95:\n      swap1\n      0x00\n      mstore\n      keccak256(0x00, 0x20)\n      swap1\n      0x06\n      mul\n      add\n        /* \"contracts/DecentralizedCharityFund.sol\":3391:3421  fundingRequests[i].isFinalized */\n      0x04\n      add\n      0x00\n      swap1\n      sload\n      swap1\n      0x0100\n      exp\n      swap1\n      div\n      0xff\n      and\n        /* \"contracts/DecentralizedCharityFund.sol\":3387:3692  if (fundingRequests[i].isFinalized) {... */\n      iszero\n      tag_98\n      jumpi\n        /* \"contracts/DecentralizedCharityFund.sol\":3441:3471  FundingRequest storage request */\n      0x00\n        /* \"contracts/DecentralizedCharityFund.sol\":3474:3489  fundingRequests */\n      0x02\n        /* \"contracts/DecentralizedCharityFund.sol\":3490:3491  i */\n      dup3\n        /* \"contracts/DecentralizedCharityFund.sol\":3474:3492  fundingRequests[i] */\n      dup2\n      sload\n      dup2\n      lt\n      tag_99\n      jumpi\n      tag_100\n      tag_59\n      jump\t// in\n    tag_100:\n    tag_99:\n      swap1\n      0x00\n      mstore\n      keccak256(0x00, 0x20)\n      swap1\n      0x06\n      mul\n      add\n        /* \"contracts/DecentralizedCharityFund.sol\":3441:3492  FundingRequest storage request = fundingRequests[i] */\n      swap1\n      pop\n        /* \"contracts/DecentralizedCharityFund.sol\":3532:3539  request */\n      dup1\n        /* \"contracts/DecentralizedCharityFund.sol\":3532:3554  request.projectAddress */\n      0x00\n      add\n      0x00\n      swap1\n      sload\n      swap1\n      0x0100\n      exp\n      swap1\n      div\n      0xffffffffffffffffffffffffffffffffffffffff\n      and\n        /* \"contracts/DecentralizedCharityFund.sol\":3510:3526  projectAddresses */\n      dup6\n        /* \"contracts/DecentralizedCharityFund.sol\":3527:3528  i */\n      dup4\n        /* \"contracts/DecentralizedCharityFund.sol\":3510:3529  projectAddresses[i] */\n      dup2\n      mload\n      dup2\n      lt\n      tag_102\n      jumpi\n      tag_103\n      tag_59\n      jump\t// in\n    tag_103:\n    tag_102:\n      0x20\n      mul\n      0x20\n      add\n      add\n        /* \"contracts/DecentralizedCharityFund.sol\":3510:3554  projectAddresses[i] = request.projectAddress */\n      swap1\n      0xffffffffffffffffffffffffffffffffffffffff\n      and\n      swap1\n      dup2\n      0xffffffffffffffffffffffffffffffffffffffff\n      and\n      dup2\n      mstore\n      pop\n      pop\n        /* \"contracts/DecentralizedCharityFund.sol\":3592:3599  request */\n      dup1\n        /* \"contracts/DecentralizedCharityFund.sol\":3592:3615  request.requestedAmount */\n      0x01\n      add\n      sload\n        /* \"contracts/DecentralizedCharityFund.sol\":3572:3586  requestAmounts */\n      dup5\n        /* \"contracts/DecentralizedCharityFund.sol\":3587:3588  i */\n      dup4\n        /* \"contracts/DecentralizedCharityFund.sol\":3572:3589  requestAmounts[i] */\n      dup2\n      mload\n      dup2\n      lt\n      tag_104\n      jumpi\n      tag_105\n      tag_59\n      jump\t// in\n    tag_105:\n    tag_104:\n      0x20\n      mul\n      0x20\n      add\n      add\n        /* \"contracts/DecentralizedCharityFund.sol\":3572:3615  requestAmounts[i] = request.requestedAmount */\n      dup2\n      dup2\n      mstore\n      pop\n      pop\n        /* \"contracts/DecentralizedCharityFund.sol\":3651:3658  request */\n      dup1\n        /* \"contracts/DecentralizedCharityFund.sol\":3651:3677  request.projectDescription */\n      0x02\n      add\n        /* \"contracts/DecentralizedCharityFund.sol\":3633:3677  descriptions[i] = request.projectDescription */\n      dup1\n      sload\n      tag_106\n      swap1\n      tag_107\n      jump\t// in\n    tag_106:\n      dup1\n      0x1f\n      add\n      0x20\n      dup1\n      swap2\n      div\n      mul\n      0x20\n      add\n      mload(0x40)\n      swap1\n      dup2\n      add\n      0x40\n      mstore\n      dup1\n      swap3\n      swap2\n      swap1\n      dup2\n      dup2\n      mstore\n      0x20\n      add\n      dup3\n      dup1\n      sload\n      tag_108\n      swap1\n      tag_107\n      jump\t// in\n    tag_108:\n      dup1\n      iszero\n      tag_109\n      jumpi\n      dup1\n      0x1f\n      lt\n      tag_110\n      jumpi\n      0x0100\n      dup1\n      dup4\n      sload\n      div\n      mul\n      dup4\n      mstore\n      swap2\n      0x20\n      add\n      swap2\n      jump(tag_109)\n    tag_110:\n      dup3\n      add\n      swap2\n      swap1\n      0x00\n      mstore\n      keccak256(0x00, 0x20)\n      swap1\n    tag_111:\n      dup2\n      sload\n      dup2\n      mstore\n      swap1\n      0x01\n      add\n      swap1\n      0x20\n      add\n      dup1\n      dup4\n      gt\n      tag_111\n      jumpi\n      dup3\n      swap1\n      sub\n      0x1f\n      and\n      dup3\n      add\n      swap2\n    tag_109:\n      pop\n      pop\n      pop\n      pop\n      pop\n        /* \"contracts/DecentralizedCharityFund.sol\":3633:3645  descriptions */\n      dup4\n        /* \"contracts/DecentralizedCharityFund.sol\":3646:3647  i */\n      dup4\n        /* \"contracts/DecentralizedCharityFund.sol\":3633:3648  descriptions[i] */\n      dup2\n      mload\n      dup2\n      lt\n      tag_112\n      jumpi\n      tag_113\n      tag_59\n      jump\t// in\n    tag_113:\n    tag_112:\n      0x20\n      mul\n      0x20\n      add\n      add\n        /* \"contracts/DecentralizedCharityFund.sol\":3633:3677  descriptions[i] = request.projectDescription */\n      dup2\n      swap1\n      mstore\n      pop\n        /* \"contracts/DecentralizedCharityFund.sol\":3423:3692  {... */\n      pop\n        /* \"contracts/DecentralizedCharityFund.sol\":3387:3692  if (fundingRequests[i].isFinalized) {... */\n    tag_98:\n        /* \"contracts/DecentralizedCharityFund.sol\":3368:3371  i++ */\n      dup1\n      dup1\n      0x01\n      add\n      swap2\n      pop\n      pop\n        /* \"contracts/DecentralizedCharityFund.sol\":3336:3702  for (uint256 i = 0; i < length; i++) {... */\n      jump(tag_92)\n    tag_93:\n      pop\n        /* \"contracts/DecentralizedCharityFund.sol\":3720:3736  projectAddresses */\n      dup3\n        /* \"contracts/DecentralizedCharityFund.sol\":3738:3752  requestAmounts */\n      dup3\n        /* \"contracts/DecentralizedCharityFund.sol\":3754:3766  descriptions */\n      dup3\n        /* \"contracts/DecentralizedCharityFund.sol\":3712:3767  return (projectAddresses, requestAmounts, descriptions) */\n      swap7\n      pop\n      swap7\n      pop\n      swap7\n      pop\n      pop\n      pop\n      pop\n      pop\n        /* \"contracts/DecentralizedCharityFund.sol\":2950:3774  function getFundingHistory() public view returns (... */\n      swap1\n      swap2\n      swap3\n      jump\t// out\n        /* \"contracts/DecentralizedCharityFund.sol\":424:463  FundingRequest[] public fundingRequests */\n    tag_26:\n      0x02\n      dup2\n      dup2\n      sload\n      dup2\n      lt\n      tag_114\n      jumpi\n      0x00\n      dup1\n      revert\n    tag_114:\n      swap1\n      0x00\n      mstore\n      keccak256(0x00, 0x20)\n      swap1\n      0x06\n      mul\n      add\n      0x00\n      swap2\n      pop\n      swap1\n      pop\n      dup1\n      0x00\n      add\n      0x00\n      swap1\n      sload\n      swap1\n      0x0100\n      exp\n      swap1\n      div\n      0xffffffffffffffffffffffffffffffffffffffff\n      and\n      swap1\n      dup1\n      0x01\n      add\n      sload\n      swap1\n      dup1\n      0x02\n      add\n      dup1\n      sload\n      tag_116\n      swap1\n      tag_107\n      jump\t// in\n    tag_116:\n      dup1\n      0x1f\n      add\n      0x20\n      dup1\n      swap2\n      div\n      mul\n      0x20\n      add\n      mload(0x40)\n      swap1\n      dup2\n      add\n      0x40\n      mstore\n      dup1\n      swap3\n      swap2\n      swap1\n      dup2\n      dup2\n      mstore\n      0x20\n      add\n      dup3\n      dup1\n      sload\n      tag_117\n      swap1\n      tag_107\n      jump\t// in\n    tag_117:\n      dup1\n      iszero\n      tag_118\n      jumpi\n      dup1\n      0x1f\n      lt\n      tag_119\n      jumpi\n      0x0100\n      dup1\n      dup4\n      sload\n      div\n      mul\n      dup4\n      mstore\n      swap2\n      0x20\n      add\n      swap2\n      jump(tag_118)\n    tag_119:\n      dup3\n      add\n      swap2\n      swap1\n      0x00\n      mstore\n      keccak256(0x00, 0x20)\n      swap1\n    tag_120:\n      dup2\n      sload\n      dup2\n      mstore\n      swap1\n      0x01\n      add\n      swap1\n      0x20\n      add\n      dup1\n      dup4\n      gt\n      tag_120\n      jumpi\n      dup3\n      swap1\n      sub\n      0x1f\n      and\n      dup3\n      add\n      swap2\n    tag_118:\n      pop\n      pop\n      pop\n      pop\n      pop\n      swap1\n      dup1\n      0x03\n      add\n      sload\n      swap1\n      dup1\n      0x04\n      add\n      0x00\n      swap1\n      sload\n      swap1\n      0x0100\n      exp\n      swap1\n      div\n      0xff\n      and\n      swap1\n      pop\n      dup6\n      jump\t// out\n        /* \"contracts/DecentralizedCharityFund.sol\":699:1479  function submitFundingRequest(... */\n    tag_33:\n        /* \"contracts/DecentralizedCharityFund.sol\":858:865  uint256 */\n      0x00\n        /* \"contracts/DecentralizedCharityFund.sol\":911:912  0 */\n      dup1\n        /* \"contracts/DecentralizedCharityFund.sol\":885:913  projectAddress != address(0) */\n      0xffffffffffffffffffffffffffffffffffffffff\n      and\n        /* \"contracts/DecentralizedCharityFund.sol\":885:899  projectAddress */\n      dup5\n        /* \"contracts/DecentralizedCharityFund.sol\":885:913  projectAddress != address(0) */\n      0xffffffffffffffffffffffffffffffffffffffff\n      and\n      sub\n        /* \"contracts/DecentralizedCharityFund.sol\":877:941  require(projectAddress != address(0), \"Invalid project address\") */\n      tag_122\n      jumpi\n      mload(0x40)\n      0x08c379a000000000000000000000000000000000000000000000000000000000\n      dup2\n      mstore\n      0x04\n      add\n      tag_123\n      swap1\n      tag_124\n      jump\t// in\n    tag_123:\n      mload(0x40)\n      dup1\n      swap2\n      sub\n      swap1\n      revert\n    tag_122:\n        /* \"contracts/DecentralizedCharityFund.sol\":977:978  0 */\n      0x00\n        /* \"contracts/DecentralizedCharityFund.sol\":959:974  requestedAmount */\n      dup4\n        /* \"contracts/DecentralizedCharityFund.sol\":959:978  requestedAmount > 0 */\n      gt\n        /* \"contracts/DecentralizedCharityFund.sol\":951:1022  require(requestedAmount > 0, \"Requested amount must be greater than 0\") */\n      tag_125\n      jumpi\n      mload(0x40)\n      0x08c379a000000000000000000000000000000000000000000000000000000000\n      dup2\n      mstore\n      0x04\n      add\n      tag_126\n      swap1\n      tag_127\n      jump\t// in\n    tag_126:\n      mload(0x40)\n      dup1\n      swap2\n      sub\n      swap1\n      revert\n    tag_125:\n        /* \"contracts/DecentralizedCharityFund.sol\":1075:1076  0 */\n      0x00\n        /* \"contracts/DecentralizedCharityFund.sol\":1046:1064  projectDescription */\n      dup3\n        /* \"contracts/DecentralizedCharityFund.sol\":1040:1072  bytes(projectDescription).length */\n      mload\n        /* \"contracts/DecentralizedCharityFund.sol\":1040:1076  bytes(projectDescription).length > 0 */\n      gt\n        /* \"contracts/DecentralizedCharityFund.sol\":1032:1116  require(bytes(projectDescription).length > 0, \"Project description cannot be empty\") */\n      tag_128\n      jumpi\n      mload(0x40)\n      0x08c379a000000000000000000000000000000000000000000000000000000000\n      dup2\n      mstore\n      0x04\n      add\n      tag_129\n      swap1\n      tag_130\n      jump\t// in\n    tag_129:\n      mload(0x40)\n      dup1\n      swap2\n      sub\n      swap1\n      revert\n    tag_128:\n        /* \"contracts/DecentralizedCharityFund.sol\":1127:1160  FundingRequest storage newRequest */\n      0x00\n        /* \"contracts/DecentralizedCharityFund.sol\":1163:1178  fundingRequests */\n      0x02\n        /* \"contracts/DecentralizedCharityFund.sol\":1163:1185  fundingRequests.push() */\n      0x01\n      dup2\n      0x01\n      dup2\n      sload\n      add\n      dup1\n      dup3\n      sstore\n      dup1\n      swap2\n      pop\n      pop\n      sub\n      swap1\n      0x00\n      mstore\n      keccak256(0x00, 0x20)\n      swap1\n      0x06\n      mul\n      add\n        /* \"contracts/DecentralizedCharityFund.sol\":1127:1185  FundingRequest storage newRequest = fundingRequests.push() */\n      swap1\n      pop\n        /* \"contracts/DecentralizedCharityFund.sol\":1223:1237  projectAddress */\n      dup5\n        /* \"contracts/DecentralizedCharityFund.sol\":1195:1205  newRequest */\n      dup2\n        /* \"contracts/DecentralizedCharityFund.sol\":1195:1220  newRequest.projectAddress */\n      0x00\n      add\n      0x00\n        /* \"contracts/DecentralizedCharityFund.sol\":1195:1237  newRequest.projectAddress = projectAddress */\n      0x0100\n      exp\n      dup2\n      sload\n      dup2\n      0xffffffffffffffffffffffffffffffffffffffff\n      mul\n      not\n      and\n      swap1\n      dup4\n      0xffffffffffffffffffffffffffffffffffffffff\n      and\n      mul\n      or\n      swap1\n      sstore\n      pop\n        /* \"contracts/DecentralizedCharityFund.sol\":1276:1291  requestedAmount */\n      dup4\n        /* \"contracts/DecentralizedCharityFund.sol\":1247:1257  newRequest */\n      dup2\n        /* \"contracts/DecentralizedCharityFund.sol\":1247:1273  newRequest.requestedAmount */\n      0x01\n      add\n        /* \"contracts/DecentralizedCharityFund.sol\":1247:1291  newRequest.requestedAmount = requestedAmount */\n      dup2\n      swap1\n      sstore\n      pop\n        /* \"contracts/DecentralizedCharityFund.sol\":1333:1351  projectDescription */\n      dup3\n        /* \"contracts/DecentralizedCharityFund.sol\":1301:1311  newRequest */\n      dup2\n        /* \"contracts/DecentralizedCharityFund.sol\":1301:1330  newRequest.projectDescription */\n      0x02\n      add\n        /* \"contracts/DecentralizedCharityFund.sol\":1301:1351  newRequest.projectDescription = projectDescription */\n      swap1\n      dup2\n      tag_132\n      swap2\n      swap1\n      tag_133\n      jump\t// in\n    tag_132:\n      pop\n        /* \"contracts/DecentralizedCharityFund.sol\":1388:1389  0 */\n      0x00\n        /* \"contracts/DecentralizedCharityFund.sol\":1361:1371  newRequest */\n      dup2\n        /* \"contracts/DecentralizedCharityFund.sol\":1361:1385  newRequest.votesReceived */\n      0x03\n      add\n        /* \"contracts/DecentralizedCharityFund.sol\":1361:1389  newRequest.votesReceived = 0 */\n      dup2\n      swap1\n      sstore\n      pop\n        /* \"contracts/DecentralizedCharityFund.sol\":1424:1429  false */\n      0x00\n        /* \"contracts/DecentralizedCharityFund.sol\":1399:1409  newRequest */\n      dup2\n        /* \"contracts/DecentralizedCharityFund.sol\":1399:1421  newRequest.isFinalized */\n      0x04\n      add\n      0x00\n        /* \"contracts/DecentralizedCharityFund.sol\":1399:1429  newRequest.isFinalized = false */\n      0x0100\n      exp\n      dup2\n      sload\n      dup2\n      0xff\n      mul\n      not\n      and\n      swap1\n      dup4\n      iszero\n      iszero\n      mul\n      or\n      swap1\n      sstore\n      pop\n        /* \"contracts/DecentralizedCharityFund.sol\":1471:1472  1 */\n      0x01\n        /* \"contracts/DecentralizedCharityFund.sol\":1446:1461  fundingRequests */\n      0x02\n        /* \"contracts/DecentralizedCharityFund.sol\":1446:1468  fundingRequests.length */\n      dup1\n      sload\n      swap1\n      pop\n        /* \"contracts/DecentralizedCharityFund.sol\":1446:1472  fundingRequests.length - 1 */\n      tag_134\n      swap2\n      swap1\n      tag_135\n      jump\t// in\n    tag_134:\n        /* \"contracts/DecentralizedCharityFund.sol\":1439:1472  return fundingRequests.length - 1 */\n      swap2\n      pop\n      pop\n        /* \"contracts/DecentralizedCharityFund.sol\":699:1479  function submitFundingRequest(... */\n      swap4\n      swap3\n      pop\n      pop\n      pop\n      jump\t// out\n        /* \"contracts/DecentralizedCharityFund.sol\":367:418  mapping(address => uint256) public donorVotingPower */\n    tag_40:\n      mstore(0x20, 0x01)\n      dup1\n      0x00\n      mstore\n      keccak256(0x00, 0x40)\n      0x00\n      swap2\n      pop\n      swap1\n      pop\n      sload\n      dup2\n      jump\t// out\n        /* \"contracts/DecentralizedCharityFund.sol\":332:361  uint256 public totalDonations */\n    tag_44:\n      sload(0x00)\n      dup2\n      jump\t// out\n        /* \"contracts/DecentralizedCharityFund.sol\":1485:2266  function voteOnRequest(uint256 requestId) public returns (bool) {... */\n    tag_49:\n        /* \"contracts/DecentralizedCharityFund.sol\":1543:1547  bool */\n      0x00\n        /* \"contracts/DecentralizedCharityFund.sol\":1579:1594  fundingRequests */\n      0x02\n        /* \"contracts/DecentralizedCharityFund.sol\":1579:1601  fundingRequests.length */\n      dup1\n      sload\n      swap1\n      pop\n        /* \"contracts/DecentralizedCharityFund.sol\":1567:1576  requestId */\n      dup3\n        /* \"contracts/DecentralizedCharityFund.sol\":1567:1601  requestId < fundingRequests.length */\n      lt\n        /* \"contracts/DecentralizedCharityFund.sol\":1559:1624  require(requestId < fundingRequests.length, \"Invalid request ID\") */\n      tag_137\n      jumpi\n      mload(0x40)\n      0x08c379a000000000000000000000000000000000000000000000000000000000\n      dup2\n      mstore\n      0x04\n      add\n      tag_138\n      swap1\n      tag_56\n      jump\t// in\n    tag_138:\n      mload(0x40)\n      dup1\n      swap2\n      sub\n      swap1\n      revert\n    tag_137:\n        /* \"contracts/DecentralizedCharityFund.sol\":1673:1674  0 */\n      0x00\n        /* \"contracts/DecentralizedCharityFund.sol\":1642:1658  donorVotingPower */\n      0x01\n        /* \"contracts/DecentralizedCharityFund.sol\":1642:1670  donorVotingPower[msg.sender] */\n      0x00\n        /* \"contracts/DecentralizedCharityFund.sol\":1659:1669  msg.sender */\n      caller\n        /* \"contracts/DecentralizedCharityFund.sol\":1642:1670  donorVotingPower[msg.sender] */\n      0xffffffffffffffffffffffffffffffffffffffff\n      and\n      0xffffffffffffffffffffffffffffffffffffffff\n      and\n      dup2\n      mstore\n      0x20\n      add\n      swap1\n      dup2\n      mstore\n      0x20\n      add\n      0x00\n      keccak256\n      sload\n        /* \"contracts/DecentralizedCharityFund.sol\":1642:1674  donorVotingPower[msg.sender] > 0 */\n      gt\n        /* \"contracts/DecentralizedCharityFund.sol\":1634:1694  require(donorVotingPower[msg.sender] > 0, \"No voting power\") */\n      tag_139\n      jumpi\n      mload(0x40)\n      0x08c379a000000000000000000000000000000000000000000000000000000000\n      dup2\n      mstore\n      0x04\n      add\n      tag_140\n      swap1\n      tag_141\n      jump\t// in\n    tag_140:\n      mload(0x40)\n      dup1\n      swap2\n      sub\n      swap1\n      revert\n    tag_139:\n        /* \"contracts/DecentralizedCharityFund.sol\":1713:1743  FundingRequest storage request */\n      0x00\n        /* \"contracts/DecentralizedCharityFund.sol\":1746:1761  fundingRequests */\n      0x02\n        /* \"contracts/DecentralizedCharityFund.sol\":1762:1771  requestId */\n      dup4\n        /* \"contracts/DecentralizedCharityFund.sol\":1746:1772  fundingRequests[requestId] */\n      dup2\n      sload\n      dup2\n      lt\n      tag_142\n      jumpi\n      tag_143\n      tag_59\n      jump\t// in\n    tag_143:\n    tag_142:\n      swap1\n      0x00\n      mstore\n      keccak256(0x00, 0x20)\n      swap1\n      0x06\n      mul\n      add\n        /* \"contracts/DecentralizedCharityFund.sol\":1713:1772  FundingRequest storage request = fundingRequests[requestId] */\n      swap1\n      pop\n        /* \"contracts/DecentralizedCharityFund.sol\":1791:1798  request */\n      dup1\n        /* \"contracts/DecentralizedCharityFund.sol\":1791:1810  request.isFinalized */\n      0x04\n      add\n      0x00\n      swap1\n      sload\n      swap1\n      0x0100\n      exp\n      swap1\n      div\n      0xff\n      and\n        /* \"contracts/DecentralizedCharityFund.sol\":1790:1810  !request.isFinalized */\n      iszero\n        /* \"contracts/DecentralizedCharityFund.sol\":1782:1840  require(!request.isFinalized, \"Request already finalized\") */\n      tag_145\n      jumpi\n      mload(0x40)\n      0x08c379a000000000000000000000000000000000000000000000000000000000\n      dup2\n      mstore\n      0x04\n      add\n      tag_146\n      swap1\n      tag_63\n      jump\t// in\n    tag_146:\n      mload(0x40)\n      dup1\n      swap2\n      sub\n      swap1\n      revert\n    tag_145:\n        /* \"contracts/DecentralizedCharityFund.sol\":1859:1866  request */\n      dup1\n        /* \"contracts/DecentralizedCharityFund.sol\":1859:1875  request.hasVoted */\n      0x05\n      add\n        /* \"contracts/DecentralizedCharityFund.sol\":1859:1887  request.hasVoted[msg.sender] */\n      0x00\n        /* \"contracts/DecentralizedCharityFund.sol\":1876:1886  msg.sender */\n      caller\n        /* \"contracts/DecentralizedCharityFund.sol\":1859:1887  request.hasVoted[msg.sender] */\n      0xffffffffffffffffffffffffffffffffffffffff\n      and\n      0xffffffffffffffffffffffffffffffffffffffff\n      and\n      dup2\n      mstore\n      0x20\n      add\n      swap1\n      dup2\n      mstore\n      0x20\n      add\n      0x00\n      keccak256\n      0x00\n      swap1\n      sload\n      swap1\n      0x0100\n      exp\n      swap1\n      div\n      0xff\n      and\n        /* \"contracts/DecentralizedCharityFund.sol\":1858:1887  !request.hasVoted[msg.sender] */\n      iszero\n        /* \"contracts/DecentralizedCharityFund.sol\":1850:1905  require(!request.hasVoted[msg.sender], \"Already voted\") */\n      tag_147\n      jumpi\n      mload(0x40)\n      0x08c379a000000000000000000000000000000000000000000000000000000000\n      dup2\n      mstore\n      0x04\n      add\n      tag_148\n      swap1\n      tag_149\n      jump\t// in\n    tag_148:\n      mload(0x40)\n      dup1\n      swap2\n      sub\n      swap1\n      revert\n    tag_147:\n        /* \"contracts/DecentralizedCharityFund.sol\":1941:1957  donorVotingPower */\n      0x01\n        /* \"contracts/DecentralizedCharityFund.sol\":1941:1969  donorVotingPower[msg.sender] */\n      0x00\n        /* \"contracts/DecentralizedCharityFund.sol\":1958:1968  msg.sender */\n      caller\n        /* \"contracts/DecentralizedCharityFund.sol\":1941:1969  donorVotingPower[msg.sender] */\n      0xffffffffffffffffffffffffffffffffffffffff\n      and\n      0xffffffffffffffffffffffffffffffffffffffff\n      and\n      dup2\n      mstore\n      0x20\n      add\n      swap1\n      dup2\n      mstore\n      0x20\n      add\n      0x00\n      keccak256\n      sload\n        /* \"contracts/DecentralizedCharityFund.sol\":1916:1923  request */\n      dup2\n        /* \"contracts/DecentralizedCharityFund.sol\":1916:1937  request.votesReceived */\n      0x03\n      add\n      0x00\n        /* \"contracts/DecentralizedCharityFund.sol\":1916:1969  request.votesReceived += donorVotingPower[msg.sender] */\n      dup3\n      dup3\n      sload\n      tag_150\n      swap2\n      swap1\n      tag_151\n      jump\t// in\n    tag_150:\n      swap3\n      pop\n      pop\n      dup2\n      swap1\n      sstore\n      pop\n        /* \"contracts/DecentralizedCharityFund.sol\":2010:2014  true */\n      0x01\n        /* \"contracts/DecentralizedCharityFund.sol\":1979:1986  request */\n      dup2\n        /* \"contracts/DecentralizedCharityFund.sol\":1979:1995  request.hasVoted */\n      0x05\n      add\n        /* \"contracts/DecentralizedCharityFund.sol\":1979:2007  request.hasVoted[msg.sender] */\n      0x00\n        /* \"contracts/DecentralizedCharityFund.sol\":1996:2006  msg.sender */\n      caller\n        /* \"contracts/DecentralizedCharityFund.sol\":1979:2007  request.hasVoted[msg.sender] */\n      0xffffffffffffffffffffffffffffffffffffffff\n      and\n      0xffffffffffffffffffffffffffffffffffffffff\n      and\n      dup2\n      mstore\n      0x20\n      add\n      swap1\n      dup2\n      mstore\n      0x20\n      add\n      0x00\n      keccak256\n      0x00\n        /* \"contracts/DecentralizedCharityFund.sol\":1979:2014  request.hasVoted[msg.sender] = true */\n      0x0100\n      exp\n      dup2\n      sload\n      dup2\n      0xff\n      mul\n      not\n      and\n      swap1\n      dup4\n      iszero\n      iszero\n      mul\n      or\n      swap1\n      sstore\n      pop\n        /* \"contracts/DecentralizedCharityFund.sol\":2119:2120  2 */\n      0x02\n        /* \"contracts/DecentralizedCharityFund.sol\":2102:2116  totalDonations */\n      sload(0x00)\n        /* \"contracts/DecentralizedCharityFund.sol\":2102:2120  totalDonations / 2 */\n      tag_152\n      swap2\n      swap1\n      tag_65\n      jump\t// in\n    tag_152:\n        /* \"contracts/DecentralizedCharityFund.sol\":2078:2085  request */\n      dup2\n        /* \"contracts/DecentralizedCharityFund.sol\":2078:2099  request.votesReceived */\n      0x03\n      add\n      sload\n        /* \"contracts/DecentralizedCharityFund.sol\":2078:2120  request.votesReceived > totalDonations / 2 */\n      gt\n        /* \"contracts/DecentralizedCharityFund.sol\":2078:2185  request.votesReceived > totalDonations / 2 && ... */\n      dup1\n      iszero\n      tag_153\n      jumpi\n      pop\n        /* \"contracts/DecentralizedCharityFund.sol\":2162:2169  request */\n      dup1\n        /* \"contracts/DecentralizedCharityFund.sol\":2162:2185  request.requestedAmount */\n      0x01\n      add\n      sload\n        /* \"contracts/DecentralizedCharityFund.sol\":2137:2158  address(this).balance */\n      selfbalance\n        /* \"contracts/DecentralizedCharityFund.sol\":2137:2185  address(this).balance >= request.requestedAmount */\n      lt\n      iszero\n        /* \"contracts/DecentralizedCharityFund.sol\":2078:2185  request.votesReceived > totalDonations / 2 && ... */\n    tag_153:\n        /* \"contracts/DecentralizedCharityFund.sol\":2074:2238  if (request.votesReceived > totalDonations / 2 && ... */\n      iszero\n      tag_154\n      jumpi\n        /* \"contracts/DecentralizedCharityFund.sol\":2201:2227  finalizeRequest(requestId) */\n      tag_155\n        /* \"contracts/DecentralizedCharityFund.sol\":2217:2226  requestId */\n      dup4\n        /* \"contracts/DecentralizedCharityFund.sol\":2201:2216  finalizeRequest */\n      tag_15\n        /* \"contracts/DecentralizedCharityFund.sol\":2201:2227  finalizeRequest(requestId) */\n      jump\t// in\n    tag_155:\n      pop\n        /* \"contracts/DecentralizedCharityFund.sol\":2074:2238  if (request.votesReceived > totalDonations / 2 && ... */\n    tag_154:\n        /* \"contracts/DecentralizedCharityFund.sol\":2255:2259  true */\n      0x01\n        /* \"contracts/DecentralizedCharityFund.sol\":2248:2259  return true */\n      swap2\n      pop\n      pop\n        /* \"contracts/DecentralizedCharityFund.sol\":1485:2266  function voteOnRequest(uint256 requestId) public returns (bool) {... */\n      swap2\n      swap1\n      pop\n      jump\t// out\n        /* \"contracts/DecentralizedCharityFund.sol\":498:693  function donate() public payable {... */\n    tag_52:\n        /* \"contracts/DecentralizedCharityFund.sol\":561:562  0 */\n      0x00\n        /* \"contracts/DecentralizedCharityFund.sol\":549:558  msg.value */\n      callvalue\n        /* \"contracts/DecentralizedCharityFund.sol\":549:562  msg.value > 0 */\n      gt\n        /* \"contracts/DecentralizedCharityFund.sol\":541:598  require(msg.value > 0, \"Donation must be greater than 0\") */\n      tag_157\n      jumpi\n      mload(0x40)\n      0x08c379a000000000000000000000000000000000000000000000000000000000\n      dup2\n      mstore\n      0x04\n      add\n      tag_158\n      swap1\n      tag_159\n      jump\t// in\n    tag_158:\n      mload(0x40)\n      dup1\n      swap2\n      sub\n      swap1\n      revert\n    tag_157:\n        /* \"contracts/DecentralizedCharityFund.sol\":640:649  msg.value */\n      callvalue\n        /* \"contracts/DecentralizedCharityFund.sol\":608:624  donorVotingPower */\n      0x01\n        /* \"contracts/DecentralizedCharityFund.sol\":608:636  donorVotingPower[msg.sender] */\n      0x00\n        /* \"contracts/DecentralizedCharityFund.sol\":625:635  msg.sender */\n      caller\n        /* \"contracts/DecentralizedCharityFund.sol\":608:636  donorVotingPower[msg.sender] */\n      0xffffffffffffffffffffffffffffffffffffffff\n      and\n      0xffffffffffffffffffffffffffffffffffffffff\n      and\n      dup2\n      mstore\n      0x20\n      add\n      swap1\n      dup2\n      mstore\n      0x20\n      add\n      0x00\n      keccak256\n      0x00\n        /* \"contracts/DecentralizedCharityFund.sol\":608:649  donorVotingPower[msg.sender] += msg.value */\n      dup3\n      dup3\n      sload\n      tag_160\n      swap2\n      swap1\n      tag_151\n      jump\t// in\n    tag_160:\n      swap3\n      pop\n      pop\n      dup2\n      swap1\n      sstore\n      pop\n        /* \"contracts/DecentralizedCharityFund.sol\":677:686  msg.value */\n      callvalue\n        /* \"contracts/DecentralizedCharityFund.sol\":659:673  totalDonations */\n      0x00\n      dup1\n        /* \"contracts/DecentralizedCharityFund.sol\":659:686  totalDonations += msg.value */\n      dup3\n      dup3\n      sload\n      tag_161\n      swap2\n      swap1\n      tag_151\n      jump\t// in\n    tag_161:\n      swap3\n      pop\n      pop\n      dup2\n      swap1\n      sstore\n      pop\n        /* \"contracts/DecentralizedCharityFund.sol\":498:693  function donate() public payable {... */\n      jump\t// out\n        /* \"#utility.yul\":7:82   */\n    tag_162:\n        /* \"#utility.yul\":40:46   */\n      0x00\n        /* \"#utility.yul\":73:75   */\n      0x40\n        /* \"#utility.yul\":67:76   */\n      mload\n        /* \"#utility.yul\":57:76   */\n      swap1\n      pop\n        /* \"#utility.yul\":7:82   */\n      swap1\n      jump\t// out\n        /* \"#utility.yul\":88:205   */\n    tag_163:\n        /* \"#utility.yul\":197:198   */\n      0x00\n        /* \"#utility.yul\":194:195   */\n      dup1\n        /* \"#utility.yul\":187:199   */\n      revert\n        /* \"#utility.yul\":211:328   */\n    tag_164:\n        /* \"#utility.yul\":320:321   */\n      0x00\n        /* \"#utility.yul\":317:318   */\n      dup1\n        /* \"#utility.yul\":310:322   */\n      revert\n        /* \"#utility.yul\":334:411   */\n    tag_165:\n        /* \"#utility.yul\":371:378   */\n      0x00\n        /* \"#utility.yul\":400:405   */\n      dup2\n        /* \"#utility.yul\":389:405   */\n      swap1\n      pop\n        /* \"#utility.yul\":334:411   */\n      swap2\n      swap1\n      pop\n      jump\t// out\n        /* \"#utility.yul\":417:539   */\n    tag_166:\n        /* \"#utility.yul\":490:514   */\n      tag_260\n        /* \"#utility.yul\":508:513   */\n      dup2\n        /* \"#utility.yul\":490:514   */\n      tag_165\n      jump\t// in\n    tag_260:\n        /* \"#utility.yul\":483:488   */\n      dup2\n        /* \"#utility.yul\":480:515   */\n      eq\n        /* \"#utility.yul\":470:533   */\n      tag_261\n      jumpi\n        /* \"#utility.yul\":529:530   */\n      0x00\n        /* \"#utility.yul\":526:527   */\n      dup1\n        /* \"#utility.yul\":519:531   */\n      revert\n        /* \"#utility.yul\":470:533   */\n    tag_261:\n        /* \"#utility.yul\":417:539   */\n      pop\n      jump\t// out\n        /* \"#utility.yul\":545:684   */\n    tag_167:\n        /* \"#utility.yul\":591:596   */\n      0x00\n        /* \"#utility.yul\":629:635   */\n      dup2\n        /* \"#utility.yul\":616:636   */\n      calldataload\n        /* \"#utility.yul\":607:636   */\n      swap1\n      pop\n        /* \"#utility.yul\":645:678   */\n      tag_263\n        /* \"#utility.yul\":672:677   */\n      dup2\n        /* \"#utility.yul\":645:678   */\n      tag_166\n      jump\t// in\n    tag_263:\n        /* \"#utility.yul\":545:684   */\n      swap3\n      swap2\n      pop\n      pop\n      jump\t// out\n        /* \"#utility.yul\":690:1019   */\n    tag_14:\n        /* \"#utility.yul\":749:755   */\n      0x00\n        /* \"#utility.yul\":798:800   */\n      0x20\n        /* \"#utility.yul\":786:795   */\n      dup3\n        /* \"#utility.yul\":777:784   */\n      dup5\n        /* \"#utility.yul\":773:796   */\n      sub\n        /* \"#utility.yul\":769:801   */\n      slt\n        /* \"#utility.yul\":766:885   */\n      iszero\n      tag_265\n      jumpi\n        /* \"#utility.yul\":804:883   */\n      tag_266\n      tag_163\n      jump\t// in\n    tag_266:\n        /* \"#utility.yul\":766:885   */\n    tag_265:\n        /* \"#utility.yul\":924:925   */\n      0x00\n        /* \"#utility.yul\":949:1002   */\n      tag_267\n        /* \"#utility.yul\":994:1001   */\n      dup5\n        /* \"#utility.yul\":985:991   */\n      dup3\n        /* \"#utility.yul\":974:983   */\n      dup6\n        /* \"#utility.yul\":970:992   */\n      add\n        /* \"#utility.yul\":949:1002   */\n      tag_167\n      jump\t// in\n    tag_267:\n        /* \"#utility.yul\":939:1002   */\n      swap2\n      pop\n        /* \"#utility.yul\":895:1012   */\n      pop\n        /* \"#utility.yul\":690:1019   */\n      swap3\n      swap2\n      pop\n      pop\n      jump\t// out\n        /* \"#utility.yul\":1025:1115   */\n    tag_168:\n        /* \"#utility.yul\":1059:1066   */\n      0x00\n        /* \"#utility.yul\":1102:1107   */\n      dup2\n        /* \"#utility.yul\":1095:1108   */\n      iszero\n        /* \"#utility.yul\":1088:1109   */\n      iszero\n        /* \"#utility.yul\":1077:1109   */\n      swap1\n      pop\n        /* \"#utility.yul\":1025:1115   */\n      swap2\n      swap1\n      pop\n      jump\t// out\n        /* \"#utility.yul\":1121:1230   */\n    tag_169:\n        /* \"#utility.yul\":1202:1223   */\n      tag_270\n        /* \"#utility.yul\":1217:1222   */\n      dup2\n        /* \"#utility.yul\":1202:1223   */\n      tag_168\n      jump\t// in\n    tag_270:\n        /* \"#utility.yul\":1197:1200   */\n      dup3\n        /* \"#utility.yul\":1190:1224   */\n      mstore\n        /* \"#utility.yul\":1121:1230   */\n      pop\n      pop\n      jump\t// out\n        /* \"#utility.yul\":1236:1446   */\n    tag_17:\n        /* \"#utility.yul\":1323:1327   */\n      0x00\n        /* \"#utility.yul\":1361:1363   */\n      0x20\n        /* \"#utility.yul\":1350:1359   */\n      dup3\n        /* \"#utility.yul\":1346:1364   */\n      add\n        /* \"#utility.yul\":1338:1364   */\n      swap1\n      pop\n        /* \"#utility.yul\":1374:1439   */\n      tag_272\n        /* \"#utility.yul\":1436:1437   */\n      0x00\n        /* \"#utility.yul\":1425:1434   */\n      dup4\n        /* \"#utility.yul\":1421:1438   */\n      add\n        /* \"#utility.yul\":1412:1418   */\n      dup5\n        /* \"#utility.yul\":1374:1439   */\n      tag_169\n      jump\t// in\n    tag_272:\n        /* \"#utility.yul\":1236:1446   */\n      swap3\n      swap2\n      pop\n      pop\n      jump\t// out\n        /* \"#utility.yul\":1452:1566   */\n    tag_170:\n        /* \"#utility.yul\":1519:1525   */\n      0x00\n        /* \"#utility.yul\":1553:1558   */\n      dup2\n        /* \"#utility.yul\":1547:1559   */\n      mload\n        /* \"#utility.yul\":1537:1559   */\n      swap1\n      pop\n        /* \"#utility.yul\":1452:1566   */\n      swap2\n      swap1\n      pop\n      jump\t// out\n        /* \"#utility.yul\":1572:1756   */\n    tag_171:\n        /* \"#utility.yul\":1671:1682   */\n      0x00\n        /* \"#utility.yul\":1705:1711   */\n      dup3\n        /* \"#utility.yul\":1700:1703   */\n      dup3\n        /* \"#utility.yul\":1693:1712   */\n      mstore\n        /* \"#utility.yul\":1745:1749   */\n      0x20\n        /* \"#utility.yul\":1740:1743   */\n      dup3\n        /* \"#utility.yul\":1736:1750   */\n      add\n        /* \"#utility.yul\":1721:1750   */\n      swap1\n      pop\n        /* \"#utility.yul\":1572:1756   */\n      swap3\n      swap2\n      pop\n      pop\n      jump\t// out\n        /* \"#utility.yul\":1762:1894   */\n    tag_172:\n        /* \"#utility.yul\":1829:1833   */\n      0x00\n        /* \"#utility.yul\":1852:1855   */\n      dup2\n        /* \"#utility.yul\":1844:1855   */\n      swap1\n      pop\n        /* \"#utility.yul\":1882:1886   */\n      0x20\n        /* \"#utility.yul\":1877:1880   */\n      dup3\n        /* \"#utility.yul\":1873:1887   */\n      add\n        /* \"#utility.yul\":1865:1887   */\n      swap1\n      pop\n        /* \"#utility.yul\":1762:1894   */\n      swap2\n      swap1\n      pop\n      jump\t// out\n        /* \"#utility.yul\":1900:2026   */\n    tag_173:\n        /* \"#utility.yul\":1937:1944   */\n      0x00\n        /* \"#utility.yul\":1977:2019   */\n      0xffffffffffffffffffffffffffffffffffffffff\n        /* \"#utility.yul\":1970:1975   */\n      dup3\n        /* \"#utility.yul\":1966:2020   */\n      and\n        /* \"#utility.yul\":1955:2020   */\n      swap1\n      pop\n        /* \"#utility.yul\":1900:2026   */\n      swap2\n      swap1\n      pop\n      jump\t// out\n        /* \"#utility.yul\":2032:2128   */\n    tag_174:\n        /* \"#utility.yul\":2069:2076   */\n      0x00\n        /* \"#utility.yul\":2098:2122   */\n      tag_278\n        /* \"#utility.yul\":2116:2121   */\n      dup3\n        /* \"#utility.yul\":2098:2122   */\n      tag_173\n      jump\t// in\n    tag_278:\n        /* \"#utility.yul\":2087:2122   */\n      swap1\n      pop\n        /* \"#utility.yul\":2032:2128   */\n      swap2\n      swap1\n      pop\n      jump\t// out\n        /* \"#utility.yul\":2134:2242   */\n    tag_175:\n        /* \"#utility.yul\":2211:2235   */\n      tag_280\n        /* \"#utility.yul\":2229:2234   */\n      dup2\n        /* \"#utility.yul\":2211:2235   */\n      tag_174\n      jump\t// in\n    tag_280:\n        /* \"#utility.yul\":2206:2209   */\n      dup3\n        /* \"#utility.yul\":2199:2236   */\n      mstore\n        /* \"#utility.yul\":2134:2242   */\n      pop\n      pop\n      jump\t// out\n        /* \"#utility.yul\":2248:2427   */\n    tag_176:\n        /* \"#utility.yul\":2317:2327   */\n      0x00\n        /* \"#utility.yul\":2338:2384   */\n      tag_282\n        /* \"#utility.yul\":2380:2383   */\n      dup4\n        /* \"#utility.yul\":2372:2378   */\n      dup4\n        /* \"#utility.yul\":2338:2384   */\n      tag_175\n      jump\t// in\n    tag_282:\n        /* \"#utility.yul\":2416:2420   */\n      0x20\n        /* \"#utility.yul\":2411:2414   */\n      dup4\n        /* \"#utility.yul\":2407:2421   */\n      add\n        /* \"#utility.yul\":2393:2421   */\n      swap1\n      pop\n        /* \"#utility.yul\":2248:2427   */\n      swap3\n      swap2\n      pop\n      pop\n      jump\t// out\n        /* \"#utility.yul\":2433:2546   */\n    tag_177:\n        /* \"#utility.yul\":2503:2507   */\n      0x00\n        /* \"#utility.yul\":2535:2539   */\n      0x20\n        /* \"#utility.yul\":2530:2533   */\n      dup3\n        /* \"#utility.yul\":2526:2540   */\n      add\n        /* \"#utility.yul\":2518:2540   */\n      swap1\n      pop\n        /* \"#utility.yul\":2433:2546   */\n      swap2\n      swap1\n      pop\n      jump\t// out\n        /* \"#utility.yul\":2582:3314   */\n    tag_178:\n        /* \"#utility.yul\":2701:2704   */\n      0x00\n        /* \"#utility.yul\":2730:2784   */\n      tag_285\n        /* \"#utility.yul\":2778:2783   */\n      dup3\n        /* \"#utility.yul\":2730:2784   */\n      tag_170\n      jump\t// in\n    tag_285:\n        /* \"#utility.yul\":2800:2886   */\n      tag_286\n        /* \"#utility.yul\":2879:2885   */\n      dup2\n        /* \"#utility.yul\":2874:2877   */\n      dup6\n        /* \"#utility.yul\":2800:2886   */\n      tag_171\n      jump\t// in\n    tag_286:\n        /* \"#utility.yul\":2793:2886   */\n      swap4\n      pop\n        /* \"#utility.yul\":2910:2966   */\n      tag_287\n        /* \"#utility.yul\":2960:2965   */\n      dup4\n        /* \"#utility.yul\":2910:2966   */\n      tag_172\n      jump\t// in\n    tag_287:\n        /* \"#utility.yul\":2989:2996   */\n      dup1\n        /* \"#utility.yul\":3020:3021   */\n      0x00\n        /* \"#utility.yul\":3005:3289   */\n    tag_288:\n        /* \"#utility.yul\":3030:3036   */\n      dup4\n        /* \"#utility.yul\":3027:3028   */\n      dup2\n        /* \"#utility.yul\":3024:3037   */\n      lt\n        /* \"#utility.yul\":3005:3289   */\n      iszero\n      tag_290\n      jumpi\n        /* \"#utility.yul\":3106:3112   */\n      dup2\n        /* \"#utility.yul\":3100:3113   */\n      mload\n        /* \"#utility.yul\":3133:3196   */\n      tag_291\n        /* \"#utility.yul\":3192:3195   */\n      dup9\n        /* \"#utility.yul\":3177:3190   */\n      dup3\n        /* \"#utility.yul\":3133:3196   */\n      tag_176\n      jump\t// in\n    tag_291:\n        /* \"#utility.yul\":3126:3196   */\n      swap8\n      pop\n        /* \"#utility.yul\":3219:3279   */\n      tag_292\n        /* \"#utility.yul\":3272:3278   */\n      dup4\n        /* \"#utility.yul\":3219:3279   */\n      tag_177\n      jump\t// in\n    tag_292:\n        /* \"#utility.yul\":3209:3279   */\n      swap3\n      pop\n        /* \"#utility.yul\":3065:3289   */\n      pop\n        /* \"#utility.yul\":3052:3053   */\n      0x01\n        /* \"#utility.yul\":3049:3050   */\n      dup2\n        /* \"#utility.yul\":3045:3054   */\n      add\n        /* \"#utility.yul\":3040:3054   */\n      swap1\n      pop\n        /* \"#utility.yul\":3005:3289   */\n      jump(tag_288)\n    tag_290:\n        /* \"#utility.yul\":3009:3023   */\n      pop\n        /* \"#utility.yul\":3305:3308   */\n      dup6\n        /* \"#utility.yul\":3298:3308   */\n      swap4\n      pop\n        /* \"#utility.yul\":2706:3314   */\n      pop\n      pop\n      pop\n        /* \"#utility.yul\":2582:3314   */\n      swap3\n      swap2\n      pop\n      pop\n      jump\t// out\n        /* \"#utility.yul\":3320:3434   */\n    tag_179:\n        /* \"#utility.yul\":3387:3393   */\n      0x00\n        /* \"#utility.yul\":3421:3426   */\n      dup2\n        /* \"#utility.yul\":3415:3427   */\n      mload\n        /* \"#utility.yul\":3405:3427   */\n      swap1\n      pop\n        /* \"#utility.yul\":3320:3434   */\n      swap2\n      swap1\n      pop\n      jump\t// out\n        /* \"#utility.yul\":3440:3624   */\n    tag_180:\n        /* \"#utility.yul\":3539:3550   */\n      0x00\n        /* \"#utility.yul\":3573:3579   */\n      dup3\n        /* \"#utility.yul\":3568:3571   */\n      dup3\n        /* \"#utility.yul\":3561:3580   */\n      mstore\n        /* \"#utility.yul\":3613:3617   */\n      0x20\n        /* \"#utility.yul\":3608:3611   */\n      dup3\n        /* \"#utility.yul\":3604:3618   */\n      add\n        /* \"#utility.yul\":3589:3618   */\n      swap1\n      pop\n        /* \"#utility.yul\":3440:3624   */\n      swap3\n      swap2\n      pop\n      pop\n      jump\t// out\n        /* \"#utility.yul\":3630:3762   */\n    tag_181:\n        /* \"#utility.yul\":3697:3701   */\n      0x00\n        /* \"#utility.yul\":3720:3723   */\n      dup2\n        /* \"#utility.yul\":3712:3723   */\n      swap1\n      pop\n        /* \"#utility.yul\":3750:3754   */\n      0x20\n        /* \"#utility.yul\":3745:3748   */\n      dup3\n        /* \"#utility.yul\":3741:3755   */\n      add\n        /* \"#utility.yul\":3733:3755   */\n      swap1\n      pop\n        /* \"#utility.yul\":3630:3762   */\n      swap2\n      swap1\n      pop\n      jump\t// out\n        /* \"#utility.yul\":3768:3876   */\n    tag_182:\n        /* \"#utility.yul\":3845:3869   */\n      tag_297\n        /* \"#utility.yul\":3863:3868   */\n      dup2\n        /* \"#utility.yul\":3845:3869   */\n      tag_165\n      jump\t// in\n    tag_297:\n        /* \"#utility.yul\":3840:3843   */\n      dup3\n        /* \"#utility.yul\":3833:3870   */\n      mstore\n        /* \"#utility.yul\":3768:3876   */\n      pop\n      pop\n      jump\t// out\n        /* \"#utility.yul\":3882:4061   */\n    tag_183:\n        /* \"#utility.yul\":3951:3961   */\n      0x00\n        /* \"#utility.yul\":3972:4018   */\n      tag_299\n        /* \"#utility.yul\":4014:4017   */\n      dup4\n        /* \"#utility.yul\":4006:4012   */\n      dup4\n        /* \"#utility.yul\":3972:4018   */\n      tag_182\n      jump\t// in\n    tag_299:\n        /* \"#utility.yul\":4050:4054   */\n      0x20\n        /* \"#utility.yul\":4045:4048   */\n      dup4\n        /* \"#utility.yul\":4041:4055   */\n      add\n        /* \"#utility.yul\":4027:4055   */\n      swap1\n      pop\n        /* \"#utility.yul\":3882:4061   */\n      swap3\n      swap2\n      pop\n      pop\n      jump\t// out\n        /* \"#utility.yul\":4067:4180   */\n    tag_184:\n        /* \"#utility.yul\":4137:4141   */\n      0x00\n        /* \"#utility.yul\":4169:4173   */\n      0x20\n        /* \"#utility.yul\":4164:4167   */\n      dup3\n        /* \"#utility.yul\":4160:4174   */\n      add\n        /* \"#utility.yul\":4152:4174   */\n      swap1\n      pop\n        /* \"#utility.yul\":4067:4180   */\n      swap2\n      swap1\n      pop\n      jump\t// out\n        /* \"#utility.yul\":4216:4948   */\n    tag_185:\n        /* \"#utility.yul\":4335:4338   */\n      0x00\n        /* \"#utility.yul\":4364:4418   */\n      tag_302\n        /* \"#utility.yul\":4412:4417   */\n      dup3\n        /* \"#utility.yul\":4364:4418   */\n      tag_179\n      jump\t// in\n    tag_302:\n        /* \"#utility.yul\":4434:4520   */\n      tag_303\n        /* \"#utility.yul\":4513:4519   */\n      dup2\n        /* \"#utility.yul\":4508:4511   */\n      dup6\n        /* \"#utility.yul\":4434:4520   */\n      tag_180\n      jump\t// in\n    tag_303:\n        /* \"#utility.yul\":4427:4520   */\n      swap4\n      pop\n        /* \"#utility.yul\":4544:4600   */\n      tag_304\n        /* \"#utility.yul\":4594:4599   */\n      dup4\n        /* \"#utility.yul\":4544:4600   */\n      tag_181\n      jump\t// in\n    tag_304:\n        /* \"#utility.yul\":4623:4630   */\n      dup1\n        /* \"#utility.yul\":4654:4655   */\n      0x00\n        /* \"#utility.yul\":4639:4923   */\n    tag_305:\n        /* \"#utility.yul\":4664:4670   */\n      dup4\n        /* \"#utility.yul\":4661:4662   */\n      dup2\n        /* \"#utility.yul\":4658:4671   */\n      lt\n        /* \"#utility.yul\":4639:4923   */\n      iszero\n      tag_307\n      jumpi\n        /* \"#utility.yul\":4740:4746   */\n      dup2\n        /* \"#utility.yul\":4734:4747   */\n      mload\n        /* \"#utility.yul\":4767:4830   */\n      tag_308\n        /* \"#utility.yul\":4826:4829   */\n      dup9\n        /* \"#utility.yul\":4811:4824   */\n      dup3\n        /* \"#utility.yul\":4767:4830   */\n      tag_183\n      jump\t// in\n    tag_308:\n        /* \"#utility.yul\":4760:4830   */\n      swap8\n      pop\n        /* \"#utility.yul\":4853:4913   */\n      tag_309\n        /* \"#utility.yul\":4906:4912   */\n      dup4\n        /* \"#utility.yul\":4853:4913   */\n      tag_184\n      jump\t// in\n    tag_309:\n        /* \"#utility.yul\":4843:4913   */\n      swap3\n      pop\n        /* \"#utility.yul\":4699:4923   */\n      pop\n        /* \"#utility.yul\":4686:4687   */\n      0x01\n        /* \"#utility.yul\":4683:4684   */\n      dup2\n        /* \"#utility.yul\":4679:4688   */\n      add\n        /* \"#utility.yul\":4674:4688   */\n      swap1\n      pop\n        /* \"#utility.yul\":4639:4923   */\n      jump(tag_305)\n    tag_307:\n        /* \"#utility.yul\":4643:4657   */\n      pop\n        /* \"#utility.yul\":4939:4942   */\n      dup6\n        /* \"#utility.yul\":4932:4942   */\n      swap4\n      pop\n        /* \"#utility.yul\":4340:4948   */\n      pop\n      pop\n      pop\n        /* \"#utility.yul\":4216:4948   */\n      swap3\n      swap2\n      pop\n      pop\n      jump\t// out\n        /* \"#utility.yul\":4954:5078   */\n    tag_186:\n        /* \"#utility.yul\":5031:5037   */\n      0x00\n        /* \"#utility.yul\":5065:5070   */\n      dup2\n        /* \"#utility.yul\":5059:5071   */\n      mload\n        /* \"#utility.yul\":5049:5071   */\n      swap1\n      pop\n        /* \"#utility.yul\":4954:5078   */\n      swap2\n      swap1\n      pop\n      jump\t// out\n        /* \"#utility.yul\":5084:5278   */\n    tag_187:\n        /* \"#utility.yul\":5193:5204   */\n      0x00\n        /* \"#utility.yul\":5227:5233   */\n      dup3\n        /* \"#utility.yul\":5222:5225   */\n      dup3\n        /* \"#utility.yul\":5215:5234   */\n      mstore\n        /* \"#utility.yul\":5267:5271   */\n      0x20\n        /* \"#utility.yul\":5262:5265   */\n      dup3\n        /* \"#utility.yul\":5258:5272   */\n      add\n        /* \"#utility.yul\":5243:5272   */\n      swap1\n      pop\n        /* \"#utility.yul\":5084:5278   */\n      swap3\n      swap2\n      pop\n      pop\n      jump\t// out\n        /* \"#utility.yul\":5284:5426   */\n    tag_188:\n        /* \"#utility.yul\":5361:5365   */\n      0x00\n        /* \"#utility.yul\":5384:5387   */\n      dup2\n        /* \"#utility.yul\":5376:5387   */\n      swap1\n      pop\n        /* \"#utility.yul\":5414:5418   */\n      0x20\n        /* \"#utility.yul\":5409:5412   */\n      dup3\n        /* \"#utility.yul\":5405:5419   */\n      add\n        /* \"#utility.yul\":5397:5419   */\n      swap1\n      pop\n        /* \"#utility.yul\":5284:5426   */\n      swap2\n      swap1\n      pop\n      jump\t// out\n        /* \"#utility.yul\":5432:5531   */\n    tag_189:\n        /* \"#utility.yul\":5484:5490   */\n      0x00\n        /* \"#utility.yul\":5518:5523   */\n      dup2\n        /* \"#utility.yul\":5512:5524   */\n      mload\n        /* \"#utility.yul\":5502:5524   */\n      swap1\n      pop\n        /* \"#utility.yul\":5432:5531   */\n      swap2\n      swap1\n      pop\n      jump\t// out\n        /* \"#utility.yul\":5537:5696   */\n    tag_190:\n        /* \"#utility.yul\":5611:5622   */\n      0x00\n        /* \"#utility.yul\":5645:5651   */\n      dup3\n        /* \"#utility.yul\":5640:5643   */\n      dup3\n        /* \"#utility.yul\":5633:5652   */\n      mstore\n        /* \"#utility.yul\":5685:5689   */\n      0x20\n        /* \"#utility.yul\":5680:5683   */\n      dup3\n        /* \"#utility.yul\":5676:5690   */\n      add\n        /* \"#utility.yul\":5661:5690   */\n      swap1\n      pop\n        /* \"#utility.yul\":5537:5696   */\n      swap3\n      swap2\n      pop\n      pop\n      jump\t// out\n        /* \"#utility.yul\":5702:5841   */\n    tag_191:\n        /* \"#utility.yul\":5791:5797   */\n      dup3\n        /* \"#utility.yul\":5786:5789   */\n      dup2\n        /* \"#utility.yul\":5781:5784   */\n      dup4\n        /* \"#utility.yul\":5775:5798   */\n      mcopy\n        /* \"#utility.yul\":5832:5833   */\n      0x00\n        /* \"#utility.yul\":5823:5829   */\n      dup4\n        /* \"#utility.yul\":5818:5821   */\n      dup4\n        /* \"#utility.yul\":5814:5830   */\n      add\n        /* \"#utility.yul\":5807:5834   */\n      mstore\n        /* \"#utility.yul\":5702:5841   */\n      pop\n      pop\n      pop\n      jump\t// out\n        /* \"#utility.yul\":5847:5949   */\n    tag_192:\n        /* \"#utility.yul\":5888:5894   */\n      0x00\n        /* \"#utility.yul\":5939:5941   */\n      0x1f\n        /* \"#utility.yul\":5935:5942   */\n      not\n        /* \"#utility.yul\":5930:5932   */\n      0x1f\n        /* \"#utility.yul\":5923:5928   */\n      dup4\n        /* \"#utility.yul\":5919:5933   */\n      add\n        /* \"#utility.yul\":5915:5943   */\n      and\n        /* \"#utility.yul\":5905:5943   */\n      swap1\n      pop\n        /* \"#utility.yul\":5847:5949   */\n      swap2\n      swap1\n      pop\n      jump\t// out\n        /* \"#utility.yul\":5955:6312   */\n    tag_193:\n        /* \"#utility.yul\":6033:6036   */\n      0x00\n        /* \"#utility.yul\":6061:6100   */\n      tag_318\n        /* \"#utility.yul\":6094:6099   */\n      dup3\n        /* \"#utility.yul\":6061:6100   */\n      tag_189\n      jump\t// in\n    tag_318:\n        /* \"#utility.yul\":6116:6177   */\n      tag_319\n        /* \"#utility.yul\":6170:6176   */\n      dup2\n        /* \"#utility.yul\":6165:6168   */\n      dup6\n        /* \"#utility.yul\":6116:6177   */\n      tag_190\n      jump\t// in\n    tag_319:\n        /* \"#utility.yul\":6109:6177   */\n      swap4\n      pop\n        /* \"#utility.yul\":6186:6251   */\n      tag_320\n        /* \"#utility.yul\":6244:6250   */\n      dup2\n        /* \"#utility.yul\":6239:6242   */\n      dup6\n        /* \"#utility.yul\":6232:6236   */\n      0x20\n        /* \"#utility.yul\":6225:6230   */\n      dup7\n        /* \"#utility.yul\":6221:6237   */\n      add\n        /* \"#utility.yul\":6186:6251   */\n      tag_191\n      jump\t// in\n    tag_320:\n        /* \"#utility.yul\":6276:6305   */\n      tag_321\n        /* \"#utility.yul\":6298:6304   */\n      dup2\n        /* \"#utility.yul\":6276:6305   */\n      tag_192\n      jump\t// in\n    tag_321:\n        /* \"#utility.yul\":6271:6274   */\n      dup5\n        /* \"#utility.yul\":6267:6306   */\n      add\n        /* \"#utility.yul\":6260:6306   */\n      swap2\n      pop\n        /* \"#utility.yul\":6037:6312   */\n      pop\n        /* \"#utility.yul\":5955:6312   */\n      swap3\n      swap2\n      pop\n      pop\n      jump\t// out\n        /* \"#utility.yul\":6318:6514   */\n    tag_194:\n        /* \"#utility.yul\":6407:6417   */\n      0x00\n        /* \"#utility.yul\":6442:6508   */\n      tag_323\n        /* \"#utility.yul\":6504:6507   */\n      dup4\n        /* \"#utility.yul\":6496:6502   */\n      dup4\n        /* \"#utility.yul\":6442:6508   */\n      tag_193\n      jump\t// in\n    tag_323:\n        /* \"#utility.yul\":6428:6508   */\n      swap1\n      pop\n        /* \"#utility.yul\":6318:6514   */\n      swap3\n      swap2\n      pop\n      pop\n      jump\t// out\n        /* \"#utility.yul\":6520:6643   */\n    tag_195:\n        /* \"#utility.yul\":6600:6604   */\n      0x00\n        /* \"#utility.yul\":6632:6636   */\n      0x20\n        /* \"#utility.yul\":6627:6630   */\n      dup3\n        /* \"#utility.yul\":6623:6637   */\n      add\n        /* \"#utility.yul\":6615:6637   */\n      swap1\n      pop\n        /* \"#utility.yul\":6520:6643   */\n      swap2\n      swap1\n      pop\n      jump\t// out\n        /* \"#utility.yul\":6677:7668   */\n    tag_196:\n        /* \"#utility.yul\":6816:6819   */\n      0x00\n        /* \"#utility.yul\":6845:6909   */\n      tag_326\n        /* \"#utility.yul\":6903:6908   */\n      dup3\n        /* \"#utility.yul\":6845:6909   */\n      tag_186\n      jump\t// in\n    tag_326:\n        /* \"#utility.yul\":6925:7021   */\n      tag_327\n        /* \"#utility.yul\":7014:7020   */\n      dup2\n        /* \"#utility.yul\":7009:7012   */\n      dup6\n        /* \"#utility.yul\":6925:7021   */\n      tag_187\n      jump\t// in\n    tag_327:\n        /* \"#utility.yul\":6918:7021   */\n      swap4\n      pop\n        /* \"#utility.yul\":7047:7050   */\n      dup4\n        /* \"#utility.yul\":7092:7096   */\n      0x20\n        /* \"#utility.yul\":7084:7090   */\n      dup3\n        /* \"#utility.yul\":7080:7097   */\n      mul\n        /* \"#utility.yul\":7075:7078   */\n      dup6\n        /* \"#utility.yul\":7071:7098   */\n      add\n        /* \"#utility.yul\":7122:7188   */\n      tag_328\n        /* \"#utility.yul\":7182:7187   */\n      dup6\n        /* \"#utility.yul\":7122:7188   */\n      tag_188\n      jump\t// in\n    tag_328:\n        /* \"#utility.yul\":7211:7218   */\n      dup1\n        /* \"#utility.yul\":7242:7243   */\n      0x00\n        /* \"#utility.yul\":7227:7623   */\n    tag_329:\n        /* \"#utility.yul\":7252:7258   */\n      dup6\n        /* \"#utility.yul\":7249:7250   */\n      dup2\n        /* \"#utility.yul\":7246:7259   */\n      lt\n        /* \"#utility.yul\":7227:7623   */\n      iszero\n      tag_331\n      jumpi\n        /* \"#utility.yul\":7323:7332   */\n      dup5\n        /* \"#utility.yul\":7317:7321   */\n      dup5\n        /* \"#utility.yul\":7313:7333   */\n      sub\n        /* \"#utility.yul\":7308:7311   */\n      dup10\n        /* \"#utility.yul\":7301:7334   */\n      mstore\n        /* \"#utility.yul\":7374:7380   */\n      dup2\n        /* \"#utility.yul\":7368:7381   */\n      mload\n        /* \"#utility.yul\":7402:7486   */\n      tag_332\n        /* \"#utility.yul\":7481:7485   */\n      dup6\n        /* \"#utility.yul\":7466:7479   */\n      dup3\n        /* \"#utility.yul\":7402:7486   */\n      tag_194\n      jump\t// in\n    tag_332:\n        /* \"#utility.yul\":7394:7486   */\n      swap5\n      pop\n        /* \"#utility.yul\":7509:7579   */\n      tag_333\n        /* \"#utility.yul\":7572:7578   */\n      dup4\n        /* \"#utility.yul\":7509:7579   */\n      tag_195\n      jump\t// in\n    tag_333:\n        /* \"#utility.yul\":7499:7579   */\n      swap3\n      pop\n        /* \"#utility.yul\":7608:7612   */\n      0x20\n        /* \"#utility.yul\":7603:7606   */\n      dup11\n        /* \"#utility.yul\":7599:7613   */\n      add\n        /* \"#utility.yul\":7592:7613   */\n      swap10\n      pop\n        /* \"#utility.yul\":7287:7623   */\n      pop\n        /* \"#utility.yul\":7274:7275   */\n      0x01\n        /* \"#utility.yul\":7271:7272   */\n      dup2\n        /* \"#utility.yul\":7267:7276   */\n      add\n        /* \"#utility.yul\":7262:7276   */\n      swap1\n      pop\n        /* \"#utility.yul\":7227:7623   */\n      jump(tag_329)\n    tag_331:\n        /* \"#utility.yul\":7231:7245   */\n      pop\n        /* \"#utility.yul\":7639:7643   */\n      dup3\n        /* \"#utility.yul\":7632:7643   */\n      swap8\n      pop\n        /* \"#utility.yul\":7659:7662   */\n      dup8\n        /* \"#utility.yul\":7652:7662   */\n      swap6\n      pop\n        /* \"#utility.yul\":6821:7668   */\n      pop\n      pop\n      pop\n      pop\n      pop\n        /* \"#utility.yul\":6677:7668   */\n      swap3\n      swap2\n      pop\n      pop\n      jump\t// out\n        /* \"#utility.yul\":7674:8609   */\n    tag_22:\n        /* \"#utility.yul\":7993:7997   */\n      0x00\n        /* \"#utility.yul\":8031:8033   */\n      0x60\n        /* \"#utility.yul\":8020:8029   */\n      dup3\n        /* \"#utility.yul\":8016:8034   */\n      add\n        /* \"#utility.yul\":8008:8034   */\n      swap1\n      pop\n        /* \"#utility.yul\":8080:8089   */\n      dup2\n        /* \"#utility.yul\":8074:8078   */\n      dup2\n        /* \"#utility.yul\":8070:8090   */\n      sub\n        /* \"#utility.yul\":8066:8067   */\n      0x00\n        /* \"#utility.yul\":8055:8064   */\n      dup4\n        /* \"#utility.yul\":8051:8068   */\n      add\n        /* \"#utility.yul\":8044:8091   */\n      mstore\n        /* \"#utility.yul\":8108:8216   */\n      tag_335\n        /* \"#utility.yul\":8211:8215   */\n      dup2\n        /* \"#utility.yul\":8202:8208   */\n      dup7\n        /* \"#utility.yul\":8108:8216   */\n      tag_178\n      jump\t// in\n    tag_335:\n        /* \"#utility.yul\":8100:8216   */\n      swap1\n      pop\n        /* \"#utility.yul\":8263:8272   */\n      dup2\n        /* \"#utility.yul\":8257:8261   */\n      dup2\n        /* \"#utility.yul\":8253:8273   */\n      sub\n        /* \"#utility.yul\":8248:8250   */\n      0x20\n        /* \"#utility.yul\":8237:8246   */\n      dup4\n        /* \"#utility.yul\":8233:8251   */\n      add\n        /* \"#utility.yul\":8226:8274   */\n      mstore\n        /* \"#utility.yul\":8291:8399   */\n      tag_336\n        /* \"#utility.yul\":8394:8398   */\n      dup2\n        /* \"#utility.yul\":8385:8391   */\n      dup6\n        /* \"#utility.yul\":8291:8399   */\n      tag_185\n      jump\t// in\n    tag_336:\n        /* \"#utility.yul\":8283:8399   */\n      swap1\n      pop\n        /* \"#utility.yul\":8446:8455   */\n      dup2\n        /* \"#utility.yul\":8440:8444   */\n      dup2\n        /* \"#utility.yul\":8436:8456   */\n      sub\n        /* \"#utility.yul\":8431:8433   */\n      0x40\n        /* \"#utility.yul\":8420:8429   */\n      dup4\n        /* \"#utility.yul\":8416:8434   */\n      add\n        /* \"#utility.yul\":8409:8457   */\n      mstore\n        /* \"#utility.yul\":8474:8602   */\n      tag_337\n        /* \"#utility.yul\":8597:8601   */\n      dup2\n        /* \"#utility.yul\":8588:8594   */\n      dup5\n        /* \"#utility.yul\":8474:8602   */\n      tag_196\n      jump\t// in\n    tag_337:\n        /* \"#utility.yul\":8466:8602   */\n      swap1\n      pop\n        /* \"#utility.yul\":7674:8609   */\n      swap5\n      swap4\n      pop\n      pop\n      pop\n      pop\n      jump\t// out\n        /* \"#utility.yul\":8615:8733   */\n    tag_197:\n        /* \"#utility.yul\":8702:8726   */\n      tag_339\n        /* \"#utility.yul\":8720:8725   */\n      dup2\n        /* \"#utility.yul\":8702:8726   */\n      tag_174\n      jump\t// in\n    tag_339:\n        /* \"#utility.yul\":8697:8700   */\n      dup3\n        /* \"#utility.yul\":8690:8727   */\n      mstore\n        /* \"#utility.yul\":8615:8733   */\n      pop\n      pop\n      jump\t// out\n        /* \"#utility.yul\":8739:8857   */\n    tag_198:\n        /* \"#utility.yul\":8826:8850   */\n      tag_341\n        /* \"#utility.yul\":8844:8849   */\n      dup2\n        /* \"#utility.yul\":8826:8850   */\n      tag_165\n      jump\t// in\n    tag_341:\n        /* \"#utility.yul\":8821:8824   */\n      dup3\n        /* \"#utility.yul\":8814:8851   */\n      mstore\n        /* \"#utility.yul\":8739:8857   */\n      pop\n      pop\n      jump\t// out\n        /* \"#utility.yul\":8863:9032   */\n    tag_199:\n        /* \"#utility.yul\":8947:8958   */\n      0x00\n        /* \"#utility.yul\":8981:8987   */\n      dup3\n        /* \"#utility.yul\":8976:8979   */\n      dup3\n        /* \"#utility.yul\":8969:8988   */\n      mstore\n        /* \"#utility.yul\":9021:9025   */\n      0x20\n        /* \"#utility.yul\":9016:9019   */\n      dup3\n        /* \"#utility.yul\":9012:9026   */\n      add\n        /* \"#utility.yul\":8997:9026   */\n      swap1\n      pop\n        /* \"#utility.yul\":8863:9032   */\n      swap3\n      swap2\n      pop\n      pop\n      jump\t// out\n        /* \"#utility.yul\":9038:9415   */\n    tag_200:\n        /* \"#utility.yul\":9126:9129   */\n      0x00\n        /* \"#utility.yul\":9154:9193   */\n      tag_344\n        /* \"#utility.yul\":9187:9192   */\n      dup3\n        /* \"#utility.yul\":9154:9193   */\n      tag_189\n      jump\t// in\n    tag_344:\n        /* \"#utility.yul\":9209:9280   */\n      tag_345\n        /* \"#utility.yul\":9273:9279   */\n      dup2\n        /* \"#utility.yul\":9268:9271   */\n      dup6\n        /* \"#utility.yul\":9209:9280   */\n      tag_199\n      jump\t// in\n    tag_345:\n        /* \"#utility.yul\":9202:9280   */\n      swap4\n      pop\n        /* \"#utility.yul\":9289:9354   */\n      tag_346\n        /* \"#utility.yul\":9347:9353   */\n      dup2\n        /* \"#utility.yul\":9342:9345   */\n      dup6\n        /* \"#utility.yul\":9335:9339   */\n      0x20\n        /* \"#utility.yul\":9328:9333   */\n      dup7\n        /* \"#utility.yul\":9324:9340   */\n      add\n        /* \"#utility.yul\":9289:9354   */\n      tag_191\n      jump\t// in\n    tag_346:\n        /* \"#utility.yul\":9379:9408   */\n      tag_347\n        /* \"#utility.yul\":9401:9407   */\n      dup2\n        /* \"#utility.yul\":9379:9408   */\n      tag_192\n      jump\t// in\n    tag_347:\n        /* \"#utility.yul\":9374:9377   */\n      dup5\n        /* \"#utility.yul\":9370:9409   */\n      add\n        /* \"#utility.yul\":9363:9409   */\n      swap2\n      pop\n        /* \"#utility.yul\":9130:9415   */\n      pop\n        /* \"#utility.yul\":9038:9415   */\n      swap3\n      swap2\n      pop\n      pop\n      jump\t// out\n        /* \"#utility.yul\":9421:10164   */\n    tag_28:\n        /* \"#utility.yul\":9640:9644   */\n      0x00\n        /* \"#utility.yul\":9678:9681   */\n      0xa0\n        /* \"#utility.yul\":9667:9676   */\n      dup3\n        /* \"#utility.yul\":9663:9682   */\n      add\n        /* \"#utility.yul\":9655:9682   */\n      swap1\n      pop\n        /* \"#utility.yul\":9692:9763   */\n      tag_349\n        /* \"#utility.yul\":9760:9761   */\n      0x00\n        /* \"#utility.yul\":9749:9758   */\n      dup4\n        /* \"#utility.yul\":9745:9762   */\n      add\n        /* \"#utility.yul\":9736:9742   */\n      dup9\n        /* \"#utility.yul\":9692:9763   */\n      tag_197\n      jump\t// in\n    tag_349:\n        /* \"#utility.yul\":9773:9845   */\n      tag_350\n        /* \"#utility.yul\":9841:9843   */\n      0x20\n        /* \"#utility.yul\":9830:9839   */\n      dup4\n        /* \"#utility.yul\":9826:9844   */\n      add\n        /* \"#utility.yul\":9817:9823   */\n      dup8\n        /* \"#utility.yul\":9773:9845   */\n      tag_198\n      jump\t// in\n    tag_350:\n        /* \"#utility.yul\":9892:9901   */\n      dup2\n        /* \"#utility.yul\":9886:9890   */\n      dup2\n        /* \"#utility.yul\":9882:9902   */\n      sub\n        /* \"#utility.yul\":9877:9879   */\n      0x40\n        /* \"#utility.yul\":9866:9875   */\n      dup4\n        /* \"#utility.yul\":9862:9880   */\n      add\n        /* \"#utility.yul\":9855:9903   */\n      mstore\n        /* \"#utility.yul\":9920:9998   */\n      tag_351\n        /* \"#utility.yul\":9993:9997   */\n      dup2\n        /* \"#utility.yul\":9984:9990   */\n      dup7\n        /* \"#utility.yul\":9920:9998   */\n      tag_200\n      jump\t// in\n    tag_351:\n        /* \"#utility.yul\":9912:9998   */\n      swap1\n      pop\n        /* \"#utility.yul\":10008:10080   */\n      tag_352\n        /* \"#utility.yul\":10076:10078   */\n      0x60\n        /* \"#utility.yul\":10065:10074   */\n      dup4\n        /* \"#utility.yul\":10061:10079   */\n      add\n        /* \"#utility.yul\":10052:10058   */\n      dup6\n        /* \"#utility.yul\":10008:10080   */\n      tag_198\n      jump\t// in\n    tag_352:\n        /* \"#utility.yul\":10090:10157   */\n      tag_353\n        /* \"#utility.yul\":10152:10155   */\n      0x80\n        /* \"#utility.yul\":10141:10150   */\n      dup4\n        /* \"#utility.yul\":10137:10156   */\n      add\n        /* \"#utility.yul\":10128:10134   */\n      dup5\n        /* \"#utility.yul\":10090:10157   */\n      tag_169\n      jump\t// in\n    tag_353:\n        /* \"#utility.yul\":9421:10164   */\n      swap7\n      swap6\n      pop\n      pop\n      pop\n      pop\n      pop\n      pop\n      jump\t// out\n        /* \"#utility.yul\":10170:10292   */\n    tag_201:\n        /* \"#utility.yul\":10243:10267   */\n      tag_355\n        /* \"#utility.yul\":10261:10266   */\n      dup2\n        /* \"#utility.yul\":10243:10267   */\n      tag_174\n      jump\t// in\n    tag_355:\n        /* \"#utility.yul\":10236:10241   */\n      dup2\n        /* \"#utility.yul\":10233:10268   */\n      eq\n        /* \"#utility.yul\":10223:10286   */\n      tag_356\n      jumpi\n        /* \"#utility.yul\":10282:10283   */\n      0x00\n        /* \"#utility.yul\":10279:10280   */\n      dup1\n        /* \"#utility.yul\":10272:10284   */\n      revert\n        /* \"#utility.yul\":10223:10286   */\n    tag_356:\n        /* \"#utility.yul\":10170:10292   */\n      pop\n      jump\t// out\n        /* \"#utility.yul\":10298:10437   */\n    tag_202:\n        /* \"#utility.yul\":10344:10349   */\n      0x00\n        /* \"#utility.yul\":10382:10388   */\n      dup2\n        /* \"#utility.yul\":10369:10389   */\n      calldataload\n        /* \"#utility.yul\":10360:10389   */\n      swap1\n      pop\n        /* \"#utility.yul\":10398:10431   */\n      tag_358\n        /* \"#utility.yul\":10425:10430   */\n      dup2\n        /* \"#utility.yul\":10398:10431   */\n      tag_201\n      jump\t// in\n    tag_358:\n        /* \"#utility.yul\":10298:10437   */\n      swap3\n      swap2\n      pop\n      pop\n      jump\t// out\n        /* \"#utility.yul\":10443:10560   */\n    tag_203:\n        /* \"#utility.yul\":10552:10553   */\n      0x00\n        /* \"#utility.yul\":10549:10550   */\n      dup1\n        /* \"#utility.yul\":10542:10554   */\n      revert\n        /* \"#utility.yul\":10566:10683   */\n    tag_204:\n        /* \"#utility.yul\":10675:10676   */\n      0x00\n        /* \"#utility.yul\":10672:10673   */\n      dup1\n        /* \"#utility.yul\":10665:10677   */\n      revert\n        /* \"#utility.yul\":10689:10869   */\n    tag_83:\n        /* \"#utility.yul\":10737:10814   */\n      0x4e487b7100000000000000000000000000000000000000000000000000000000\n        /* \"#utility.yul\":10734:10735   */\n      0x00\n        /* \"#utility.yul\":10727:10815   */\n      mstore\n        /* \"#utility.yul\":10834:10838   */\n      0x41\n        /* \"#utility.yul\":10831:10832   */\n      0x04\n        /* \"#utility.yul\":10824:10839   */\n      mstore\n        /* \"#utility.yul\":10858:10862   */\n      0x24\n        /* \"#utility.yul\":10855:10856   */\n      0x00\n        /* \"#utility.yul\":10848:10863   */\n      revert\n        /* \"#utility.yul\":10875:11156   */\n    tag_205:\n        /* \"#utility.yul\":10958:10985   */\n      tag_363\n        /* \"#utility.yul\":10980:10984   */\n      dup3\n        /* \"#utility.yul\":10958:10985   */\n      tag_192\n      jump\t// in\n    tag_363:\n        /* \"#utility.yul\":10950:10956   */\n      dup2\n        /* \"#utility.yul\":10946:10986   */\n      add\n        /* \"#utility.yul\":11088:11094   */\n      dup2\n        /* \"#utility.yul\":11076:11086   */\n      dup2\n        /* \"#utility.yul\":11073:11095   */\n      lt\n        /* \"#utility.yul\":11052:11070   */\n      0xffffffffffffffff\n        /* \"#utility.yul\":11040:11050   */\n      dup3\n        /* \"#utility.yul\":11037:11071   */\n      gt\n        /* \"#utility.yul\":11034:11096   */\n      or\n        /* \"#utility.yul\":11031:11119   */\n      iszero\n      tag_364\n      jumpi\n        /* \"#utility.yul\":11099:11117   */\n      tag_365\n      tag_83\n      jump\t// in\n    tag_365:\n        /* \"#utility.yul\":11031:11119   */\n    tag_364:\n        /* \"#utility.yul\":11139:11149   */\n      dup1\n        /* \"#utility.yul\":11135:11137   */\n      0x40\n        /* \"#utility.yul\":11128:11150   */\n      mstore\n        /* \"#utility.yul\":10918:11156   */\n      pop\n        /* \"#utility.yul\":10875:11156   */\n      pop\n      pop\n      jump\t// out\n        /* \"#utility.yul\":11162:11291   */\n    tag_206:\n        /* \"#utility.yul\":11196:11202   */\n      0x00\n        /* \"#utility.yul\":11223:11243   */\n      tag_367\n      tag_162\n      jump\t// in\n    tag_367:\n        /* \"#utility.yul\":11213:11243   */\n      swap1\n      pop\n        /* \"#utility.yul\":11252:11285   */\n      tag_368\n        /* \"#utility.yul\":11280:11284   */\n      dup3\n        /* \"#utility.yul\":11272:11278   */\n      dup3\n        /* \"#utility.yul\":11252:11285   */\n      tag_205\n      jump\t// in\n    tag_368:\n        /* \"#utility.yul\":11162:11291   */\n      swap2\n      swap1\n      pop\n      jump\t// out\n        /* \"#utility.yul\":11297:11605   */\n    tag_207:\n        /* \"#utility.yul\":11359:11363   */\n      0x00\n        /* \"#utility.yul\":11449:11467   */\n      0xffffffffffffffff\n        /* \"#utility.yul\":11441:11447   */\n      dup3\n        /* \"#utility.yul\":11438:11468   */\n      gt\n        /* \"#utility.yul\":11435:11491   */\n      iszero\n      tag_370\n      jumpi\n        /* \"#utility.yul\":11471:11489   */\n      tag_371\n      tag_83\n      jump\t// in\n    tag_371:\n        /* \"#utility.yul\":11435:11491   */\n    tag_370:\n        /* \"#utility.yul\":11509:11538   */\n      tag_372\n        /* \"#utility.yul\":11531:11537   */\n      dup3\n        /* \"#utility.yul\":11509:11538   */\n      tag_192\n      jump\t// in\n    tag_372:\n        /* \"#utility.yul\":11501:11538   */\n      swap1\n      pop\n        /* \"#utility.yul\":11593:11597   */\n      0x20\n        /* \"#utility.yul\":11587:11591   */\n      dup2\n        /* \"#utility.yul\":11583:11598   */\n      add\n        /* \"#utility.yul\":11575:11598   */\n      swap1\n      pop\n        /* \"#utility.yul\":11297:11605   */\n      swap2\n      swap1\n      pop\n      jump\t// out\n        /* \"#utility.yul\":11611:11759   */\n    tag_208:\n        /* \"#utility.yul\":11709:11715   */\n      dup3\n        /* \"#utility.yul\":11704:11707   */\n      dup2\n        /* \"#utility.yul\":11699:11702   */\n      dup4\n        /* \"#utility.yul\":11686:11716   */\n      calldatacopy\n        /* \"#utility.yul\":11750:11751   */\n      0x00\n        /* \"#utility.yul\":11741:11747   */\n      dup4\n        /* \"#utility.yul\":11736:11739   */\n      dup4\n        /* \"#utility.yul\":11732:11748   */\n      add\n        /* \"#utility.yul\":11725:11752   */\n      mstore\n        /* \"#utility.yul\":11611:11759   */\n      pop\n      pop\n      pop\n      jump\t// out\n        /* \"#utility.yul\":11765:12190   */\n    tag_209:\n        /* \"#utility.yul\":11843:11848   */\n      0x00\n        /* \"#utility.yul\":11868:11934   */\n      tag_375\n        /* \"#utility.yul\":11884:11933   */\n      tag_376\n        /* \"#utility.yul\":11926:11932   */\n      dup5\n        /* \"#utility.yul\":11884:11933   */\n      tag_207\n      jump\t// in\n    tag_376:\n        /* \"#utility.yul\":11868:11934   */\n      tag_206\n      jump\t// in\n    tag_375:\n        /* \"#utility.yul\":11859:11934   */\n      swap1\n      pop\n        /* \"#utility.yul\":11957:11963   */\n      dup3\n        /* \"#utility.yul\":11950:11955   */\n      dup2\n        /* \"#utility.yul\":11943:11964   */\n      mstore\n        /* \"#utility.yul\":11995:11999   */\n      0x20\n        /* \"#utility.yul\":11988:11993   */\n      dup2\n        /* \"#utility.yul\":11984:12000   */\n      add\n        /* \"#utility.yul\":12033:12036   */\n      dup5\n        /* \"#utility.yul\":12024:12030   */\n      dup5\n        /* \"#utility.yul\":12019:12022   */\n      dup5\n        /* \"#utility.yul\":12015:12031   */\n      add\n        /* \"#utility.yul\":12012:12037   */\n      gt\n        /* \"#utility.yul\":12009:12121   */\n      iszero\n      tag_377\n      jumpi\n        /* \"#utility.yul\":12040:12119   */\n      tag_378\n      tag_204\n      jump\t// in\n    tag_378:\n        /* \"#utility.yul\":12009:12121   */\n    tag_377:\n        /* \"#utility.yul\":12130:12184   */\n      tag_379\n        /* \"#utility.yul\":12177:12183   */\n      dup5\n        /* \"#utility.yul\":12172:12175   */\n      dup3\n        /* \"#utility.yul\":12167:12170   */\n      dup6\n        /* \"#utility.yul\":12130:12184   */\n      tag_208\n      jump\t// in\n    tag_379:\n        /* \"#utility.yul\":11849:12190   */\n      pop\n        /* \"#utility.yul\":11765:12190   */\n      swap4\n      swap3\n      pop\n      pop\n      pop\n      jump\t// out\n        /* \"#utility.yul\":12210:12550   */\n    tag_210:\n        /* \"#utility.yul\":12266:12271   */\n      0x00\n        /* \"#utility.yul\":12315:12318   */\n      dup3\n        /* \"#utility.yul\":12308:12312   */\n      0x1f\n        /* \"#utility.yul\":12300:12306   */\n      dup4\n        /* \"#utility.yul\":12296:12313   */\n      add\n        /* \"#utility.yul\":12292:12319   */\n      slt\n        /* \"#utility.yul\":12282:12404   */\n      tag_381\n      jumpi\n        /* \"#utility.yul\":12323:12402   */\n      tag_382\n      tag_203\n      jump\t// in\n    tag_382:\n        /* \"#utility.yul\":12282:12404   */\n    tag_381:\n        /* \"#utility.yul\":12440:12446   */\n      dup2\n        /* \"#utility.yul\":12427:12447   */\n      calldataload\n        /* \"#utility.yul\":12465:12544   */\n      tag_383\n        /* \"#utility.yul\":12540:12543   */\n      dup5\n        /* \"#utility.yul\":12532:12538   */\n      dup3\n        /* \"#utility.yul\":12525:12529   */\n      0x20\n        /* \"#utility.yul\":12517:12523   */\n      dup7\n        /* \"#utility.yul\":12513:12530   */\n      add\n        /* \"#utility.yul\":12465:12544   */\n      tag_209\n      jump\t// in\n    tag_383:\n        /* \"#utility.yul\":12456:12544   */\n      swap2\n      pop\n        /* \"#utility.yul\":12272:12550   */\n      pop\n        /* \"#utility.yul\":12210:12550   */\n      swap3\n      swap2\n      pop\n      pop\n      jump\t// out\n        /* \"#utility.yul\":12556:13355   */\n    tag_32:\n        /* \"#utility.yul\":12643:12649   */\n      0x00\n        /* \"#utility.yul\":12651:12657   */\n      dup1\n        /* \"#utility.yul\":12659:12665   */\n      0x00\n        /* \"#utility.yul\":12708:12710   */\n      0x60\n        /* \"#utility.yul\":12696:12705   */\n      dup5\n        /* \"#utility.yul\":12687:12694   */\n      dup7\n        /* \"#utility.yul\":12683:12706   */\n      sub\n        /* \"#utility.yul\":12679:12711   */\n      slt\n        /* \"#utility.yul\":12676:12795   */\n      iszero\n      tag_385\n      jumpi\n        /* \"#utility.yul\":12714:12793   */\n      tag_386\n      tag_163\n      jump\t// in\n    tag_386:\n        /* \"#utility.yul\":12676:12795   */\n    tag_385:\n        /* \"#utility.yul\":12834:12835   */\n      0x00\n        /* \"#utility.yul\":12859:12912   */\n      tag_387\n        /* \"#utility.yul\":12904:12911   */\n      dup7\n        /* \"#utility.yul\":12895:12901   */\n      dup3\n        /* \"#utility.yul\":12884:12893   */\n      dup8\n        /* \"#utility.yul\":12880:12902   */\n      add\n        /* \"#utility.yul\":12859:12912   */\n      tag_202\n      jump\t// in\n    tag_387:\n        /* \"#utility.yul\":12849:12912   */\n      swap4\n      pop\n        /* \"#utility.yul\":12805:12922   */\n      pop\n        /* \"#utility.yul\":12961:12963   */\n      0x20\n        /* \"#utility.yul\":12987:13040   */\n      tag_388\n        /* \"#utility.yul\":13032:13039   */\n      dup7\n        /* \"#utility.yul\":13023:13029   */\n      dup3\n        /* \"#utility.yul\":13012:13021   */\n      dup8\n        /* \"#utility.yul\":13008:13030   */\n      add\n        /* \"#utility.yul\":12987:13040   */\n      tag_167\n      jump\t// in\n    tag_388:\n        /* \"#utility.yul\":12977:13040   */\n      swap3\n      pop\n        /* \"#utility.yul\":12932:13050   */\n      pop\n        /* \"#utility.yul\":13117:13119   */\n      0x40\n        /* \"#utility.yul\":13106:13115   */\n      dup5\n        /* \"#utility.yul\":13102:13120   */\n      add\n        /* \"#utility.yul\":13089:13121   */\n      calldataload\n        /* \"#utility.yul\":13148:13166   */\n      0xffffffffffffffff\n        /* \"#utility.yul\":13140:13146   */\n      dup2\n        /* \"#utility.yul\":13137:13167   */\n      gt\n        /* \"#utility.yul\":13134:13251   */\n      iszero\n      tag_389\n      jumpi\n        /* \"#utility.yul\":13170:13249   */\n      tag_390\n      tag_164\n      jump\t// in\n    tag_390:\n        /* \"#utility.yul\":13134:13251   */\n    tag_389:\n        /* \"#utility.yul\":13275:13338   */\n      tag_391\n        /* \"#utility.yul\":13330:13337   */\n      dup7\n        /* \"#utility.yul\":13321:13327   */\n      dup3\n        /* \"#utility.yul\":13310:13319   */\n      dup8\n        /* \"#utility.yul\":13306:13328   */\n      add\n        /* \"#utility.yul\":13275:13338   */\n      tag_210\n      jump\t// in\n    tag_391:\n        /* \"#utility.yul\":13265:13338   */\n      swap2\n      pop\n        /* \"#utility.yul\":13060:13348   */\n      pop\n        /* \"#utility.yul\":12556:13355   */\n      swap3\n      pop\n      swap3\n      pop\n      swap3\n      jump\t// out\n        /* \"#utility.yul\":13361:13583   */\n    tag_35:\n        /* \"#utility.yul\":13454:13458   */\n      0x00\n        /* \"#utility.yul\":13492:13494   */\n      0x20\n        /* \"#utility.yul\":13481:13490   */\n      dup3\n        /* \"#utility.yul\":13477:13495   */\n      add\n        /* \"#utility.yul\":13469:13495   */\n      swap1\n      pop\n        /* \"#utility.yul\":13505:13576   */\n      tag_393\n        /* \"#utility.yul\":13573:13574   */\n      0x00\n        /* \"#utility.yul\":13562:13571   */\n      dup4\n        /* \"#utility.yul\":13558:13575   */\n      add\n        /* \"#utility.yul\":13549:13555   */\n      dup5\n        /* \"#utility.yul\":13505:13576   */\n      tag_198\n      jump\t// in\n    tag_393:\n        /* \"#utility.yul\":13361:13583   */\n      swap3\n      swap2\n      pop\n      pop\n      jump\t// out\n        /* \"#utility.yul\":13589:13918   */\n    tag_39:\n        /* \"#utility.yul\":13648:13654   */\n      0x00\n        /* \"#utility.yul\":13697:13699   */\n      0x20\n        /* \"#utility.yul\":13685:13694   */\n      dup3\n        /* \"#utility.yul\":13676:13683   */\n      dup5\n        /* \"#utility.yul\":13672:13695   */\n      sub\n        /* \"#utility.yul\":13668:13700   */\n      slt\n        /* \"#utility.yul\":13665:13784   */\n      iszero\n      tag_395\n      jumpi\n        /* \"#utility.yul\":13703:13782   */\n      tag_396\n      tag_163\n      jump\t// in\n    tag_396:\n        /* \"#utility.yul\":13665:13784   */\n    tag_395:\n        /* \"#utility.yul\":13823:13824   */\n      0x00\n        /* \"#utility.yul\":13848:13901   */\n      tag_397\n        /* \"#utility.yul\":13893:13900   */\n      dup5\n        /* \"#utility.yul\":13884:13890   */\n      dup3\n        /* \"#utility.yul\":13873:13882   */\n      dup6\n        /* \"#utility.yul\":13869:13891   */\n      add\n        /* \"#utility.yul\":13848:13901   */\n      tag_202\n      jump\t// in\n    tag_397:\n        /* \"#utility.yul\":13838:13901   */\n      swap2\n      pop\n        /* \"#utility.yul\":13794:13911   */\n      pop\n        /* \"#utility.yul\":13589:13918   */\n      swap3\n      swap2\n      pop\n      pop\n      jump\t// out\n        /* \"#utility.yul\":13924:14092   */\n    tag_211:\n        /* \"#utility.yul\":14064:14084   */\n      0x496e76616c696420726571756573742049440000000000000000000000000000\n        /* \"#utility.yul\":14060:14061   */\n      0x00\n        /* \"#utility.yul\":14052:14058   */\n      dup3\n        /* \"#utility.yul\":14048:14062   */\n      add\n        /* \"#utility.yul\":14041:14085   */\n      mstore\n        /* \"#utility.yul\":13924:14092   */\n      pop\n      jump\t// out\n        /* \"#utility.yul\":14098:14464   */\n    tag_212:\n        /* \"#utility.yul\":14240:14243   */\n      0x00\n        /* \"#utility.yul\":14261:14328   */\n      tag_400\n        /* \"#utility.yul\":14325:14327   */\n      0x12\n        /* \"#utility.yul\":14320:14323   */\n      dup4\n        /* \"#utility.yul\":14261:14328   */\n      tag_199\n      jump\t// in\n    tag_400:\n        /* \"#utility.yul\":14254:14328   */\n      swap2\n      pop\n        /* \"#utility.yul\":14337:14430   */\n      tag_401\n        /* \"#utility.yul\":14426:14429   */\n      dup3\n        /* \"#utility.yul\":14337:14430   */\n      tag_211\n      jump\t// in\n    tag_401:\n        /* \"#utility.yul\":14455:14457   */\n      0x20\n        /* \"#utility.yul\":14450:14453   */\n      dup3\n        /* \"#utility.yul\":14446:14458   */\n      add\n        /* \"#utility.yul\":14439:14458   */\n      swap1\n      pop\n        /* \"#utility.yul\":14098:14464   */\n      swap2\n      swap1\n      pop\n      jump\t// out\n        /* \"#utility.yul\":14470:14889   */\n    tag_56:\n        /* \"#utility.yul\":14636:14640   */\n      0x00\n        /* \"#utility.yul\":14674:14676   */\n      0x20\n        /* \"#utility.yul\":14663:14672   */\n      dup3\n        /* \"#utility.yul\":14659:14677   */\n      add\n        /* \"#utility.yul\":14651:14677   */\n      swap1\n      pop\n        /* \"#utility.yul\":14723:14732   */\n      dup2\n        /* \"#utility.yul\":14717:14721   */\n      dup2\n        /* \"#utility.yul\":14713:14733   */\n      sub\n        /* \"#utility.yul\":14709:14710   */\n      0x00\n        /* \"#utility.yul\":14698:14707   */\n      dup4\n        /* \"#utility.yul\":14694:14711   */\n      add\n        /* \"#utility.yul\":14687:14734   */\n      mstore\n        /* \"#utility.yul\":14751:14882   */\n      tag_403\n        /* \"#utility.yul\":14877:14881   */\n      dup2\n        /* \"#utility.yul\":14751:14882   */\n      tag_212\n      jump\t// in\n    tag_403:\n        /* \"#utility.yul\":14743:14882   */\n      swap1\n      pop\n        /* \"#utility.yul\":14470:14889   */\n      swap2\n      swap1\n      pop\n      jump\t// out\n        /* \"#utility.yul\":14895:15075   */\n    tag_59:\n        /* \"#utility.yul\":14943:15020   */\n      0x4e487b7100000000000000000000000000000000000000000000000000000000\n        /* \"#utility.yul\":14940:14941   */\n      0x00\n        /* \"#utility.yul\":14933:15021   */\n      mstore\n        /* \"#utility.yul\":15040:15044   */\n      0x32\n        /* \"#utility.yul\":15037:15038   */\n      0x04\n        /* \"#utility.yul\":15030:15045   */\n      mstore\n        /* \"#utility.yul\":15064:15068   */\n      0x24\n        /* \"#utility.yul\":15061:15062   */\n      0x00\n        /* \"#utility.yul\":15054:15069   */\n      revert\n        /* \"#utility.yul\":15081:15256   */\n    tag_213:\n        /* \"#utility.yul\":15221:15248   */\n      0x5265717565737420616c72656164792066696e616c697a656400000000000000\n        /* \"#utility.yul\":15217:15218   */\n      0x00\n        /* \"#utility.yul\":15209:15215   */\n      dup3\n        /* \"#utility.yul\":15205:15219   */\n      add\n        /* \"#utility.yul\":15198:15249   */\n      mstore\n        /* \"#utility.yul\":15081:15256   */\n      pop\n      jump\t// out\n        /* \"#utility.yul\":15262:15628   */\n    tag_214:\n        /* \"#utility.yul\":15404:15407   */\n      0x00\n        /* \"#utility.yul\":15425:15492   */\n      tag_407\n        /* \"#utility.yul\":15489:15491   */\n      0x19\n        /* \"#utility.yul\":15484:15487   */\n      dup4\n        /* \"#utility.yul\":15425:15492   */\n      tag_199\n      jump\t// in\n    tag_407:\n        /* \"#utility.yul\":15418:15492   */\n      swap2\n      pop\n        /* \"#utility.yul\":15501:15594   */\n      tag_408\n        /* \"#utility.yul\":15590:15593   */\n      dup3\n        /* \"#utility.yul\":15501:15594   */\n      tag_213\n      jump\t// in\n    tag_408:\n        /* \"#utility.yul\":15619:15621   */\n      0x20\n        /* \"#utility.yul\":15614:15617   */\n      dup3\n        /* \"#utility.yul\":15610:15622   */\n      add\n        /* \"#utility.yul\":15603:15622   */\n      swap1\n      pop\n        /* \"#utility.yul\":15262:15628   */\n      swap2\n      swap1\n      pop\n      jump\t// out\n        /* \"#utility.yul\":15634:16053   */\n    tag_63:\n        /* \"#utility.yul\":15800:15804   */\n      0x00\n        /* \"#utility.yul\":15838:15840   */\n      0x20\n        /* \"#utility.yul\":15827:15836   */\n      dup3\n        /* \"#utility.yul\":15823:15841   */\n      add\n        /* \"#utility.yul\":15815:15841   */\n      swap1\n      pop\n        /* \"#utility.yul\":15887:15896   */\n      dup2\n        /* \"#utility.yul\":15881:15885   */\n      dup2\n        /* \"#utility.yul\":15877:15897   */\n      sub\n        /* \"#utility.yul\":15873:15874   */\n      0x00\n        /* \"#utility.yul\":15862:15871   */\n      dup4\n        /* \"#utility.yul\":15858:15875   */\n      add\n        /* \"#utility.yul\":15851:15898   */\n      mstore\n        /* \"#utility.yul\":15915:16046   */\n      tag_410\n        /* \"#utility.yul\":16041:16045   */\n      dup2\n        /* \"#utility.yul\":15915:16046   */\n      tag_214\n      jump\t// in\n    tag_410:\n        /* \"#utility.yul\":15907:16046   */\n      swap1\n      pop\n        /* \"#utility.yul\":15634:16053   */\n      swap2\n      swap1\n      pop\n      jump\t// out\n        /* \"#utility.yul\":16059:16239   */\n    tag_215:\n        /* \"#utility.yul\":16107:16184   */\n      0x4e487b7100000000000000000000000000000000000000000000000000000000\n        /* \"#utility.yul\":16104:16105   */\n      0x00\n        /* \"#utility.yul\":16097:16185   */\n      mstore\n        /* \"#utility.yul\":16204:16208   */\n      0x12\n        /* \"#utility.yul\":16201:16202   */\n      0x04\n        /* \"#utility.yul\":16194:16209   */\n      mstore\n        /* \"#utility.yul\":16228:16232   */\n      0x24\n        /* \"#utility.yul\":16225:16226   */\n      0x00\n        /* \"#utility.yul\":16218:16233   */\n      revert\n        /* \"#utility.yul\":16245:16425   */\n    tag_216:\n        /* \"#utility.yul\":16293:16370   */\n      0x4e487b7100000000000000000000000000000000000000000000000000000000\n        /* \"#utility.yul\":16290:16291   */\n      0x00\n        /* \"#utility.yul\":16283:16371   */\n      mstore\n        /* \"#utility.yul\":16390:16394   */\n      0x11\n        /* \"#utility.yul\":16387:16388   */\n      0x04\n        /* \"#utility.yul\":16380:16395   */\n      mstore\n        /* \"#utility.yul\":16414:16418   */\n      0x24\n        /* \"#utility.yul\":16411:16412   */\n      0x00\n        /* \"#utility.yul\":16404:16419   */\n      revert\n        /* \"#utility.yul\":16431:16616   */\n    tag_65:\n        /* \"#utility.yul\":16471:16472   */\n      0x00\n        /* \"#utility.yul\":16488:16508   */\n      tag_414\n        /* \"#utility.yul\":16506:16507   */\n      dup3\n        /* \"#utility.yul\":16488:16508   */\n      tag_165\n      jump\t// in\n    tag_414:\n        /* \"#utility.yul\":16483:16508   */\n      swap2\n      pop\n        /* \"#utility.yul\":16522:16542   */\n      tag_415\n        /* \"#utility.yul\":16540:16541   */\n      dup4\n        /* \"#utility.yul\":16522:16542   */\n      tag_165\n      jump\t// in\n    tag_415:\n        /* \"#utility.yul\":16517:16542   */\n      swap3\n      pop\n        /* \"#utility.yul\":16561:16562   */\n      dup3\n        /* \"#utility.yul\":16551:16586   */\n      tag_416\n      jumpi\n        /* \"#utility.yul\":16566:16584   */\n      tag_417\n      tag_215\n      jump\t// in\n    tag_417:\n        /* \"#utility.yul\":16551:16586   */\n    tag_416:\n        /* \"#utility.yul\":16608:16609   */\n      dup3\n        /* \"#utility.yul\":16605:16606   */\n      dup3\n        /* \"#utility.yul\":16601:16610   */\n      div\n        /* \"#utility.yul\":16596:16610   */\n      swap1\n      pop\n        /* \"#utility.yul\":16431:16616   */\n      swap3\n      swap2\n      pop\n      pop\n      jump\t// out\n        /* \"#utility.yul\":16622:16790   */\n    tag_217:\n        /* \"#utility.yul\":16762:16782   */\n      0x496e73756666696369656e7420766f7465730000000000000000000000000000\n        /* \"#utility.yul\":16758:16759   */\n      0x00\n        /* \"#utility.yul\":16750:16756   */\n      dup3\n        /* \"#utility.yul\":16746:16760   */\n      add\n        /* \"#utility.yul\":16739:16783   */\n      mstore\n        /* \"#utility.yul\":16622:16790   */\n      pop\n      jump\t// out\n        /* \"#utility.yul\":16796:17162   */\n    tag_218:\n        /* \"#utility.yul\":16938:16941   */\n      0x00\n        /* \"#utility.yul\":16959:17026   */\n      tag_420\n        /* \"#utility.yul\":17023:17025   */\n      0x12\n        /* \"#utility.yul\":17018:17021   */\n      dup4\n        /* \"#utility.yul\":16959:17026   */\n      tag_199\n      jump\t// in\n    tag_420:\n        /* \"#utility.yul\":16952:17026   */\n      swap2\n      pop\n        /* \"#utility.yul\":17035:17128   */\n      tag_421\n        /* \"#utility.yul\":17124:17127   */\n      dup3\n        /* \"#utility.yul\":17035:17128   */\n      tag_217\n      jump\t// in\n    tag_421:\n        /* \"#utility.yul\":17153:17155   */\n      0x20\n        /* \"#utility.yul\":17148:17151   */\n      dup3\n        /* \"#utility.yul\":17144:17156   */\n      add\n        /* \"#utility.yul\":17137:17156   */\n      swap1\n      pop\n        /* \"#utility.yul\":16796:17162   */\n      swap2\n      swap1\n      pop\n      jump\t// out\n        /* \"#utility.yul\":17168:17587   */\n    tag_68:\n        /* \"#utility.yul\":17334:17338   */\n      0x00\n        /* \"#utility.yul\":17372:17374   */\n      0x20\n        /* \"#utility.yul\":17361:17370   */\n      dup3\n        /* \"#utility.yul\":17357:17375   */\n      add\n        /* \"#utility.yul\":17349:17375   */\n      swap1\n      pop\n        /* \"#utility.yul\":17421:17430   */\n      dup2\n        /* \"#utility.yul\":17415:17419   */\n      dup2\n        /* \"#utility.yul\":17411:17431   */\n      sub\n        /* \"#utility.yul\":17407:17408   */\n      0x00\n        /* \"#utility.yul\":17396:17405   */\n      dup4\n        /* \"#utility.yul\":17392:17409   */\n      add\n        /* \"#utility.yul\":17385:17432   */\n      mstore\n        /* \"#utility.yul\":17449:17580   */\n      tag_423\n        /* \"#utility.yul\":17575:17579   */\n      dup2\n        /* \"#utility.yul\":17449:17580   */\n      tag_218\n      jump\t// in\n    tag_423:\n        /* \"#utility.yul\":17441:17580   */\n      swap1\n      pop\n        /* \"#utility.yul\":17168:17587   */\n      swap2\n      swap1\n      pop\n      jump\t// out\n        /* \"#utility.yul\":17593:17772   */\n    tag_219:\n        /* \"#utility.yul\":17733:17764   */\n      0x496e73756666696369656e7420636f6e74726163742062616c616e6365000000\n        /* \"#utility.yul\":17729:17730   */\n      0x00\n        /* \"#utility.yul\":17721:17727   */\n      dup3\n        /* \"#utility.yul\":17717:17731   */\n      add\n        /* \"#utility.yul\":17710:17765   */\n      mstore\n        /* \"#utility.yul\":17593:17772   */\n      pop\n      jump\t// out\n        /* \"#utility.yul\":17778:18144   */\n    tag_220:\n        /* \"#utility.yul\":17920:17923   */\n      0x00\n        /* \"#utility.yul\":17941:18008   */\n      tag_426\n        /* \"#utility.yul\":18005:18007   */\n      0x1d\n        /* \"#utility.yul\":18000:18003   */\n      dup4\n        /* \"#utility.yul\":17941:18008   */\n      tag_199\n      jump\t// in\n    tag_426:\n        /* \"#utility.yul\":17934:18008   */\n      swap2\n      pop\n        /* \"#utility.yul\":18017:18110   */\n      tag_427\n        /* \"#utility.yul\":18106:18109   */\n      dup3\n        /* \"#utility.yul\":18017:18110   */\n      tag_219\n      jump\t// in\n    tag_427:\n        /* \"#utility.yul\":18135:18137   */\n      0x20\n        /* \"#utility.yul\":18130:18133   */\n      dup3\n        /* \"#utility.yul\":18126:18138   */\n      add\n        /* \"#utility.yul\":18119:18138   */\n      swap1\n      pop\n        /* \"#utility.yul\":17778:18144   */\n      swap2\n      swap1\n      pop\n      jump\t// out\n        /* \"#utility.yul\":18150:18569   */\n    tag_71:\n        /* \"#utility.yul\":18316:18320   */\n      0x00\n        /* \"#utility.yul\":18354:18356   */\n      0x20\n        /* \"#utility.yul\":18343:18352   */\n      dup3\n        /* \"#utility.yul\":18339:18357   */\n      add\n        /* \"#utility.yul\":18331:18357   */\n      swap1\n      pop\n        /* \"#utility.yul\":18403:18412   */\n      dup2\n        /* \"#utility.yul\":18397:18401   */\n      dup2\n        /* \"#utility.yul\":18393:18413   */\n      sub\n        /* \"#utility.yul\":18389:18390   */\n      0x00\n        /* \"#utility.yul\":18378:18387   */\n      dup4\n        /* \"#utility.yul\":18374:18391   */\n      add\n        /* \"#utility.yul\":18367:18414   */\n      mstore\n        /* \"#utility.yul\":18431:18562   */\n      tag_429\n        /* \"#utility.yul\":18557:18561   */\n      dup2\n        /* \"#utility.yul\":18431:18562   */\n      tag_220\n      jump\t// in\n    tag_429:\n        /* \"#utility.yul\":18423:18562   */\n      swap1\n      pop\n        /* \"#utility.yul\":18150:18569   */\n      swap2\n      swap1\n      pop\n      jump\t// out\n        /* \"#utility.yul\":18575:18722   */\n    tag_221:\n        /* \"#utility.yul\":18676:18687   */\n      0x00\n        /* \"#utility.yul\":18713:18716   */\n      dup2\n        /* \"#utility.yul\":18698:18716   */\n      swap1\n      pop\n        /* \"#utility.yul\":18575:18722   */\n      swap3\n      swap2\n      pop\n      pop\n      jump\t// out\n        /* \"#utility.yul\":18728:18842   */\n    tag_222:\n      pop\n      jump\t// out\n        /* \"#utility.yul\":18848:19246   */\n    tag_223:\n        /* \"#utility.yul\":19007:19010   */\n      0x00\n        /* \"#utility.yul\":19028:19111   */\n      tag_433\n        /* \"#utility.yul\":19109:19110   */\n      0x00\n        /* \"#utility.yul\":19104:19107   */\n      dup4\n        /* \"#utility.yul\":19028:19111   */\n      tag_221\n      jump\t// in\n    tag_433:\n        /* \"#utility.yul\":19021:19111   */\n      swap2\n      pop\n        /* \"#utility.yul\":19120:19213   */\n      tag_434\n        /* \"#utility.yul\":19209:19212   */\n      dup3\n        /* \"#utility.yul\":19120:19213   */\n      tag_222\n      jump\t// in\n    tag_434:\n        /* \"#utility.yul\":19238:19239   */\n      0x00\n        /* \"#utility.yul\":19233:19236   */\n      dup3\n        /* \"#utility.yul\":19229:19240   */\n      add\n        /* \"#utility.yul\":19222:19240   */\n      swap1\n      pop\n        /* \"#utility.yul\":18848:19246   */\n      swap2\n      swap1\n      pop\n      jump\t// out\n        /* \"#utility.yul\":19252:19631   */\n    tag_73:\n        /* \"#utility.yul\":19436:19439   */\n      0x00\n        /* \"#utility.yul\":19458:19605   */\n      tag_436\n        /* \"#utility.yul\":19601:19604   */\n      dup3\n        /* \"#utility.yul\":19458:19605   */\n      tag_223\n      jump\t// in\n    tag_436:\n        /* \"#utility.yul\":19451:19605   */\n      swap2\n      pop\n        /* \"#utility.yul\":19622:19625   */\n      dup2\n        /* \"#utility.yul\":19615:19625   */\n      swap1\n      pop\n        /* \"#utility.yul\":19252:19631   */\n      swap2\n      swap1\n      pop\n      jump\t// out\n        /* \"#utility.yul\":19637:19802   */\n    tag_224:\n        /* \"#utility.yul\":19777:19794   */\n      0x5472616e73666572206661696c65640000000000000000000000000000000000\n        /* \"#utility.yul\":19773:19774   */\n      0x00\n        /* \"#utility.yul\":19765:19771   */\n      dup3\n        /* \"#utility.yul\":19761:19775   */\n      add\n        /* \"#utility.yul\":19754:19795   */\n      mstore\n        /* \"#utility.yul\":19637:19802   */\n      pop\n      jump\t// out\n        /* \"#utility.yul\":19808:20174   */\n    tag_225:\n        /* \"#utility.yul\":19950:19953   */\n      0x00\n        /* \"#utility.yul\":19971:20038   */\n      tag_439\n        /* \"#utility.yul\":20035:20037   */\n      0x0f\n        /* \"#utility.yul\":20030:20033   */\n      dup4\n        /* \"#utility.yul\":19971:20038   */\n      tag_199\n      jump\t// in\n    tag_439:\n        /* \"#utility.yul\":19964:20038   */\n      swap2\n      pop\n        /* \"#utility.yul\":20047:20140   */\n      tag_440\n        /* \"#utility.yul\":20136:20139   */\n      dup3\n        /* \"#utility.yul\":20047:20140   */\n      tag_224\n      jump\t// in\n    tag_440:\n        /* \"#utility.yul\":20165:20167   */\n      0x20\n        /* \"#utility.yul\":20160:20163   */\n      dup3\n        /* \"#utility.yul\":20156:20168   */\n      add\n        /* \"#utility.yul\":20149:20168   */\n      swap1\n      pop\n        /* \"#utility.yul\":19808:20174   */\n      swap2\n      swap1\n      pop\n      jump\t// out\n        /* \"#utility.yul\":20180:20599   */\n    tag_79:\n        /* \"#utility.yul\":20346:20350   */\n      0x00\n        /* \"#utility.yul\":20384:20386   */\n      0x20\n        /* \"#utility.yul\":20373:20382   */\n      dup3\n        /* \"#utility.yul\":20369:20387   */\n      add\n        /* \"#utility.yul\":20361:20387   */\n      swap1\n      pop\n        /* \"#utility.yul\":20433:20442   */\n      dup2\n        /* \"#utility.yul\":20427:20431   */\n      dup2\n        /* \"#utility.yul\":20423:20443   */\n      sub\n        /* \"#utility.yul\":20419:20420   */\n      0x00\n        /* \"#utility.yul\":20408:20417   */\n      dup4\n        /* \"#utility.yul\":20404:20421   */\n      add\n        /* \"#utility.yul\":20397:20444   */\n      mstore\n        /* \"#utility.yul\":20461:20592   */\n      tag_442\n        /* \"#utility.yul\":20587:20591   */\n      dup2\n        /* \"#utility.yul\":20461:20592   */\n      tag_225\n      jump\t// in\n    tag_442:\n        /* \"#utility.yul\":20453:20592   */\n      swap1\n      pop\n        /* \"#utility.yul\":20180:20599   */\n      swap2\n      swap1\n      pop\n      jump\t// out\n        /* \"#utility.yul\":20605:20785   */\n    tag_226:\n        /* \"#utility.yul\":20653:20730   */\n      0x4e487b7100000000000000000000000000000000000000000000000000000000\n        /* \"#utility.yul\":20650:20651   */\n      0x00\n        /* \"#utility.yul\":20643:20731   */\n      mstore\n        /* \"#utility.yul\":20750:20754   */\n      0x22\n        /* \"#utility.yul\":20747:20748   */\n      0x04\n        /* \"#utility.yul\":20740:20755   */\n      mstore\n        /* \"#utility.yul\":20774:20778   */\n      0x24\n        /* \"#utility.yul\":20771:20772   */\n      0x00\n        /* \"#utility.yul\":20764:20779   */\n      revert\n        /* \"#utility.yul\":20791:21111   */\n    tag_107:\n        /* \"#utility.yul\":20835:20841   */\n      0x00\n        /* \"#utility.yul\":20872:20873   */\n      0x02\n        /* \"#utility.yul\":20866:20870   */\n      dup3\n        /* \"#utility.yul\":20862:20874   */\n      div\n        /* \"#utility.yul\":20852:20874   */\n      swap1\n      pop\n        /* \"#utility.yul\":20919:20920   */\n      0x01\n        /* \"#utility.yul\":20913:20917   */\n      dup3\n        /* \"#utility.yul\":20909:20921   */\n      and\n        /* \"#utility.yul\":20940:20958   */\n      dup1\n        /* \"#utility.yul\":20930:21011   */\n      tag_445\n      jumpi\n        /* \"#utility.yul\":20996:21000   */\n      0x7f\n        /* \"#utility.yul\":20988:20994   */\n      dup3\n        /* \"#utility.yul\":20984:21001   */\n      and\n        /* \"#utility.yul\":20974:21001   */\n      swap2\n      pop\n        /* \"#utility.yul\":20930:21011   */\n    tag_445:\n        /* \"#utility.yul\":21058:21060   */\n      0x20\n        /* \"#utility.yul\":21050:21056   */\n      dup3\n        /* \"#utility.yul\":21047:21061   */\n      lt\n        /* \"#utility.yul\":21027:21045   */\n      dup2\n        /* \"#utility.yul\":21024:21062   */\n      sub\n        /* \"#utility.yul\":21021:21105   */\n      tag_446\n      jumpi\n        /* \"#utility.yul\":21077:21095   */\n      tag_447\n      tag_226\n      jump\t// in\n    tag_447:\n        /* \"#utility.yul\":21021:21105   */\n    tag_446:\n        /* \"#utility.yul\":20842:21111   */\n      pop\n        /* \"#utility.yul\":20791:21111   */\n      swap2\n      swap1\n      pop\n      jump\t// out\n        /* \"#utility.yul\":21117:21290   */\n    tag_227:\n        /* \"#utility.yul\":21257:21282   */\n      0x496e76616c69642070726f6a6563742061646472657373000000000000000000\n        /* \"#utility.yul\":21253:21254   */\n      0x00\n        /* \"#utility.yul\":21245:21251   */\n      dup3\n        /* \"#utility.yul\":21241:21255   */\n      add\n        /* \"#utility.yul\":21234:21283   */\n      mstore\n        /* \"#utility.yul\":21117:21290   */\n      pop\n      jump\t// out\n        /* \"#utility.yul\":21296:21662   */\n    tag_228:\n        /* \"#utility.yul\":21438:21441   */\n      0x00\n        /* \"#utility.yul\":21459:21526   */\n      tag_450\n        /* \"#utility.yul\":21523:21525   */\n      0x17\n        /* \"#utility.yul\":21518:21521   */\n      dup4\n        /* \"#utility.yul\":21459:21526   */\n      tag_199\n      jump\t// in\n    tag_450:\n        /* \"#utility.yul\":21452:21526   */\n      swap2\n      pop\n        /* \"#utility.yul\":21535:21628   */\n      tag_451\n        /* \"#utility.yul\":21624:21627   */\n      dup3\n        /* \"#utility.yul\":21535:21628   */\n      tag_227\n      jump\t// in\n    tag_451:\n        /* \"#utility.yul\":21653:21655   */\n      0x20\n        /* \"#utility.yul\":21648:21651   */\n      dup3\n        /* \"#utility.yul\":21644:21656   */\n      add\n        /* \"#utility.yul\":21637:21656   */\n      swap1\n      pop\n        /* \"#utility.yul\":21296:21662   */\n      swap2\n      swap1\n      pop\n      jump\t// out\n        /* \"#utility.yul\":21668:22087   */\n    tag_124:\n        /* \"#utility.yul\":21834:21838   */\n      0x00\n        /* \"#utility.yul\":21872:21874   */\n      0x20\n        /* \"#utility.yul\":21861:21870   */\n      dup3\n        /* \"#utility.yul\":21857:21875   */\n      add\n        /* \"#utility.yul\":21849:21875   */\n      swap1\n      pop\n        /* \"#utility.yul\":21921:21930   */\n      dup2\n        /* \"#utility.yul\":21915:21919   */\n      dup2\n        /* \"#utility.yul\":21911:21931   */\n      sub\n        /* \"#utility.yul\":21907:21908   */\n      0x00\n        /* \"#utility.yul\":21896:21905   */\n      dup4\n        /* \"#utility.yul\":21892:21909   */\n      add\n        /* \"#utility.yul\":21885:21932   */\n      mstore\n        /* \"#utility.yul\":21949:22080   */\n      tag_453\n        /* \"#utility.yul\":22075:22079   */\n      dup2\n        /* \"#utility.yul\":21949:22080   */\n      tag_228\n      jump\t// in\n    tag_453:\n        /* \"#utility.yul\":21941:22080   */\n      swap1\n      pop\n        /* \"#utility.yul\":21668:22087   */\n      swap2\n      swap1\n      pop\n      jump\t// out\n        /* \"#utility.yul\":22093:22319   */\n    tag_229:\n        /* \"#utility.yul\":22233:22267   */\n      0x52657175657374656420616d6f756e74206d7573742062652067726561746572\n        /* \"#utility.yul\":22229:22230   */\n      0x00\n        /* \"#utility.yul\":22221:22227   */\n      dup3\n        /* \"#utility.yul\":22217:22231   */\n      add\n        /* \"#utility.yul\":22210:22268   */\n      mstore\n        /* \"#utility.yul\":22302:22311   */\n      0x207468616e203000000000000000000000000000000000000000000000000000\n        /* \"#utility.yul\":22297:22299   */\n      0x20\n        /* \"#utility.yul\":22289:22295   */\n      dup3\n        /* \"#utility.yul\":22285:22300   */\n      add\n        /* \"#utility.yul\":22278:22312   */\n      mstore\n        /* \"#utility.yul\":22093:22319   */\n      pop\n      jump\t// out\n        /* \"#utility.yul\":22325:22691   */\n    tag_230:\n        /* \"#utility.yul\":22467:22470   */\n      0x00\n        /* \"#utility.yul\":22488:22555   */\n      tag_456\n        /* \"#utility.yul\":22552:22554   */\n      0x27\n        /* \"#utility.yul\":22547:22550   */\n      dup4\n        /* \"#utility.yul\":22488:22555   */\n      tag_199\n      jump\t// in\n    tag_456:\n        /* \"#utility.yul\":22481:22555   */\n      swap2\n      pop\n        /* \"#utility.yul\":22564:22657   */\n      tag_457\n        /* \"#utility.yul\":22653:22656   */\n      dup3\n        /* \"#utility.yul\":22564:22657   */\n      tag_229\n      jump\t// in\n    tag_457:\n        /* \"#utility.yul\":22682:22684   */\n      0x40\n        /* \"#utility.yul\":22677:22680   */\n      dup3\n        /* \"#utility.yul\":22673:22685   */\n      add\n        /* \"#utility.yul\":22666:22685   */\n      swap1\n      pop\n        /* \"#utility.yul\":22325:22691   */\n      swap2\n      swap1\n      pop\n      jump\t// out\n        /* \"#utility.yul\":22697:23116   */\n    tag_127:\n        /* \"#utility.yul\":22863:22867   */\n      0x00\n        /* \"#utility.yul\":22901:22903   */\n      0x20\n        /* \"#utility.yul\":22890:22899   */\n      dup3\n        /* \"#utility.yul\":22886:22904   */\n      add\n        /* \"#utility.yul\":22878:22904   */\n      swap1\n      pop\n        /* \"#utility.yul\":22950:22959   */\n      dup2\n        /* \"#utility.yul\":22944:22948   */\n      dup2\n        /* \"#utility.yul\":22940:22960   */\n      sub\n        /* \"#utility.yul\":22936:22937   */\n      0x00\n        /* \"#utility.yul\":22925:22934   */\n      dup4\n        /* \"#utility.yul\":22921:22938   */\n      add\n        /* \"#utility.yul\":22914:22961   */\n      mstore\n        /* \"#utility.yul\":22978:23109   */\n      tag_459\n        /* \"#utility.yul\":23104:23108   */\n      dup2\n        /* \"#utility.yul\":22978:23109   */\n      tag_230\n      jump\t// in\n    tag_459:\n        /* \"#utility.yul\":22970:23109   */\n      swap1\n      pop\n        /* \"#utility.yul\":22697:23116   */\n      swap2\n      swap1\n      pop\n      jump\t// out\n        /* \"#utility.yul\":23122:23344   */\n    tag_231:\n        /* \"#utility.yul\":23262:23296   */\n      0x50726f6a656374206465736372697074696f6e2063616e6e6f7420626520656d\n        /* \"#utility.yul\":23258:23259   */\n      0x00\n        /* \"#utility.yul\":23250:23256   */\n      dup3\n        /* \"#utility.yul\":23246:23260   */\n      add\n        /* \"#utility.yul\":23239:23297   */\n      mstore\n        /* \"#utility.yul\":23331:23336   */\n      0x7074790000000000000000000000000000000000000000000000000000000000\n        /* \"#utility.yul\":23326:23328   */\n      0x20\n        /* \"#utility.yul\":23318:23324   */\n      dup3\n        /* \"#utility.yul\":23314:23329   */\n      add\n        /* \"#utility.yul\":23307:23337   */\n      mstore\n        /* \"#utility.yul\":23122:23344   */\n      pop\n      jump\t// out\n        /* \"#utility.yul\":23350:23716   */\n    tag_232:\n        /* \"#utility.yul\":23492:23495   */\n      0x00\n        /* \"#utility.yul\":23513:23580   */\n      tag_462\n        /* \"#utility.yul\":23577:23579   */\n      0x23\n        /* \"#utility.yul\":23572:23575   */\n      dup4\n        /* \"#utility.yul\":23513:23580   */\n      tag_199\n      jump\t// in\n    tag_462:\n        /* \"#utility.yul\":23506:23580   */\n      swap2\n      pop\n        /* \"#utility.yul\":23589:23682   */\n      tag_463\n        /* \"#utility.yul\":23678:23681   */\n      dup3\n        /* \"#utility.yul\":23589:23682   */\n      tag_231\n      jump\t// in\n    tag_463:\n        /* \"#utility.yul\":23707:23709   */\n      0x40\n        /* \"#utility.yul\":23702:23705   */\n      dup3\n        /* \"#utility.yul\":23698:23710   */\n      add\n        /* \"#utility.yul\":23691:23710   */\n      swap1\n      pop\n        /* \"#utility.yul\":23350:23716   */\n      swap2\n      swap1\n      pop\n      jump\t// out\n        /* \"#utility.yul\":23722:24141   */\n    tag_130:\n        /* \"#utility.yul\":23888:23892   */\n      0x00\n        /* \"#utility.yul\":23926:23928   */\n      0x20\n        /* \"#utility.yul\":23915:23924   */\n      dup3\n        /* \"#utility.yul\":23911:23929   */\n      add\n        /* \"#utility.yul\":23903:23929   */\n      swap1\n      pop\n        /* \"#utility.yul\":23975:23984   */\n      dup2\n        /* \"#utility.yul\":23969:23973   */\n      dup2\n        /* \"#utility.yul\":23965:23985   */\n      sub\n        /* \"#utility.yul\":23961:23962   */\n      0x00\n        /* \"#utility.yul\":23950:23959   */\n      dup4\n        /* \"#utility.yul\":23946:23963   */\n      add\n        /* \"#utility.yul\":23939:23986   */\n      mstore\n        /* \"#utility.yul\":24003:24134   */\n      tag_465\n        /* \"#utility.yul\":24129:24133   */\n      dup2\n        /* \"#utility.yul\":24003:24134   */\n      tag_232\n      jump\t// in\n    tag_465:\n        /* \"#utility.yul\":23995:24134   */\n      swap1\n      pop\n        /* \"#utility.yul\":23722:24141   */\n      swap2\n      swap1\n      pop\n      jump\t// out\n        /* \"#utility.yul\":24147:24288   */\n    tag_233:\n        /* \"#utility.yul\":24196:24200   */\n      0x00\n        /* \"#utility.yul\":24219:24222   */\n      dup2\n        /* \"#utility.yul\":24211:24222   */\n      swap1\n      pop\n        /* \"#utility.yul\":24242:24245   */\n      dup2\n        /* \"#utility.yul\":24239:24240   */\n      0x00\n        /* \"#utility.yul\":24232:24246   */\n      mstore\n        /* \"#utility.yul\":24276:24280   */\n      0x20\n        /* \"#utility.yul\":24273:24274   */\n      0x00\n        /* \"#utility.yul\":24263:24281   */\n      keccak256\n        /* \"#utility.yul\":24255:24281   */\n      swap1\n      pop\n        /* \"#utility.yul\":24147:24288   */\n      swap2\n      swap1\n      pop\n      jump\t// out\n        /* \"#utility.yul\":24294:24387   */\n    tag_234:\n        /* \"#utility.yul\":24331:24337   */\n      0x00\n        /* \"#utility.yul\":24378:24380   */\n      0x20\n        /* \"#utility.yul\":24373:24375   */\n      0x1f\n        /* \"#utility.yul\":24366:24371   */\n      dup4\n        /* \"#utility.yul\":24362:24376   */\n      add\n        /* \"#utility.yul\":24358:24381   */\n      div\n        /* \"#utility.yul\":24348:24381   */\n      swap1\n      pop\n        /* \"#utility.yul\":24294:24387   */\n      swap2\n      swap1\n      pop\n      jump\t// out\n        /* \"#utility.yul\":24393:24500   */\n    tag_235:\n        /* \"#utility.yul\":24437:24445   */\n      0x00\n        /* \"#utility.yul\":24487:24492   */\n      dup3\n        /* \"#utility.yul\":24481:24485   */\n      dup3\n        /* \"#utility.yul\":24477:24493   */\n      shl\n        /* \"#utility.yul\":24456:24493   */\n      swap1\n      pop\n        /* \"#utility.yul\":24393:24500   */\n      swap3\n      swap2\n      pop\n      pop\n      jump\t// out\n        /* \"#utility.yul\":24506:24899   */\n    tag_236:\n        /* \"#utility.yul\":24575:24581   */\n      0x00\n        /* \"#utility.yul\":24625:24626   */\n      0x08\n        /* \"#utility.yul\":24613:24623   */\n      dup4\n        /* \"#utility.yul\":24609:24627   */\n      mul\n        /* \"#utility.yul\":24648:24745   */\n      tag_470\n        /* \"#utility.yul\":24678:24744   */\n      0xffffffffffffffffffffffffffffffffffffffffffffffffffffffffffffffff\n        /* \"#utility.yul\":24667:24676   */\n      dup3\n        /* \"#utility.yul\":24648:24745   */\n      tag_235\n      jump\t// in\n    tag_470:\n        /* \"#utility.yul\":24766:24805   */\n      tag_471\n        /* \"#utility.yul\":24796:24804   */\n      dup7\n        /* \"#utility.yul\":24785:24794   */\n      dup4\n        /* \"#utility.yul\":24766:24805   */\n      tag_235\n      jump\t// in\n    tag_471:\n        /* \"#utility.yul\":24754:24805   */\n      swap6\n      pop\n        /* \"#utility.yul\":24838:24842   */\n      dup1\n        /* \"#utility.yul\":24834:24843   */\n      not\n        /* \"#utility.yul\":24827:24832   */\n      dup5\n        /* \"#utility.yul\":24823:24844   */\n      and\n        /* \"#utility.yul\":24814:24844   */\n      swap4\n      pop\n        /* \"#utility.yul\":24887:24891   */\n      dup1\n        /* \"#utility.yul\":24877:24885   */\n      dup7\n        /* \"#utility.yul\":24873:24892   */\n      and\n        /* \"#utility.yul\":24866:24871   */\n      dup5\n        /* \"#utility.yul\":24863:24893   */\n      or\n        /* \"#utility.yul\":24853:24893   */\n      swap3\n      pop\n        /* \"#utility.yul\":24582:24899   */\n      pop\n      pop\n        /* \"#utility.yul\":24506:24899   */\n      swap4\n      swap3\n      pop\n      pop\n      pop\n      jump\t// out\n        /* \"#utility.yul\":24905:24965   */\n    tag_237:\n        /* \"#utility.yul\":24933:24936   */\n      0x00\n        /* \"#utility.yul\":24954:24959   */\n      dup2\n        /* \"#utility.yul\":24947:24959   */\n      swap1\n      pop\n        /* \"#utility.yul\":24905:24965   */\n      swap2\n      swap1\n      pop\n      jump\t// out\n        /* \"#utility.yul\":24971:25113   */\n    tag_238:\n        /* \"#utility.yul\":25021:25030   */\n      0x00\n        /* \"#utility.yul\":25054:25107   */\n      tag_474\n        /* \"#utility.yul\":25072:25106   */\n      tag_475\n        /* \"#utility.yul\":25081:25105   */\n      tag_476\n        /* \"#utility.yul\":25099:25104   */\n      dup5\n        /* \"#utility.yul\":25081:25105   */\n      tag_165\n      jump\t// in\n    tag_476:\n        /* \"#utility.yul\":25072:25106   */\n      tag_237\n      jump\t// in\n    tag_475:\n        /* \"#utility.yul\":25054:25107   */\n      tag_165\n      jump\t// in\n    tag_474:\n        /* \"#utility.yul\":25041:25107   */\n      swap1\n      pop\n        /* \"#utility.yul\":24971:25113   */\n      swap2\n      swap1\n      pop\n      jump\t// out\n        /* \"#utility.yul\":25119:25194   */\n    tag_239:\n        /* \"#utility.yul\":25162:25165   */\n      0x00\n        /* \"#utility.yul\":25183:25188   */\n      dup2\n        /* \"#utility.yul\":25176:25188   */\n      swap1\n      pop\n        /* \"#utility.yul\":25119:25194   */\n      swap2\n      swap1\n      pop\n      jump\t// out\n        /* \"#utility.yul\":25200:25469   */\n    tag_240:\n        /* \"#utility.yul\":25310:25349   */\n      tag_479\n        /* \"#utility.yul\":25341:25348   */\n      dup4\n        /* \"#utility.yul\":25310:25349   */\n      tag_238\n      jump\t// in\n    tag_479:\n        /* \"#utility.yul\":25371:25462   */\n      tag_480\n        /* \"#utility.yul\":25420:25461   */\n      tag_481\n        /* \"#utility.yul\":25444:25460   */\n      dup3\n        /* \"#utility.yul\":25420:25461   */\n      tag_239\n      jump\t// in\n    tag_481:\n        /* \"#utility.yul\":25412:25418   */\n      dup5\n        /* \"#utility.yul\":25405:25409   */\n      dup5\n        /* \"#utility.yul\":25399:25410   */\n      sload\n        /* \"#utility.yul\":25371:25462   */\n      tag_236\n      jump\t// in\n    tag_480:\n        /* \"#utility.yul\":25365:25369   */\n      dup3\n        /* \"#utility.yul\":25358:25463   */\n      sstore\n        /* \"#utility.yul\":25276:25469   */\n      pop\n        /* \"#utility.yul\":25200:25469   */\n      pop\n      pop\n      pop\n      jump\t// out\n        /* \"#utility.yul\":25475:25548   */\n    tag_241:\n        /* \"#utility.yul\":25520:25523   */\n      0x00\n        /* \"#utility.yul\":25475:25548   */\n      swap1\n      jump\t// out\n        /* \"#utility.yul\":25554:25743   */\n    tag_242:\n        /* \"#utility.yul\":25631:25663   */\n      tag_484\n      tag_241\n      jump\t// in\n    tag_484:\n        /* \"#utility.yul\":25672:25737   */\n      tag_485\n        /* \"#utility.yul\":25730:25736   */\n      dup2\n        /* \"#utility.yul\":25722:25728   */\n      dup5\n        /* \"#utility.yul\":25716:25720   */\n      dup5\n        /* \"#utility.yul\":25672:25737   */\n      tag_240\n      jump\t// in\n    tag_485:\n        /* \"#utility.yul\":25607:25743   */\n      pop\n        /* \"#utility.yul\":25554:25743   */\n      pop\n      pop\n      jump\t// out\n        /* \"#utility.yul\":25749:25935   */\n    tag_243:\n        /* \"#utility.yul\":25809:25929   */\n    tag_487:\n        /* \"#utility.yul\":25826:25829   */\n      dup2\n        /* \"#utility.yul\":25819:25824   */\n      dup2\n        /* \"#utility.yul\":25816:25830   */\n      lt\n        /* \"#utility.yul\":25809:25929   */\n      iszero\n      tag_489\n      jumpi\n        /* \"#utility.yul\":25880:25919   */\n      tag_490\n        /* \"#utility.yul\":25917:25918   */\n      0x00\n        /* \"#utility.yul\":25910:25915   */\n      dup3\n        /* \"#utility.yul\":25880:25919   */\n      tag_242\n      jump\t// in\n    tag_490:\n        /* \"#utility.yul\":25853:25854   */\n      0x01\n        /* \"#utility.yul\":25846:25851   */\n      dup2\n        /* \"#utility.yul\":25842:25855   */\n      add\n        /* \"#utility.yul\":25833:25855   */\n      swap1\n      pop\n        /* \"#utility.yul\":25809:25929   */\n      jump(tag_487)\n    tag_489:\n        /* \"#utility.yul\":25749:25935   */\n      pop\n      pop\n      jump\t// out\n        /* \"#utility.yul\":25941:26484   */\n    tag_244:\n        /* \"#utility.yul\":26042:26044   */\n      0x1f\n        /* \"#utility.yul\":26037:26040   */\n      dup3\n        /* \"#utility.yul\":26034:26045   */\n      gt\n        /* \"#utility.yul\":26031:26477   */\n      iszero\n      tag_492\n      jumpi\n        /* \"#utility.yul\":26076:26114   */\n      tag_493\n        /* \"#utility.yul\":26108:26113   */\n      dup2\n        /* \"#utility.yul\":26076:26114   */\n      tag_233\n      jump\t// in\n    tag_493:\n        /* \"#utility.yul\":26160:26189   */\n      tag_494\n        /* \"#utility.yul\":26178:26188   */\n      dup5\n        /* \"#utility.yul\":26160:26189   */\n      tag_234\n      jump\t// in\n    tag_494:\n        /* \"#utility.yul\":26150:26158   */\n      dup2\n        /* \"#utility.yul\":26146:26190   */\n      add\n        /* \"#utility.yul\":26343:26345   */\n      0x20\n        /* \"#utility.yul\":26331:26341   */\n      dup6\n        /* \"#utility.yul\":26328:26346   */\n      lt\n        /* \"#utility.yul\":26325:26374   */\n      iszero\n      tag_495\n      jumpi\n        /* \"#utility.yul\":26364:26372   */\n      dup2\n        /* \"#utility.yul\":26349:26372   */\n      swap1\n      pop\n        /* \"#utility.yul\":26325:26374   */\n    tag_495:\n        /* \"#utility.yul\":26387:26467   */\n      tag_496\n        /* \"#utility.yul\":26443:26465   */\n      tag_497\n        /* \"#utility.yul\":26461:26464   */\n      dup6\n        /* \"#utility.yul\":26443:26465   */\n      tag_234\n      jump\t// in\n    tag_497:\n        /* \"#utility.yul\":26433:26441   */\n      dup4\n        /* \"#utility.yul\":26429:26466   */\n      add\n        /* \"#utility.yul\":26416:26427   */\n      dup3\n        /* \"#utility.yul\":26387:26467   */\n      tag_243\n      jump\t// in\n    tag_496:\n        /* \"#utility.yul\":26046:26477   */\n      pop\n      pop\n        /* \"#utility.yul\":26031:26477   */\n    tag_492:\n        /* \"#utility.yul\":25941:26484   */\n      pop\n      pop\n      pop\n      jump\t// out\n        /* \"#utility.yul\":26490:26607   */\n    tag_245:\n        /* \"#utility.yul\":26544:26552   */\n      0x00\n        /* \"#utility.yul\":26594:26599   */\n      dup3\n        /* \"#utility.yul\":26588:26592   */\n      dup3\n        /* \"#utility.yul\":26584:26600   */\n      shr\n        /* \"#utility.yul\":26563:26600   */\n      swap1\n      pop\n        /* \"#utility.yul\":26490:26607   */\n      swap3\n      swap2\n      pop\n      pop\n      jump\t// out\n        /* \"#utility.yul\":26613:26782   */\n    tag_246:\n        /* \"#utility.yul\":26657:26663   */\n      0x00\n        /* \"#utility.yul\":26690:26741   */\n      tag_500\n        /* \"#utility.yul\":26738:26739   */\n      0x00\n        /* \"#utility.yul\":26734:26740   */\n      not\n        /* \"#utility.yul\":26726:26731   */\n      dup5\n        /* \"#utility.yul\":26723:26724   */\n      0x08\n        /* \"#utility.yul\":26719:26732   */\n      mul\n        /* \"#utility.yul\":26690:26741   */\n      tag_245\n      jump\t// in\n    tag_500:\n        /* \"#utility.yul\":26686:26742   */\n      not\n        /* \"#utility.yul\":26771:26775   */\n      dup1\n        /* \"#utility.yul\":26765:26769   */\n      dup4\n        /* \"#utility.yul\":26761:26776   */\n      and\n        /* \"#utility.yul\":26751:26776   */\n      swap2\n      pop\n        /* \"#utility.yul\":26664:26782   */\n      pop\n        /* \"#utility.yul\":26613:26782   */\n      swap3\n      swap2\n      pop\n      pop\n      jump\t// out\n        /* \"#utility.yul\":26787:27082   */\n    tag_247:\n        /* \"#utility.yul\":26863:26867   */\n      0x00\n        /* \"#utility.yul\":27009:27038   */\n      tag_502\n        /* \"#utility.yul\":27034:27037   */\n      dup4\n        /* \"#utility.yul\":27028:27032   */\n      dup4\n        /* \"#utility.yul\":27009:27038   */\n      tag_246\n      jump\t// in\n    tag_502:\n        /* \"#utility.yul\":27001:27038   */\n      swap2\n      pop\n        /* \"#utility.yul\":27071:27074   */\n      dup3\n        /* \"#utility.yul\":27068:27069   */\n      0x02\n        /* \"#utility.yul\":27064:27075   */\n      mul\n        /* \"#utility.yul\":27058:27062   */\n      dup3\n        /* \"#utility.yul\":27055:27076   */\n      or\n        /* \"#utility.yul\":27047:27076   */\n      swap1\n      pop\n        /* \"#utility.yul\":26787:27082   */\n      swap3\n      swap2\n      pop\n      pop\n      jump\t// out\n        /* \"#utility.yul\":27087:28482   */\n    tag_133:\n        /* \"#utility.yul\":27204:27241   */\n      tag_504\n        /* \"#utility.yul\":27237:27240   */\n      dup3\n        /* \"#utility.yul\":27204:27241   */\n      tag_189\n      jump\t// in\n    tag_504:\n        /* \"#utility.yul\":27306:27324   */\n      0xffffffffffffffff\n        /* \"#utility.yul\":27298:27304   */\n      dup2\n        /* \"#utility.yul\":27295:27325   */\n      gt\n        /* \"#utility.yul\":27292:27348   */\n      iszero\n      tag_505\n      jumpi\n        /* \"#utility.yul\":27328:27346   */\n      tag_506\n      tag_83\n      jump\t// in\n    tag_506:\n        /* \"#utility.yul\":27292:27348   */\n    tag_505:\n        /* \"#utility.yul\":27372:27410   */\n      tag_507\n        /* \"#utility.yul\":27404:27408   */\n      dup3\n        /* \"#utility.yul\":27398:27409   */\n      sload\n        /* \"#utility.yul\":27372:27410   */\n      tag_107\n      jump\t// in\n    tag_507:\n        /* \"#utility.yul\":27457:27524   */\n      tag_508\n        /* \"#utility.yul\":27517:27523   */\n      dup3\n        /* \"#utility.yul\":27509:27515   */\n      dup3\n        /* \"#utility.yul\":27503:27507   */\n      dup6\n        /* \"#utility.yul\":27457:27524   */\n      tag_244\n      jump\t// in\n    tag_508:\n        /* \"#utility.yul\":27551:27552   */\n      0x00\n        /* \"#utility.yul\":27575:27579   */\n      0x20\n        /* \"#utility.yul\":27562:27579   */\n      swap1\n      pop\n        /* \"#utility.yul\":27607:27609   */\n      0x1f\n        /* \"#utility.yul\":27599:27605   */\n      dup4\n        /* \"#utility.yul\":27596:27610   */\n      gt\n        /* \"#utility.yul\":27624:27625   */\n      0x01\n        /* \"#utility.yul\":27619:28237   */\n      dup2\n      eq\n      tag_510\n      jumpi\n        /* \"#utility.yul\":28281:28282   */\n      0x00\n        /* \"#utility.yul\":28298:28304   */\n      dup5\n        /* \"#utility.yul\":28295:28372   */\n      iszero\n      tag_511\n      jumpi\n        /* \"#utility.yul\":28347:28356   */\n      dup3\n        /* \"#utility.yul\":28342:28345   */\n      dup8\n        /* \"#utility.yul\":28338:28357   */\n      add\n        /* \"#utility.yul\":28332:28358   */\n      mload\n        /* \"#utility.yul\":28323:28358   */\n      swap1\n      pop\n        /* \"#utility.yul\":28295:28372   */\n    tag_511:\n        /* \"#utility.yul\":28398:28465   */\n      tag_512\n        /* \"#utility.yul\":28458:28464   */\n      dup6\n        /* \"#utility.yul\":28451:28456   */\n      dup3\n        /* \"#utility.yul\":28398:28465   */\n      tag_247\n      jump\t// in\n    tag_512:\n        /* \"#utility.yul\":28392:28396   */\n      dup7\n        /* \"#utility.yul\":28385:28466   */\n      sstore\n        /* \"#utility.yul\":28254:28476   */\n      pop\n        /* \"#utility.yul\":27589:28476   */\n      jump(tag_509)\n        /* \"#utility.yul\":27619:28237   */\n    tag_510:\n        /* \"#utility.yul\":27671:27675   */\n      0x1f\n        /* \"#utility.yul\":27667:27676   */\n      not\n        /* \"#utility.yul\":27659:27665   */\n      dup5\n        /* \"#utility.yul\":27655:27677   */\n      and\n        /* \"#utility.yul\":27705:27742   */\n      tag_513\n        /* \"#utility.yul\":27737:27741   */\n      dup7\n        /* \"#utility.yul\":27705:27742   */\n      tag_233\n      jump\t// in\n    tag_513:\n        /* \"#utility.yul\":27764:27765   */\n      0x00\n        /* \"#utility.yul\":27778:27986   */\n    tag_514:\n        /* \"#utility.yul\":27792:27799   */\n      dup3\n        /* \"#utility.yul\":27789:27790   */\n      dup2\n        /* \"#utility.yul\":27786:27800   */\n      lt\n        /* \"#utility.yul\":27778:27986   */\n      iszero\n      tag_516\n      jumpi\n        /* \"#utility.yul\":27871:27880   */\n      dup5\n        /* \"#utility.yul\":27866:27869   */\n      dup10\n        /* \"#utility.yul\":27862:27881   */\n      add\n        /* \"#utility.yul\":27856:27882   */\n      mload\n        /* \"#utility.yul\":27848:27854   */\n      dup3\n        /* \"#utility.yul\":27841:27883   */\n      sstore\n        /* \"#utility.yul\":27922:27923   */\n      0x01\n        /* \"#utility.yul\":27914:27920   */\n      dup3\n        /* \"#utility.yul\":27910:27924   */\n      add\n        /* \"#utility.yul\":27900:27924   */\n      swap2\n      pop\n        /* \"#utility.yul\":27969:27971   */\n      0x20\n        /* \"#utility.yul\":27958:27967   */\n      dup6\n        /* \"#utility.yul\":27954:27972   */\n      add\n        /* \"#utility.yul\":27941:27972   */\n      swap5\n      pop\n        /* \"#utility.yul\":27815:27819   */\n      0x20\n        /* \"#utility.yul\":27812:27813   */\n      dup2\n        /* \"#utility.yul\":27808:27820   */\n      add\n        /* \"#utility.yul\":27803:27820   */\n      swap1\n      pop\n        /* \"#utility.yul\":27778:27986   */\n      jump(tag_514)\n    tag_516:\n        /* \"#utility.yul\":28014:28020   */\n      dup7\n        /* \"#utility.yul\":28005:28012   */\n      dup4\n        /* \"#utility.yul\":28002:28021   */\n      lt\n        /* \"#utility.yul\":27999:28178   */\n      iszero\n      tag_517\n      jumpi\n        /* \"#utility.yul\":28072:28081   */\n      dup5\n        /* \"#utility.yul\":28067:28070   */\n      dup10\n        /* \"#utility.yul\":28063:28082   */\n      add\n        /* \"#utility.yul\":28057:28083   */\n      mload\n        /* \"#utility.yul\":28115:28163   */\n      tag_518\n        /* \"#utility.yul\":28157:28161   */\n      0x1f\n        /* \"#utility.yul\":28149:28155   */\n      dup10\n        /* \"#utility.yul\":28145:28162   */\n      and\n        /* \"#utility.yul\":28134:28143   */\n      dup3\n        /* \"#utility.yul\":28115:28163   */\n      tag_246\n      jump\t// in\n    tag_518:\n        /* \"#utility.yul\":28107:28113   */\n      dup4\n        /* \"#utility.yul\":28100:28164   */\n      sstore\n        /* \"#utility.yul\":28022:28178   */\n      pop\n        /* \"#utility.yul\":27999:28178   */\n    tag_517:\n        /* \"#utility.yul\":28224:28225   */\n      0x01\n        /* \"#utility.yul\":28220:28221   */\n      0x02\n        /* \"#utility.yul\":28212:28218   */\n      dup9\n        /* \"#utility.yul\":28208:28222   */\n      mul\n        /* \"#utility.yul\":28204:28226   */\n      add\n        /* \"#utility.yul\":28198:28202   */\n      dup9\n        /* \"#utility.yul\":28191:28227   */\n      sstore\n        /* \"#utility.yul\":27626:28237   */\n      pop\n      pop\n      pop\n        /* \"#utility.yul\":27589:28476   */\n    tag_509:\n      pop\n        /* \"#utility.yul\":27179:28482   */\n      pop\n      pop\n      pop\n        /* \"#utility.yul\":27087:28482   */\n      pop\n      pop\n      jump\t// out\n        /* \"#utility.yul\":28488:28682   */\n    tag_135:\n        /* \"#utility.yul\":28528:28532   */\n      0x00\n        /* \"#utility.yul\":28548:28568   */\n      tag_520\n        /* \"#utility.yul\":28566:28567   */\n      dup3\n        /* \"#utility.yul\":28548:28568   */\n      tag_165\n      jump\t// in\n    tag_520:\n        /* \"#utility.yul\":28543:28568   */\n      swap2\n      pop\n        /* \"#utility.yul\":28582:28602   */\n      tag_521\n        /* \"#utility.yul\":28600:28601   */\n      dup4\n        /* \"#utility.yul\":28582:28602   */\n      tag_165\n      jump\t// in\n    tag_521:\n        /* \"#utility.yul\":28577:28602   */\n      swap3\n      pop\n        /* \"#utility.yul\":28626:28627   */\n      dup3\n        /* \"#utility.yul\":28623:28624   */\n      dup3\n        /* \"#utility.yul\":28619:28628   */\n      sub\n        /* \"#utility.yul\":28611:28628   */\n      swap1\n      pop\n        /* \"#utility.yul\":28650:28651   */\n      dup2\n        /* \"#utility.yul\":28644:28648   */\n      dup2\n        /* \"#utility.yul\":28641:28652   */\n      gt\n        /* \"#utility.yul\":28638:28675   */\n      iszero\n      tag_522\n      jumpi\n        /* \"#utility.yul\":28655:28673   */\n      tag_523\n      tag_216\n      jump\t// in\n    tag_523:\n        /* \"#utility.yul\":28638:28675   */\n    tag_522:\n        /* \"#utility.yul\":28488:28682   */\n      swap3\n      swap2\n      pop\n      pop\n      jump\t// out\n        /* \"#utility.yul\":28688:28853   */\n    tag_248:\n        /* \"#utility.yul\":28828:28845   */\n      0x4e6f20766f74696e6720706f7765720000000000000000000000000000000000\n        /* \"#utility.yul\":28824:28825   */\n      0x00\n        /* \"#utility.yul\":28816:28822   */\n      dup3\n        /* \"#utility.yul\":28812:28826   */\n      add\n        /* \"#utility.yul\":28805:28846   */\n      mstore\n        /* \"#utility.yul\":28688:28853   */\n      pop\n      jump\t// out\n        /* \"#utility.yul\":28859:29225   */\n    tag_249:\n        /* \"#utility.yul\":29001:29004   */\n      0x00\n        /* \"#utility.yul\":29022:29089   */\n      tag_526\n        /* \"#utility.yul\":29086:29088   */\n      0x0f\n        /* \"#utility.yul\":29081:29084   */\n      dup4\n        /* \"#utility.yul\":29022:29089   */\n      tag_199\n      jump\t// in\n    tag_526:\n        /* \"#utility.yul\":29015:29089   */\n      swap2\n      pop\n        /* \"#utility.yul\":29098:29191   */\n      tag_527\n        /* \"#utility.yul\":29187:29190   */\n      dup3\n        /* \"#utility.yul\":29098:29191   */\n      tag_248\n      jump\t// in\n    tag_527:\n        /* \"#utility.yul\":29216:29218   */\n      0x20\n        /* \"#utility.yul\":29211:29214   */\n      dup3\n        /* \"#utility.yul\":29207:29219   */\n      add\n        /* \"#utility.yul\":29200:29219   */\n      swap1\n      pop\n        /* \"#utility.yul\":28859:29225   */\n      swap2\n      swap1\n      pop\n      jump\t// out\n        /* \"#utility.yul\":29231:29650   */\n    tag_141:\n        /* \"#utility.yul\":29397:29401   */\n      0x00\n        /* \"#utility.yul\":29435:29437   */\n      0x20\n        /* \"#utility.yul\":29424:29433   */\n      dup3\n        /* \"#utility.yul\":29420:29438   */\n      add\n        /* \"#utility.yul\":29412:29438   */\n      swap1\n      pop\n        /* \"#utility.yul\":29484:29493   */\n      dup2\n        /* \"#utility.yul\":29478:29482   */\n      dup2\n        /* \"#utility.yul\":29474:29494   */\n      sub\n        /* \"#utility.yul\":29470:29471   */\n      0x00\n        /* \"#utility.yul\":29459:29468   */\n      dup4\n        /* \"#utility.yul\":29455:29472   */\n      add\n        /* \"#utility.yul\":29448:29495   */\n      mstore\n        /* \"#utility.yul\":29512:29643   */\n      tag_529\n        /* \"#utility.yul\":29638:29642   */\n      dup2\n        /* \"#utility.yul\":29512:29643   */\n      tag_249\n      jump\t// in\n    tag_529:\n        /* \"#utility.yul\":29504:29643   */\n      swap1\n      pop\n        /* \"#utility.yul\":29231:29650   */\n      swap2\n      swap1\n      pop\n      jump\t// out\n        /* \"#utility.yul\":29656:29819   */\n    tag_250:\n        /* \"#utility.yul\":29796:29811   */\n      0x416c726561647920766f74656400000000000000000000000000000000000000\n        /* \"#utility.yul\":29792:29793   */\n      0x00\n        /* \"#utility.yul\":29784:29790   */\n      dup3\n        /* \"#utility.yul\":29780:29794   */\n      add\n        /* \"#utility.yul\":29773:29812   */\n      mstore\n        /* \"#utility.yul\":29656:29819   */\n      pop\n      jump\t// out\n        /* \"#utility.yul\":29825:30191   */\n    tag_251:\n        /* \"#utility.yul\":29967:29970   */\n      0x00\n        /* \"#utility.yul\":29988:30055   */\n      tag_532\n        /* \"#utility.yul\":30052:30054   */\n      0x0d\n        /* \"#utility.yul\":30047:30050   */\n      dup4\n        /* \"#utility.yul\":29988:30055   */\n      tag_199\n      jump\t// in\n    tag_532:\n        /* \"#utility.yul\":29981:30055   */\n      swap2\n      pop\n        /* \"#utility.yul\":30064:30157   */\n      tag_533\n        /* \"#utility.yul\":30153:30156   */\n      dup3\n        /* \"#utility.yul\":30064:30157   */\n      tag_250\n      jump\t// in\n    tag_533:\n        /* \"#utility.yul\":30182:30184   */\n      0x20\n        /* \"#utility.yul\":30177:30180   */\n      dup3\n        /* \"#utility.yul\":30173:30185   */\n      add\n        /* \"#utility.yul\":30166:30185   */\n      swap1\n      pop\n        /* \"#utility.yul\":29825:30191   */\n      swap2\n      swap1\n      pop\n      jump\t// out\n        /* \"#utility.yul\":30197:30616   */\n    tag_149:\n        /* \"#utility.yul\":30363:30367   */\n      0x00\n        /* \"#utility.yul\":30401:30403   */\n      0x20\n        /* \"#utility.yul\":30390:30399   */\n      dup3\n        /* \"#utility.yul\":30386:30404   */\n      add\n        /* \"#utility.yul\":30378:30404   */\n      swap1\n      pop\n        /* \"#utility.yul\":30450:30459   */\n      dup2\n        /* \"#utility.yul\":30444:30448   */\n      dup2\n        /* \"#utility.yul\":30440:30460   */\n      sub\n        /* \"#utility.yul\":30436:30437   */\n      0x00\n        /* \"#utility.yul\":30425:30434   */\n      dup4\n        /* \"#utility.yul\":30421:30438   */\n      add\n        /* \"#utility.yul\":30414:30461   */\n      mstore\n        /* \"#utility.yul\":30478:30609   */\n      tag_535\n        /* \"#utility.yul\":30604:30608   */\n      dup2\n        /* \"#utility.yul\":30478:30609   */\n      tag_251\n      jump\t// in\n    tag_535:\n        /* \"#utility.yul\":30470:30609   */\n      swap1\n      pop\n        /* \"#utility.yul\":30197:30616   */\n      swap2\n      swap1\n      pop\n      jump\t// out\n        /* \"#utility.yul\":30622:30813   */\n    tag_151:\n        /* \"#utility.yul\":30662:30665   */\n      0x00\n        /* \"#utility.yul\":30681:30701   */\n      tag_537\n        /* \"#utility.yul\":30699:30700   */\n      dup3\n        /* \"#utility.yul\":30681:30701   */\n      tag_165\n      jump\t// in\n    tag_537:\n        /* \"#utility.yul\":30676:30701   */\n      swap2\n      pop\n        /* \"#utility.yul\":30715:30735   */\n      tag_538\n        /* \"#utility.yul\":30733:30734   */\n      dup4\n        /* \"#utility.yul\":30715:30735   */\n      tag_165\n      jump\t// in\n    tag_538:\n        /* \"#utility.yul\":30710:30735   */\n      swap3\n      pop\n        /* \"#utility.yul\":30758:30759   */\n      dup3\n        /* \"#utility.yul\":30755:30756   */\n      dup3\n        /* \"#utility.yul\":30751:30760   */\n      add\n        /* \"#utility.yul\":30744:30760   */\n      swap1\n      pop\n        /* \"#utility.yul\":30779:30782   */\n      dup1\n        /* \"#utility.yul\":30776:30777   */\n      dup3\n        /* \"#utility.yul\":30773:30783   */\n      gt\n        /* \"#utility.yul\":30770:30806   */\n      iszero\n      tag_539\n      jumpi\n        /* \"#utility.yul\":30786:30804   */\n      tag_540\n      tag_216\n      jump\t// in\n    tag_540:\n        /* \"#utility.yul\":30770:30806   */\n    tag_539:\n        /* \"#utility.yul\":30622:30813   */\n      swap3\n      swap2\n      pop\n      pop\n      jump\t// out\n        /* \"#utility.yul\":30819:31000   */\n    tag_252:\n        /* \"#utility.yul\":30959:30992   */\n      0x446f6e6174696f6e206d7573742062652067726561746572207468616e203000\n        /* \"#utility.yul\":30955:30956   */\n      0x00\n        /* \"#utility.yul\":30947:30953   */\n      dup3\n        /* \"#utility.yul\":30943:30957   */\n      add\n        /* \"#utility.yul\":30936:30993   */\n      mstore\n        /* \"#utility.yul\":30819:31000   */\n      pop\n      jump\t// out\n        /* \"#utility.yul\":31006:31372   */\n    tag_253:\n        /* \"#utility.yul\":31148:31151   */\n      0x00\n        /* \"#utility.yul\":31169:31236   */\n      tag_543\n        /* \"#utility.yul\":31233:31235   */\n      0x1f\n        /* \"#utility.yul\":31228:31231   */\n      dup4\n        /* \"#utility.yul\":31169:31236   */\n      tag_199\n      jump\t// in\n    tag_543:\n        /* \"#utility.yul\":31162:31236   */\n      swap2\n      pop\n        /* \"#utility.yul\":31245:31338   */\n      tag_544\n        /* \"#utility.yul\":31334:31337   */\n      dup3\n        /* \"#utility.yul\":31245:31338   */\n      tag_252\n      jump\t// in\n    tag_544:\n        /* \"#utility.yul\":31363:31365   */\n      0x20\n        /* \"#utility.yul\":31358:31361   */\n      dup3\n        /* \"#utility.yul\":31354:31366   */\n      add\n        /* \"#utility.yul\":31347:31366   */\n      swap1\n      pop\n        /* \"#utility.yul\":31006:31372   */\n      swap2\n      swap1\n      pop\n      jump\t// out\n        /* \"#utility.yul\":31378:31797   */\n    tag_159:\n        /* \"#utility.yul\":31544:31548   */\n      0x00\n        /* \"#utility.yul\":31582:31584   */\n      0x20\n        /* \"#utility.yul\":31571:31580   */\n      dup3\n        /* \"#utility.yul\":31567:31585   */\n      add\n        /* \"#utility.yul\":31559:31585   */\n      swap1\n      pop\n        /* \"#utility.yul\":31631:31640   */\n      dup2\n        /* \"#utility.yul\":31625:31629   */\n      dup2\n        /* \"#utility.yul\":31621:31641   */\n      sub\n        /* \"#utility.yul\":31617:31618   */\n      0x00\n        /* \"#utility.yul\":31606:31615   */\n      dup4\n        /* \"#utility.yul\":31602:31619   */\n      add\n        /* \"#utility.yul\":31595:31642   */\n      mstore\n        /* \"#utility.yul\":31659:31790   */\n      tag_546\n        /* \"#utility.yul\":31785:31789   */\n      dup2\n        /* \"#utility.yul\":31659:31790   */\n      tag_253\n      jump\t// in\n    tag_546:\n        /* \"#utility.yul\":31651:31790   */\n      swap1\n      pop\n        /* \"#utility.yul\":31378:31797   */\n      swap2\n      swap1\n      pop\n      jump\t// out\n\n    auxdata: 0xa2646970667358221220202ad2814ee210dd2ca9788324599409393add98ed7740d8fd451285a3b4881d64736f6c634300081a0033\n}\n",
				"bytecode": {
					"linkReferences": {},
					"object": "6080604052348015600e575f80fd5b50611cc98061001c5f395ff3fe60806040526004361061007a575f3560e01c8063d4971f611161004d578063d4971f6114610162578063de2ed8931461019e578063e2274075146101c8578063ed88c68e146102045761007a565b8063034410061461007e578063b1e92059146100ba578063ba561486146100e6578063c28a330914610126575b5f80fd5b348015610089575f80fd5b506100a4600480360381019061009f9190610d73565b61020e565b6040516100b19190610db8565b60405180910390f35b3480156100c5575f80fd5b506100ce610459565b6040516100dd9392919061109a565b60405180910390f35b3480156100f1575f80fd5b5061010c60048036038101906101079190610d73565b610711565b60405161011d95949392919061114a565b60405180910390f35b348015610131575f80fd5b5061014c600480360381019061014791906112f8565b610803565b6040516101599190611364565b60405180910390f35b34801561016d575f80fd5b506101886004803603810190610183919061137d565b6109b4565b6040516101959190611364565b60405180910390f35b3480156101a9575f80fd5b506101b26109c9565b6040516101bf9190611364565b60405180910390f35b3480156101d3575f80fd5b506101ee60048036038101906101e99190610d73565b6109ce565b6040516101fb9190610db8565b60405180910390f35b61020c610c81565b005b5f6002805490508210610256576040517f08c379a000000000000000000000000000000000000000000000000000000000815260040161024d906113f2565b60405180910390fd5b5f6002838154811061026b5761026a611410565b5b905f5260205f2090600602019050806004015f9054906101000a900460ff16156102ca576040517f08c379a00000000000000000000000000000000000000000000000000000000081526004016102c190611487565b60405180910390fd5b60025f546102d891906114ff565b81600301541161031d576040517f08c379a000000000000000000000000000000000000000000000000000000000815260040161031490611579565b60405180910390fd5b8060010154471015610364576040517f08c379a000000000000000000000000000000000000000000000000000000000815260040161035b906115e1565b60405180910390fd5b5f815f015f9054906101000a900473ffffffffffffffffffffffffffffffffffffffff1673ffffffffffffffffffffffffffffffffffffffff1682600101546040516103af9061162c565b5f6040518083038185875af1925050503d805f81146103e9576040519150601f19603f3d011682016040523d82523d5f602084013e6103ee565b606091505b5050905080610432576040517f08c379a00000000000000000000000000000000000000000000000000000000081526004016104299061168a565b60405180910390fd5b6001826004015f6101000a81548160ff021916908315150217905550600192505050919050565b60608060605f60028054905090505f8167ffffffffffffffff811115610482576104816111d4565b5b6040519080825280602002602001820160405280156104b05781602001602082028036833780820191505090505b5090505f8267ffffffffffffffff8111156104ce576104cd6111d4565b5b6040519080825280602002602001820160405280156104fc5781602001602082028036833780820191505090505b5090505f8367ffffffffffffffff81111561051a576105196111d4565b5b60405190808252806020026020018201604052801561054d57816020015b60608152602001906001900390816105385790505b5090505f5b848110156106fe576002818154811061056e5761056d611410565b5b905f5260205f2090600602016004015f9054906101000a900460ff16156106f1575f600282815481106105a4576105a3611410565b5b905f5260205f2090600602019050805f015f9054906101000a900473ffffffffffffffffffffffffffffffffffffffff168583815181106105e8576105e7611410565b5b602002602001019073ffffffffffffffffffffffffffffffffffffffff16908173ffffffffffffffffffffffffffffffffffffffff1681525050806001015484838151811061063a57610639611410565b5b602002602001018181525050806002018054610655906116d5565b80601f0160208091040260200160405190810160405280929190818152602001828054610681906116d5565b80156106cc5780601f106106a3576101008083540402835291602001916106cc565b820191905f5260205f20905b8154815290600101906020018083116106af57829003601f168201915b50505050508383815181106106e4576106e3611410565b5b6020026020010181905250505b8080600101915050610552565b5082828296509650965050505050909192565b60028181548110610720575f80fd5b905f5260205f2090600602015f91509050805f015f9054906101000a900473ffffffffffffffffffffffffffffffffffffffff169080600101549080600201805461076a906116d5565b80601f0160208091040260200160405190810160405280929190818152602001828054610796906116d5565b80156107e15780601f106107b8576101008083540402835291602001916107e1565b820191905f5260205f20905b8154815290600101906020018083116107c457829003601f168201915b505050505090806003015490806004015f9054906101000a900460ff16905085565b5f8073ffffffffffffffffffffffffffffffffffffffff168473ffffffffffffffffffffffffffffffffffffffff1603610872576040517f08c379a00000000000000000000000000000000000000000000000000000000081526004016108699061174f565b60405180910390fd5b5f83116108b4576040517f08c379a00000000000000000000000000000000000000000000000000000000081526004016108ab906117dd565b60405180910390fd5b5f8251116108f7576040517f08c379a00000000000000000000000000000000000000000000000000000000081526004016108ee9061186b565b60405180910390fd5b5f600260018160018154018082558091505003905f5260205f209060060201905084815f015f6101000a81548173ffffffffffffffffffffffffffffffffffffffff021916908373ffffffffffffffffffffffffffffffffffffffff160217905550838160010181905550828160020190816109739190611a26565b505f81600301819055505f816004015f6101000a81548160ff02191690831515021790555060016002805490506109aa9190611af5565b9150509392505050565b6001602052805f5260405f205f915090505481565b5f5481565b5f6002805490508210610a16576040517f08c379a0000000000000000000000000000000000000000000000000000000008152600401610a0d906113f2565b60405180910390fd5b5f60015f3373ffffffffffffffffffffffffffffffffffffffff1673ffffffffffffffffffffffffffffffffffffffff1681526020019081526020015f205411610a95576040517f08c379a0000000000000000000000000000000000000000000000000000000008152600401610a8c90611b72565b60405180910390fd5b5f60028381548110610aaa57610aa9611410565b5b905f5260205f2090600602019050806004015f9054906101000a900460ff1615610b09576040517f08c379a0000000000000000000000000000000000000000000000000000000008152600401610b0090611487565b60405180910390fd5b806005015f3373ffffffffffffffffffffffffffffffffffffffff1673ffffffffffffffffffffffffffffffffffffffff1681526020019081526020015f205f9054906101000a900460ff1615610b95576040517f08c379a0000000000000000000000000000000000000000000000000000000008152600401610b8c90611bda565b60405180910390fd5b60015f3373ffffffffffffffffffffffffffffffffffffffff1673ffffffffffffffffffffffffffffffffffffffff1681526020019081526020015f2054816003015f828254610be59190611bf8565b925050819055506001816005015f3373ffffffffffffffffffffffffffffffffffffffff1673ffffffffffffffffffffffffffffffffffffffff1681526020019081526020015f205f6101000a81548160ff02191690831515021790555060025f54610c5191906114ff565b8160030154118015610c67575080600101544710155b15610c7757610c758361020e565b505b6001915050919050565b5f3411610cc3576040517f08c379a0000000000000000000000000000000000000000000000000000000008152600401610cba90611c75565b60405180910390fd5b3460015f3373ffffffffffffffffffffffffffffffffffffffff1673ffffffffffffffffffffffffffffffffffffffff1681526020019081526020015f205f828254610d0f9190611bf8565b92505081905550345f80828254610d269190611bf8565b92505081905550565b5f604051905090565b5f80fd5b5f80fd5b5f819050919050565b610d5281610d40565b8114610d5c575f80fd5b50565b5f81359050610d6d81610d49565b92915050565b5f60208284031215610d8857610d87610d38565b5b5f610d9584828501610d5f565b91505092915050565b5f8115159050919050565b610db281610d9e565b82525050565b5f602082019050610dcb5f830184610da9565b92915050565b5f81519050919050565b5f82825260208201905092915050565b5f819050602082019050919050565b5f73ffffffffffffffffffffffffffffffffffffffff82169050919050565b5f610e2382610dfa565b9050919050565b610e3381610e19565b82525050565b5f610e448383610e2a565b60208301905092915050565b5f602082019050919050565b5f610e6682610dd1565b610e708185610ddb565b9350610e7b83610deb565b805f5b83811015610eab578151610e928882610e39565b9750610e9d83610e50565b925050600181019050610e7e565b5085935050505092915050565b5f81519050919050565b5f82825260208201905092915050565b5f819050602082019050919050565b610eea81610d40565b82525050565b5f610efb8383610ee1565b60208301905092915050565b5f602082019050919050565b5f610f1d82610eb8565b610f278185610ec2565b9350610f3283610ed2565b805f5b83811015610f62578151610f498882610ef0565b9750610f5483610f07565b925050600181019050610f35565b5085935050505092915050565b5f81519050919050565b5f82825260208201905092915050565b5f819050602082019050919050565b5f81519050919050565b5f82825260208201905092915050565b8281835e5f83830152505050565b5f601f19601f8301169050919050565b5f610fda82610f98565b610fe48185610fa2565b9350610ff4818560208601610fb2565b610ffd81610fc0565b840191505092915050565b5f6110138383610fd0565b905092915050565b5f602082019050919050565b5f61103182610f6f565b61103b8185610f79565b93508360208202850161104d85610f89565b805f5b8581101561108857848403895281516110698582611008565b94506110748361101b565b925060208a01995050600181019050611050565b50829750879550505050505092915050565b5f6060820190508181035f8301526110b28186610e5c565b905081810360208301526110c68185610f13565b905081810360408301526110da8184611027565b9050949350505050565b6110ed81610e19565b82525050565b6110fc81610d40565b82525050565b5f82825260208201905092915050565b5f61111c82610f98565b6111268185611102565b9350611136818560208601610fb2565b61113f81610fc0565b840191505092915050565b5f60a08201905061115d5f8301886110e4565b61116a60208301876110f3565b818103604083015261117c8186611112565b905061118b60608301856110f3565b6111986080830184610da9565b9695505050505050565b6111ab81610e19565b81146111b5575f80fd5b50565b5f813590506111c6816111a2565b92915050565b5f80fd5b5f80fd5b7f4e487b71000000000000000000000000000000000000000000000000000000005f52604160045260245ffd5b61120a82610fc0565b810181811067ffffffffffffffff82111715611229576112286111d4565b5b80604052505050565b5f61123b610d2f565b90506112478282611201565b919050565b5f67ffffffffffffffff821115611266576112656111d4565b5b61126f82610fc0565b9050602081019050919050565b828183375f83830152505050565b5f61129c6112978461124c565b611232565b9050828152602081018484840111156112b8576112b76111d0565b5b6112c384828561127c565b509392505050565b5f82601f8301126112df576112de6111cc565b5b81356112ef84826020860161128a565b91505092915050565b5f805f6060848603121561130f5761130e610d38565b5b5f61131c868287016111b8565b935050602061132d86828701610d5f565b925050604084013567ffffffffffffffff81111561134e5761134d610d3c565b5b61135a868287016112cb565b9150509250925092565b5f6020820190506113775f8301846110f3565b92915050565b5f6020828403121561139257611391610d38565b5b5f61139f848285016111b8565b91505092915050565b7f496e76616c6964207265717565737420494400000000000000000000000000005f82015250565b5f6113dc601283611102565b91506113e7826113a8565b602082019050919050565b5f6020820190508181035f830152611409816113d0565b9050919050565b7f4e487b71000000000000000000000000000000000000000000000000000000005f52603260045260245ffd5b7f5265717565737420616c72656164792066696e616c697a6564000000000000005f82015250565b5f611471601983611102565b915061147c8261143d565b602082019050919050565b5f6020820190508181035f83015261149e81611465565b9050919050565b7f4e487b71000000000000000000000000000000000000000000000000000000005f52601260045260245ffd5b7f4e487b71000000000000000000000000000000000000000000000000000000005f52601160045260245ffd5b5f61150982610d40565b915061151483610d40565b925082611524576115236114a5565b5b828204905092915050565b7f496e73756666696369656e7420766f74657300000000000000000000000000005f82015250565b5f611563601283611102565b915061156e8261152f565b602082019050919050565b5f6020820190508181035f83015261159081611557565b9050919050565b7f496e73756666696369656e7420636f6e74726163742062616c616e63650000005f82015250565b5f6115cb601d83611102565b91506115d682611597565b602082019050919050565b5f6020820190508181035f8301526115f8816115bf565b9050919050565b5f81905092915050565b50565b5f6116175f836115ff565b915061162282611609565b5f82019050919050565b5f6116368261160c565b9150819050919050565b7f5472616e73666572206661696c656400000000000000000000000000000000005f82015250565b5f611674600f83611102565b915061167f82611640565b602082019050919050565b5f6020820190508181035f8301526116a181611668565b9050919050565b7f4e487b71000000000000000000000000000000000000000000000000000000005f52602260045260245ffd5b5f60028204905060018216806116ec57607f821691505b6020821081036116ff576116fe6116a8565b5b50919050565b7f496e76616c69642070726f6a65637420616464726573730000000000000000005f82015250565b5f611739601783611102565b915061174482611705565b602082019050919050565b5f6020820190508181035f8301526117668161172d565b9050919050565b7f52657175657374656420616d6f756e74206d75737420626520677265617465725f8201527f207468616e203000000000000000000000000000000000000000000000000000602082015250565b5f6117c7602783611102565b91506117d28261176d565b604082019050919050565b5f6020820190508181035f8301526117f4816117bb565b9050919050565b7f50726f6a656374206465736372697074696f6e2063616e6e6f7420626520656d5f8201527f7074790000000000000000000000000000000000000000000000000000000000602082015250565b5f611855602383611102565b9150611860826117fb565b604082019050919050565b5f6020820190508181035f83015261188281611849565b9050919050565b5f819050815f5260205f209050919050565b5f6020601f8301049050919050565b5f82821b905092915050565b5f600883026118e57fffffffffffffffffffffffffffffffffffffffffffffffffffffffffffffffff826118aa565b6118ef86836118aa565b95508019841693508086168417925050509392505050565b5f819050919050565b5f61192a61192561192084610d40565b611907565b610d40565b9050919050565b5f819050919050565b61194383611910565b61195761194f82611931565b8484546118b6565b825550505050565b5f90565b61196b61195f565b61197681848461193a565b505050565b5b818110156119995761198e5f82611963565b60018101905061197c565b5050565b601f8211156119de576119af81611889565b6119b88461189b565b810160208510156119c7578190505b6119db6119d38561189b565b83018261197b565b50505b505050565b5f82821c905092915050565b5f6119fe5f19846008026119e3565b1980831691505092915050565b5f611a1683836119ef565b9150826002028217905092915050565b611a2f82610f98565b67ffffffffffffffff811115611a4857611a476111d4565b5b611a5282546116d5565b611a5d82828561199d565b5f60209050601f831160018114611a8e575f8415611a7c578287015190505b611a868582611a0b565b865550611aed565b601f198416611a9c86611889565b5f5b82811015611ac357848901518255600182019150602085019450602081019050611a9e565b86831015611ae05784890151611adc601f8916826119ef565b8355505b6001600288020188555050505b505050505050565b5f611aff82610d40565b9150611b0a83610d40565b9250828203905081811115611b2257611b216114d2565b5b92915050565b7f4e6f20766f74696e6720706f77657200000000000000000000000000000000005f82015250565b5f611b5c600f83611102565b9150611b6782611b28565b602082019050919050565b5f6020820190508181035f830152611b8981611b50565b9050919050565b7f416c726561647920766f746564000000000000000000000000000000000000005f82015250565b5f611bc4600d83611102565b9150611bcf82611b90565b602082019050919050565b5f6020820190508181035f830152611bf181611bb8565b9050919050565b5f611c0282610d40565b9150611c0d83610d40565b9250828201905080821115611c2557611c246114d2565b5b92915050565b7f446f6e6174696f6e206d7573742062652067726561746572207468616e2030005f82015250565b5f611c5f601f83611102565b9150611c6a82611c2b565b602082019050919050565b5f6020820190508181035f830152611c8c81611c53565b905091905056fea2646970667358221220202ad2814ee210dd2ca9788324599409393add98ed7740d8fd451285a3b4881d64736f6c634300081a0033",
					"opcodes": "PUSH1 0x80 PUSH1 0x40 MSTORE CALLVALUE DUP1 ISZERO PUSH1 0xE JUMPI PUSH0 DUP1 REVERT JUMPDEST POP PUSH2 0x1CC9 DUP1 PUSH2 0x1C PUSH0 CODECOPY PUSH0 RETURN INVALID PUSH1 0x80 PUSH1 0x40 MSTORE PUSH1 0x4 CALLDATASIZE LT PUSH2 0x7A JUMPI PUSH0 CALLDATALOAD PUSH1 0xE0 SHR DUP1 PUSH4 0xD4971F61 GT PUSH2 0x4D JUMPI DUP1 PUSH4 0xD4971F61 EQ PUSH2 0x162 JUMPI DUP1 PUSH4 0xDE2ED893 EQ PUSH2 0x19E JUMPI DUP1 PUSH4 0xE2274075 EQ PUSH2 0x1C8 JUMPI DUP1 PUSH4 0xED88C68E EQ PUSH2 0x204 JUMPI PUSH2 0x7A JUMP JUMPDEST DUP1 PUSH4 0x3441006 EQ PUSH2 0x7E JUMPI DUP1 PUSH4 0xB1E92059 EQ PUSH2 0xBA JUMPI DUP1 PUSH4 0xBA561486 EQ PUSH2 0xE6 JUMPI DUP1 PUSH4 0xC28A3309 EQ PUSH2 0x126 JUMPI JUMPDEST PUSH0 DUP1 REVERT JUMPDEST CALLVALUE DUP1 ISZERO PUSH2 0x89 JUMPI PUSH0 DUP1 REVERT JUMPDEST POP PUSH2 0xA4 PUSH1 0x4 DUP1 CALLDATASIZE SUB DUP2 ADD SWAP1 PUSH2 0x9F SWAP2 SWAP1 PUSH2 0xD73 JUMP JUMPDEST PUSH2 0x20E JUMP JUMPDEST PUSH1 0x40 MLOAD PUSH2 0xB1 SWAP2 SWAP1 PUSH2 0xDB8 JUMP JUMPDEST PUSH1 0x40 MLOAD DUP1 SWAP2 SUB SWAP1 RETURN JUMPDEST CALLVALUE DUP1 ISZERO PUSH2 0xC5 JUMPI PUSH0 DUP1 REVERT JUMPDEST POP PUSH2 0xCE PUSH2 0x459 JUMP JUMPDEST PUSH1 0x40 MLOAD PUSH2 0xDD SWAP4 SWAP3 SWAP2 SWAP1 PUSH2 0x109A JUMP JUMPDEST PUSH1 0x40 MLOAD DUP1 SWAP2 SUB SWAP1 RETURN JUMPDEST CALLVALUE DUP1 ISZERO PUSH2 0xF1 JUMPI PUSH0 DUP1 REVERT JUMPDEST POP PUSH2 0x10C PUSH1 0x4 DUP1 CALLDATASIZE SUB DUP2 ADD SWAP1 PUSH2 0x107 SWAP2 SWAP1 PUSH2 0xD73 JUMP JUMPDEST PUSH2 0x711 JUMP JUMPDEST PUSH1 0x40 MLOAD PUSH2 0x11D SWAP6 SWAP5 SWAP4 SWAP3 SWAP2 SWAP1 PUSH2 0x114A JUMP JUMPDEST PUSH1 0x40 MLOAD DUP1 SWAP2 SUB SWAP1 RETURN JUMPDEST CALLVALUE DUP1 ISZERO PUSH2 0x131 JUMPI PUSH0 DUP1 REVERT JUMPDEST POP PUSH2 0x14C PUSH1 0x4 DUP1 CALLDATASIZE SUB DUP2 ADD SWAP1 PUSH2 0x147 SWAP2 SWAP1 PUSH2 0x12F8 JUMP JUMPDEST PUSH2 0x803 JUMP JUMPDEST PUSH1 0x40 MLOAD PUSH2 0x159 SWAP2 SWAP1 PUSH2 0x1364 JUMP JUMPDEST PUSH1 0x40 MLOAD DUP1 SWAP2 SUB SWAP1 RETURN JUMPDEST CALLVALUE DUP1 ISZERO PUSH2 0x16D JUMPI PUSH0 DUP1 REVERT JUMPDEST POP PUSH2 0x188 PUSH1 0x4 DUP1 CALLDATASIZE SUB DUP2 ADD SWAP1 PUSH2 0x183 SWAP2 SWAP1 PUSH2 0x137D JUMP JUMPDEST PUSH2 0x9B4 JUMP JUMPDEST PUSH1 0x40 MLOAD PUSH2 0x195 SWAP2 SWAP1 PUSH2 0x1364 JUMP JUMPDEST PUSH1 0x40 MLOAD DUP1 SWAP2 SUB SWAP1 RETURN JUMPDEST CALLVALUE DUP1 ISZERO PUSH2 0x1A9 JUMPI PUSH0 DUP1 REVERT JUMPDEST POP PUSH2 0x1B2 PUSH2 0x9C9 JUMP JUMPDEST PUSH1 0x40 MLOAD PUSH2 0x1BF SWAP2 SWAP1 PUSH2 0x1364 JUMP JUMPDEST PUSH1 0x40 MLOAD DUP1 SWAP2 SUB SWAP1 RETURN JUMPDEST CALLVALUE DUP1 ISZERO PUSH2 0x1D3 JUMPI PUSH0 DUP1 REVERT JUMPDEST POP PUSH2 0x1EE PUSH1 0x4 DUP1 CALLDATASIZE SUB DUP2 ADD SWAP1 PUSH2 0x1E9 SWAP2 SWAP1 PUSH2 0xD73 JUMP JUMPDEST PUSH2 0x9CE JUMP JUMPDEST PUSH1 0x40 MLOAD PUSH2 0x1FB SWAP2 SWAP1 PUSH2 0xDB8 JUMP JUMPDEST PUSH1 0x40 MLOAD DUP1 SWAP2 SUB SWAP1 RETURN JUMPDEST PUSH2 0x20C PUSH2 0xC81 JUMP JUMPDEST STOP JUMPDEST PUSH0 PUSH1 0x2 DUP1 SLOAD SWAP1 POP DUP3 LT PUSH2 0x256 JUMPI PUSH1 0x40 MLOAD PUSH32 0x8C379A000000000000000000000000000000000000000000000000000000000 DUP2 MSTORE PUSH1 0x4 ADD PUSH2 0x24D SWAP1 PUSH2 0x13F2 JUMP JUMPDEST PUSH1 0x40 MLOAD DUP1 SWAP2 SUB SWAP1 REVERT JUMPDEST PUSH0 PUSH1 0x2 DUP4 DUP2 SLOAD DUP2 LT PUSH2 0x26B JUMPI PUSH2 0x26A PUSH2 0x1410 JUMP JUMPDEST JUMPDEST SWAP1 PUSH0 MSTORE PUSH1 0x20 PUSH0 KECCAK256 SWAP1 PUSH1 0x6 MUL ADD SWAP1 POP DUP1 PUSH1 0x4 ADD PUSH0 SWAP1 SLOAD SWAP1 PUSH2 0x100 EXP SWAP1 DIV PUSH1 0xFF AND ISZERO PUSH2 0x2CA JUMPI PUSH1 0x40 MLOAD PUSH32 0x8C379A000000000000000000000000000000000000000000000000000000000 DUP2 MSTORE PUSH1 0x4 ADD PUSH2 0x2C1 SWAP1 PUSH2 0x1487 JUMP JUMPDEST PUSH1 0x40 MLOAD DUP1 SWAP2 SUB SWAP1 REVERT JUMPDEST PUSH1 0x2 PUSH0 SLOAD PUSH2 0x2D8 SWAP2 SWAP1 PUSH2 0x14FF JUMP JUMPDEST DUP2 PUSH1 0x3 ADD SLOAD GT PUSH2 0x31D JUMPI PUSH1 0x40 MLOAD PUSH32 0x8C379A000000000000000000000000000000000000000000000000000000000 DUP2 MSTORE PUSH1 0x4 ADD PUSH2 0x314 SWAP1 PUSH2 0x1579 JUMP JUMPDEST PUSH1 0x40 MLOAD DUP1 SWAP2 SUB SWAP1 REVERT JUMPDEST DUP1 PUSH1 0x1 ADD SLOAD SELFBALANCE LT ISZERO PUSH2 0x364 JUMPI PUSH1 0x40 MLOAD PUSH32 0x8C379A000000000000000000000000000000000000000000000000000000000 DUP2 MSTORE PUSH1 0x4 ADD PUSH2 0x35B SWAP1 PUSH2 0x15E1 JUMP JUMPDEST PUSH1 0x40 MLOAD DUP1 SWAP2 SUB SWAP1 REVERT JUMPDEST PUSH0 DUP2 PUSH0 ADD PUSH0 SWAP1 SLOAD SWAP1 PUSH2 0x100 EXP SWAP1 DIV PUSH20 0xFFFFFFFFFFFFFFFFFFFFFFFFFFFFFFFFFFFFFFFF AND PUSH20 0xFFFFFFFFFFFFFFFFFFFFFFFFFFFFFFFFFFFFFFFF AND DUP3 PUSH1 0x1 ADD SLOAD PUSH1 0x40 MLOAD PUSH2 0x3AF SWAP1 PUSH2 0x162C JUMP JUMPDEST PUSH0 PUSH1 0x40 MLOAD DUP1 DUP4 SUB DUP2 DUP6 DUP8 GAS CALL SWAP3 POP POP POP RETURNDATASIZE DUP1 PUSH0 DUP2 EQ PUSH2 0x3E9 JUMPI PUSH1 0x40 MLOAD SWAP2 POP PUSH1 0x1F NOT PUSH1 0x3F RETURNDATASIZE ADD AND DUP3 ADD PUSH1 0x40 MSTORE RETURNDATASIZE DUP3 MSTORE RETURNDATASIZE PUSH0 PUSH1 0x20 DUP5 ADD RETURNDATACOPY PUSH2 0x3EE JUMP JUMPDEST PUSH1 0x60 SWAP2 POP JUMPDEST POP POP SWAP1 POP DUP1 PUSH2 0x432 JUMPI PUSH1 0x40 MLOAD PUSH32 0x8C379A000000000000000000000000000000000000000000000000000000000 DUP2 MSTORE PUSH1 0x4 ADD PUSH2 0x429 SWAP1 PUSH2 0x168A JUMP JUMPDEST PUSH1 0x40 MLOAD DUP1 SWAP2 SUB SWAP1 REVERT JUMPDEST PUSH1 0x1 DUP3 PUSH1 0x4 ADD PUSH0 PUSH2 0x100 EXP DUP2 SLOAD DUP2 PUSH1 0xFF MUL NOT AND SWAP1 DUP4 ISZERO ISZERO MUL OR SWAP1 SSTORE POP PUSH1 0x1 SWAP3 POP POP POP SWAP2 SWAP1 POP JUMP JUMPDEST PUSH1 0x60 DUP1 PUSH1 0x60 PUSH0 PUSH1 0x2 DUP1 SLOAD SWAP1 POP SWAP1 POP PUSH0 DUP2 PUSH8 0xFFFFFFFFFFFFFFFF DUP2 GT ISZERO PUSH2 0x482 JUMPI PUSH2 0x481 PUSH2 0x11D4 JUMP JUMPDEST JUMPDEST PUSH1 0x40 MLOAD SWAP1 DUP1 DUP3 MSTORE DUP1 PUSH1 0x20 MUL PUSH1 0x20 ADD DUP3 ADD PUSH1 0x40 MSTORE DUP1 ISZERO PUSH2 0x4B0 JUMPI DUP2 PUSH1 0x20 ADD PUSH1 0x20 DUP3 MUL DUP1 CALLDATASIZE DUP4 CALLDATACOPY DUP1 DUP3 ADD SWAP2 POP POP SWAP1 POP JUMPDEST POP SWAP1 POP PUSH0 DUP3 PUSH8 0xFFFFFFFFFFFFFFFF DUP2 GT ISZERO PUSH2 0x4CE JUMPI PUSH2 0x4CD PUSH2 0x11D4 JUMP JUMPDEST JUMPDEST PUSH1 0x40 MLOAD SWAP1 DUP1 DUP3 MSTORE DUP1 PUSH1 0x20 MUL PUSH1 0x20 ADD DUP3 ADD PUSH1 0x40 MSTORE DUP1 ISZERO PUSH2 0x4FC JUMPI DUP2 PUSH1 0x20 ADD PUSH1 0x20 DUP3 MUL DUP1 CALLDATASIZE DUP4 CALLDATACOPY DUP1 DUP3 ADD SWAP2 POP POP SWAP1 POP JUMPDEST POP SWAP1 POP PUSH0 DUP4 PUSH8 0xFFFFFFFFFFFFFFFF DUP2 GT ISZERO PUSH2 0x51A JUMPI PUSH2 0x519 PUSH2 0x11D4 JUMP JUMPDEST JUMPDEST PUSH1 0x40 MLOAD SWAP1 DUP1 DUP3 MSTORE DUP1 PUSH1 0x20 MUL PUSH1 0x20 ADD DUP3 ADD PUSH1 0x40 MSTORE DUP1 ISZERO PUSH2 0x54D JUMPI DUP2 PUSH1 0x20 ADD JUMPDEST PUSH1 0x60 DUP2 MSTORE PUSH1 0x20 ADD SWAP1 PUSH1 0x1 SWAP1 SUB SWAP1 DUP2 PUSH2 0x538 JUMPI SWAP1 POP JUMPDEST POP SWAP1 POP PUSH0 JUMPDEST DUP5 DUP2 LT ISZERO PUSH2 0x6FE JUMPI PUSH1 0x2 DUP2 DUP2 SLOAD DUP2 LT PUSH2 0x56E JUMPI PUSH2 0x56D PUSH2 0x1410 JUMP JUMPDEST JUMPDEST SWAP1 PUSH0 MSTORE PUSH1 0x20 PUSH0 KECCAK256 SWAP1 PUSH1 0x6 MUL ADD PUSH1 0x4 ADD PUSH0 SWAP1 SLOAD SWAP1 PUSH2 0x100 EXP SWAP1 DIV PUSH1 0xFF AND ISZERO PUSH2 0x6F1 JUMPI PUSH0 PUSH1 0x2 DUP3 DUP2 SLOAD DUP2 LT PUSH2 0x5A4 JUMPI PUSH2 0x5A3 PUSH2 0x1410 JUMP JUMPDEST JUMPDEST SWAP1 PUSH0 MSTORE PUSH1 0x20 PUSH0 KECCAK256 SWAP1 PUSH1 0x6 MUL ADD SWAP1 POP DUP1 PUSH0 ADD PUSH0 SWAP1 SLOAD SWAP1 PUSH2 0x100 EXP SWAP1 DIV PUSH20 0xFFFFFFFFFFFFFFFFFFFFFFFFFFFFFFFFFFFFFFFF AND DUP6 DUP4 DUP2 MLOAD DUP2 LT PUSH2 0x5E8 JUMPI PUSH2 0x5E7 PUSH2 0x1410 JUMP JUMPDEST JUMPDEST PUSH1 0x20 MUL PUSH1 0x20 ADD ADD SWAP1 PUSH20 0xFFFFFFFFFFFFFFFFFFFFFFFFFFFFFFFFFFFFFFFF AND SWAP1 DUP2 PUSH20 0xFFFFFFFFFFFFFFFFFFFFFFFFFFFFFFFFFFFFFFFF AND DUP2 MSTORE POP POP DUP1 PUSH1 0x1 ADD SLOAD DUP5 DUP4 DUP2 MLOAD DUP2 LT PUSH2 0x63A JUMPI PUSH2 0x639 PUSH2 0x1410 JUMP JUMPDEST JUMPDEST PUSH1 0x20 MUL PUSH1 0x20 ADD ADD DUP2 DUP2 MSTORE POP POP DUP1 PUSH1 0x2 ADD DUP1 SLOAD PUSH2 0x655 SWAP1 PUSH2 0x16D5 JUMP JUMPDEST DUP1 PUSH1 0x1F ADD PUSH1 0x20 DUP1 SWAP2 DIV MUL PUSH1 0x20 ADD PUSH1 0x40 MLOAD SWAP1 DUP2 ADD PUSH1 0x40 MSTORE DUP1 SWAP3 SWAP2 SWAP1 DUP2 DUP2 MSTORE PUSH1 0x20 ADD DUP3 DUP1 SLOAD PUSH2 0x681 SWAP1 PUSH2 0x16D5 JUMP JUMPDEST DUP1 ISZERO PUSH2 0x6CC JUMPI DUP1 PUSH1 0x1F LT PUSH2 0x6A3 JUMPI PUSH2 0x100 DUP1 DUP4 SLOAD DIV MUL DUP4 MSTORE SWAP2 PUSH1 0x20 ADD SWAP2 PUSH2 0x6CC JUMP JUMPDEST DUP3 ADD SWAP2 SWAP1 PUSH0 MSTORE PUSH1 0x20 PUSH0 KECCAK256 SWAP1 JUMPDEST DUP2 SLOAD DUP2 MSTORE SWAP1 PUSH1 0x1 ADD SWAP1 PUSH1 0x20 ADD DUP1 DUP4 GT PUSH2 0x6AF JUMPI DUP3 SWAP1 SUB PUSH1 0x1F AND DUP3 ADD SWAP2 JUMPDEST POP POP POP POP POP DUP4 DUP4 DUP2 MLOAD DUP2 LT PUSH2 0x6E4 JUMPI PUSH2 0x6E3 PUSH2 0x1410 JUMP JUMPDEST JUMPDEST PUSH1 0x20 MUL PUSH1 0x20 ADD ADD DUP2 SWAP1 MSTORE POP POP JUMPDEST DUP1 DUP1 PUSH1 0x1 ADD SWAP2 POP POP PUSH2 0x552 JUMP JUMPDEST POP DUP3 DUP3 DUP3 SWAP7 POP SWAP7 POP SWAP7 POP POP POP POP POP SWAP1 SWAP2 SWAP3 JUMP JUMPDEST PUSH1 0x2 DUP2 DUP2 SLOAD DUP2 LT PUSH2 0x720 JUMPI PUSH0 DUP1 REVERT JUMPDEST SWAP1 PUSH0 MSTORE PUSH1 0x20 PUSH0 KECCAK256 SWAP1 PUSH1 0x6 MUL ADD PUSH0 SWAP2 POP SWAP1 POP DUP1 PUSH0 ADD PUSH0 SWAP1 SLOAD SWAP1 PUSH2 0x100 EXP SWAP1 DIV PUSH20 0xFFFFFFFFFFFFFFFFFFFFFFFFFFFFFFFFFFFFFFFF AND SWAP1 DUP1 PUSH1 0x1 ADD SLOAD SWAP1 DUP1 PUSH1 0x2 ADD DUP1 SLOAD PUSH2 0x76A SWAP1 PUSH2 0x16D5 JUMP JUMPDEST DUP1 PUSH1 0x1F ADD PUSH1 0x20 DUP1 SWAP2 DIV MUL PUSH1 0x20 ADD PUSH1 0x40 MLOAD SWAP1 DUP2 ADD PUSH1 0x40 MSTORE DUP1 SWAP3 SWAP2 SWAP1 DUP2 DUP2 MSTORE PUSH1 0x20 ADD DUP3 DUP1 SLOAD PUSH2 0x796 SWAP1 PUSH2 0x16D5 JUMP JUMPDEST DUP1 ISZERO PUSH2 0x7E1 JUMPI DUP1 PUSH1 0x1F LT PUSH2 0x7B8 JUMPI PUSH2 0x100 DUP1 DUP4 SLOAD DIV MUL DUP4 MSTORE SWAP2 PUSH1 0x20 ADD SWAP2 PUSH2 0x7E1 JUMP JUMPDEST DUP3 ADD SWAP2 SWAP1 PUSH0 MSTORE PUSH1 0x20 PUSH0 KECCAK256 SWAP1 JUMPDEST DUP2 SLOAD DUP2 MSTORE SWAP1 PUSH1 0x1 ADD SWAP1 PUSH1 0x20 ADD DUP1 DUP4 GT PUSH2 0x7C4 JUMPI DUP3 SWAP1 SUB PUSH1 0x1F AND DUP3 ADD SWAP2 JUMPDEST POP POP POP POP POP SWAP1 DUP1 PUSH1 0x3 ADD SLOAD SWAP1 DUP1 PUSH1 0x4 ADD PUSH0 SWAP1 SLOAD SWAP1 PUSH2 0x100 EXP SWAP1 DIV PUSH1 0xFF AND SWAP1 POP DUP6 JUMP JUMPDEST PUSH0 DUP1 PUSH20 0xFFFFFFFFFFFFFFFFFFFFFFFFFFFFFFFFFFFFFFFF AND DUP5 PUSH20 0xFFFFFFFFFFFFFFFFFFFFFFFFFFFFFFFFFFFFFFFF AND SUB PUSH2 0x872 JUMPI PUSH1 0x40 MLOAD PUSH32 0x8C379A000000000000000000000000000000000000000000000000000000000 DUP2 MSTORE PUSH1 0x4 ADD PUSH2 0x869 SWAP1 PUSH2 0x174F JUMP JUMPDEST PUSH1 0x40 MLOAD DUP1 SWAP2 SUB SWAP1 REVERT JUMPDEST PUSH0 DUP4 GT PUSH2 0x8B4 JUMPI PUSH1 0x40 MLOAD PUSH32 0x8C379A000000000000000000000000000000000000000000000000000000000 DUP2 MSTORE PUSH1 0x4 ADD PUSH2 0x8AB SWAP1 PUSH2 0x17DD JUMP JUMPDEST PUSH1 0x40 MLOAD DUP1 SWAP2 SUB SWAP1 REVERT JUMPDEST PUSH0 DUP3 MLOAD GT PUSH2 0x8F7 JUMPI PUSH1 0x40 MLOAD PUSH32 0x8C379A000000000000000000000000000000000000000000000000000000000 DUP2 MSTORE PUSH1 0x4 ADD PUSH2 0x8EE SWAP1 PUSH2 0x186B JUMP JUMPDEST PUSH1 0x40 MLOAD DUP1 SWAP2 SUB SWAP1 REVERT JUMPDEST PUSH0 PUSH1 0x2 PUSH1 0x1 DUP2 PUSH1 0x1 DUP2 SLOAD ADD DUP1 DUP3 SSTORE DUP1 SWAP2 POP POP SUB SWAP1 PUSH0 MSTORE PUSH1 0x20 PUSH0 KECCAK256 SWAP1 PUSH1 0x6 MUL ADD SWAP1 POP DUP5 DUP2 PUSH0 ADD PUSH0 PUSH2 0x100 EXP DUP2 SLOAD DUP2 PUSH20 0xFFFFFFFFFFFFFFFFFFFFFFFFFFFFFFFFFFFFFFFF MUL NOT AND SWAP1 DUP4 PUSH20 0xFFFFFFFFFFFFFFFFFFFFFFFFFFFFFFFFFFFFFFFF AND MUL OR SWAP1 SSTORE POP DUP4 DUP2 PUSH1 0x1 ADD DUP2 SWAP1 SSTORE POP DUP3 DUP2 PUSH1 0x2 ADD SWAP1 DUP2 PUSH2 0x973 SWAP2 SWAP1 PUSH2 0x1A26 JUMP JUMPDEST POP PUSH0 DUP2 PUSH1 0x3 ADD DUP2 SWAP1 SSTORE POP PUSH0 DUP2 PUSH1 0x4 ADD PUSH0 PUSH2 0x100 EXP DUP2 SLOAD DUP2 PUSH1 0xFF MUL NOT AND SWAP1 DUP4 ISZERO ISZERO MUL OR SWAP1 SSTORE POP PUSH1 0x1 PUSH1 0x2 DUP1 SLOAD SWAP1 POP PUSH2 0x9AA SWAP2 SWAP1 PUSH2 0x1AF5 JUMP JUMPDEST SWAP2 POP POP SWAP4 SWAP3 POP POP POP JUMP JUMPDEST PUSH1 0x1 PUSH1 0x20 MSTORE DUP1 PUSH0 MSTORE PUSH1 0x40 PUSH0 KECCAK256 PUSH0 SWAP2 POP SWAP1 POP SLOAD DUP2 JUMP JUMPDEST PUSH0 SLOAD DUP2 JUMP JUMPDEST PUSH0 PUSH1 0x2 DUP1 SLOAD SWAP1 POP DUP3 LT PUSH2 0xA16 JUMPI PUSH1 0x40 MLOAD PUSH32 0x8C379A000000000000000000000000000000000000000000000000000000000 DUP2 MSTORE PUSH1 0x4 ADD PUSH2 0xA0D SWAP1 PUSH2 0x13F2 JUMP JUMPDEST PUSH1 0x40 MLOAD DUP1 SWAP2 SUB SWAP1 REVERT JUMPDEST PUSH0 PUSH1 0x1 PUSH0 CALLER PUSH20 0xFFFFFFFFFFFFFFFFFFFFFFFFFFFFFFFFFFFFFFFF AND PUSH20 0xFFFFFFFFFFFFFFFFFFFFFFFFFFFFFFFFFFFFFFFF AND DUP2 MSTORE PUSH1 0x20 ADD SWAP1 DUP2 MSTORE PUSH1 0x20 ADD PUSH0 KECCAK256 SLOAD GT PUSH2 0xA95 JUMPI PUSH1 0x40 MLOAD PUSH32 0x8C379A000000000000000000000000000000000000000000000000000000000 DUP2 MSTORE PUSH1 0x4 ADD PUSH2 0xA8C SWAP1 PUSH2 0x1B72 JUMP JUMPDEST PUSH1 0x40 MLOAD DUP1 SWAP2 SUB SWAP1 REVERT JUMPDEST PUSH0 PUSH1 0x2 DUP4 DUP2 SLOAD DUP2 LT PUSH2 0xAAA JUMPI PUSH2 0xAA9 PUSH2 0x1410 JUMP JUMPDEST JUMPDEST SWAP1 PUSH0 MSTORE PUSH1 0x20 PUSH0 KECCAK256 SWAP1 PUSH1 0x6 MUL ADD SWAP1 POP DUP1 PUSH1 0x4 ADD PUSH0 SWAP1 SLOAD SWAP1 PUSH2 0x100 EXP SWAP1 DIV PUSH1 0xFF AND ISZERO PUSH2 0xB09 JUMPI PUSH1 0x40 MLOAD PUSH32 0x8C379A000000000000000000000000000000000000000000000000000000000 DUP2 MSTORE PUSH1 0x4 ADD PUSH2 0xB00 SWAP1 PUSH2 0x1487 JUMP JUMPDEST PUSH1 0x40 MLOAD DUP1 SWAP2 SUB SWAP1 REVERT JUMPDEST DUP1 PUSH1 0x5 ADD PUSH0 CALLER PUSH20 0xFFFFFFFFFFFFFFFFFFFFFFFFFFFFFFFFFFFFFFFF AND PUSH20 0xFFFFFFFFFFFFFFFFFFFFFFFFFFFFFFFFFFFFFFFF AND DUP2 MSTORE PUSH1 0x20 ADD SWAP1 DUP2 MSTORE PUSH1 0x20 ADD PUSH0 KECCAK256 PUSH0 SWAP1 SLOAD SWAP1 PUSH2 0x100 EXP SWAP1 DIV PUSH1 0xFF AND ISZERO PUSH2 0xB95 JUMPI PUSH1 0x40 MLOAD PUSH32 0x8C379A000000000000000000000000000000000000000000000000000000000 DUP2 MSTORE PUSH1 0x4 ADD PUSH2 0xB8C SWAP1 PUSH2 0x1BDA JUMP JUMPDEST PUSH1 0x40 MLOAD DUP1 SWAP2 SUB SWAP1 REVERT JUMPDEST PUSH1 0x1 PUSH0 CALLER PUSH20 0xFFFFFFFFFFFFFFFFFFFFFFFFFFFFFFFFFFFFFFFF AND PUSH20 0xFFFFFFFFFFFFFFFFFFFFFFFFFFFFFFFFFFFFFFFF AND DUP2 MSTORE PUSH1 0x20 ADD SWAP1 DUP2 MSTORE PUSH1 0x20 ADD PUSH0 KECCAK256 SLOAD DUP2 PUSH1 0x3 ADD PUSH0 DUP3 DUP3 SLOAD PUSH2 0xBE5 SWAP2 SWAP1 PUSH2 0x1BF8 JUMP JUMPDEST SWAP3 POP POP DUP2 SWAP1 SSTORE POP PUSH1 0x1 DUP2 PUSH1 0x5 ADD PUSH0 CALLER PUSH20 0xFFFFFFFFFFFFFFFFFFFFFFFFFFFFFFFFFFFFFFFF AND PUSH20 0xFFFFFFFFFFFFFFFFFFFFFFFFFFFFFFFFFFFFFFFF AND DUP2 MSTORE PUSH1 0x20 ADD SWAP1 DUP2 MSTORE PUSH1 0x20 ADD PUSH0 KECCAK256 PUSH0 PUSH2 0x100 EXP DUP2 SLOAD DUP2 PUSH1 0xFF MUL NOT AND SWAP1 DUP4 ISZERO ISZERO MUL OR SWAP1 SSTORE POP PUSH1 0x2 PUSH0 SLOAD PUSH2 0xC51 SWAP2 SWAP1 PUSH2 0x14FF JUMP JUMPDEST DUP2 PUSH1 0x3 ADD SLOAD GT DUP1 ISZERO PUSH2 0xC67 JUMPI POP DUP1 PUSH1 0x1 ADD SLOAD SELFBALANCE LT ISZERO JUMPDEST ISZERO PUSH2 0xC77 JUMPI PUSH2 0xC75 DUP4 PUSH2 0x20E JUMP JUMPDEST POP JUMPDEST PUSH1 0x1 SWAP2 POP POP SWAP2 SWAP1 POP JUMP JUMPDEST PUSH0 CALLVALUE GT PUSH2 0xCC3 JUMPI PUSH1 0x40 MLOAD PUSH32 0x8C379A000000000000000000000000000000000000000000000000000000000 DUP2 MSTORE PUSH1 0x4 ADD PUSH2 0xCBA SWAP1 PUSH2 0x1C75 JUMP JUMPDEST PUSH1 0x40 MLOAD DUP1 SWAP2 SUB SWAP1 REVERT JUMPDEST CALLVALUE PUSH1 0x1 PUSH0 CALLER PUSH20 0xFFFFFFFFFFFFFFFFFFFFFFFFFFFFFFFFFFFFFFFF AND PUSH20 0xFFFFFFFFFFFFFFFFFFFFFFFFFFFFFFFFFFFFFFFF AND DUP2 MSTORE PUSH1 0x20 ADD SWAP1 DUP2 MSTORE PUSH1 0x20 ADD PUSH0 KECCAK256 PUSH0 DUP3 DUP3 SLOAD PUSH2 0xD0F SWAP2 SWAP1 PUSH2 0x1BF8 JUMP JUMPDEST SWAP3 POP POP DUP2 SWAP1 SSTORE POP CALLVALUE PUSH0 DUP1 DUP3 DUP3 SLOAD PUSH2 0xD26 SWAP2 SWAP1 PUSH2 0x1BF8 JUMP JUMPDEST SWAP3 POP POP DUP2 SWAP1 SSTORE POP JUMP JUMPDEST PUSH0 PUSH1 0x40 MLOAD SWAP1 POP SWAP1 JUMP JUMPDEST PUSH0 DUP1 REVERT JUMPDEST PUSH0 DUP1 REVERT JUMPDEST PUSH0 DUP2 SWAP1 POP SWAP2 SWAP1 POP JUMP JUMPDEST PUSH2 0xD52 DUP2 PUSH2 0xD40 JUMP JUMPDEST DUP2 EQ PUSH2 0xD5C JUMPI PUSH0 DUP1 REVERT JUMPDEST POP JUMP JUMPDEST PUSH0 DUP2 CALLDATALOAD SWAP1 POP PUSH2 0xD6D DUP2 PUSH2 0xD49 JUMP JUMPDEST SWAP3 SWAP2 POP POP JUMP JUMPDEST PUSH0 PUSH1 0x20 DUP3 DUP5 SUB SLT ISZERO PUSH2 0xD88 JUMPI PUSH2 0xD87 PUSH2 0xD38 JUMP JUMPDEST JUMPDEST PUSH0 PUSH2 0xD95 DUP5 DUP3 DUP6 ADD PUSH2 0xD5F JUMP JUMPDEST SWAP2 POP POP SWAP3 SWAP2 POP POP JUMP JUMPDEST PUSH0 DUP2 ISZERO ISZERO SWAP1 POP SWAP2 SWAP1 POP JUMP JUMPDEST PUSH2 0xDB2 DUP2 PUSH2 0xD9E JUMP JUMPDEST DUP3 MSTORE POP POP JUMP JUMPDEST PUSH0 PUSH1 0x20 DUP3 ADD SWAP1 POP PUSH2 0xDCB PUSH0 DUP4 ADD DUP5 PUSH2 0xDA9 JUMP JUMPDEST SWAP3 SWAP2 POP POP JUMP JUMPDEST PUSH0 DUP2 MLOAD SWAP1 POP SWAP2 SWAP1 POP JUMP JUMPDEST PUSH0 DUP3 DUP3 MSTORE PUSH1 0x20 DUP3 ADD SWAP1 POP SWAP3 SWAP2 POP POP JUMP JUMPDEST PUSH0 DUP2 SWAP1 POP PUSH1 0x20 DUP3 ADD SWAP1 POP SWAP2 SWAP1 POP JUMP JUMPDEST PUSH0 PUSH20 0xFFFFFFFFFFFFFFFFFFFFFFFFFFFFFFFFFFFFFFFF DUP3 AND SWAP1 POP SWAP2 SWAP1 POP JUMP JUMPDEST PUSH0 PUSH2 0xE23 DUP3 PUSH2 0xDFA JUMP JUMPDEST SWAP1 POP SWAP2 SWAP1 POP JUMP JUMPDEST PUSH2 0xE33 DUP2 PUSH2 0xE19 JUMP JUMPDEST DUP3 MSTORE POP POP JUMP JUMPDEST PUSH0 PUSH2 0xE44 DUP4 DUP4 PUSH2 0xE2A JUMP JUMPDEST PUSH1 0x20 DUP4 ADD SWAP1 POP SWAP3 SWAP2 POP POP JUMP JUMPDEST PUSH0 PUSH1 0x20 DUP3 ADD SWAP1 POP SWAP2 SWAP1 POP JUMP JUMPDEST PUSH0 PUSH2 0xE66 DUP3 PUSH2 0xDD1 JUMP JUMPDEST PUSH2 0xE70 DUP2 DUP6 PUSH2 0xDDB JUMP JUMPDEST SWAP4 POP PUSH2 0xE7B DUP4 PUSH2 0xDEB JUMP JUMPDEST DUP1 PUSH0 JUMPDEST DUP4 DUP2 LT ISZERO PUSH2 0xEAB JUMPI DUP2 MLOAD PUSH2 0xE92 DUP9 DUP3 PUSH2 0xE39 JUMP JUMPDEST SWAP8 POP PUSH2 0xE9D DUP4 PUSH2 0xE50 JUMP JUMPDEST SWAP3 POP POP PUSH1 0x1 DUP2 ADD SWAP1 POP PUSH2 0xE7E JUMP JUMPDEST POP DUP6 SWAP4 POP POP POP POP SWAP3 SWAP2 POP POP JUMP JUMPDEST PUSH0 DUP2 MLOAD SWAP1 POP SWAP2 SWAP1 POP JUMP JUMPDEST PUSH0 DUP3 DUP3 MSTORE PUSH1 0x20 DUP3 ADD SWAP1 POP SWAP3 SWAP2 POP POP JUMP JUMPDEST PUSH0 DUP2 SWAP1 POP PUSH1 0x20 DUP3 ADD SWAP1 POP SWAP2 SWAP1 POP JUMP JUMPDEST PUSH2 0xEEA DUP2 PUSH2 0xD40 JUMP JUMPDEST DUP3 MSTORE POP POP JUMP JUMPDEST PUSH0 PUSH2 0xEFB DUP4 DUP4 PUSH2 0xEE1 JUMP JUMPDEST PUSH1 0x20 DUP4 ADD SWAP1 POP SWAP3 SWAP2 POP POP JUMP JUMPDEST PUSH0 PUSH1 0x20 DUP3 ADD SWAP1 POP SWAP2 SWAP1 POP JUMP JUMPDEST PUSH0 PUSH2 0xF1D DUP3 PUSH2 0xEB8 JUMP JUMPDEST PUSH2 0xF27 DUP2 DUP6 PUSH2 0xEC2 JUMP JUMPDEST SWAP4 POP PUSH2 0xF32 DUP4 PUSH2 0xED2 JUMP JUMPDEST DUP1 PUSH0 JUMPDEST DUP4 DUP2 LT ISZERO PUSH2 0xF62 JUMPI DUP2 MLOAD PUSH2 0xF49 DUP9 DUP3 PUSH2 0xEF0 JUMP JUMPDEST SWAP8 POP PUSH2 0xF54 DUP4 PUSH2 0xF07 JUMP JUMPDEST SWAP3 POP POP PUSH1 0x1 DUP2 ADD SWAP1 POP PUSH2 0xF35 JUMP JUMPDEST POP DUP6 SWAP4 POP POP POP POP SWAP3 SWAP2 POP POP JUMP JUMPDEST PUSH0 DUP2 MLOAD SWAP1 POP SWAP2 SWAP1 POP JUMP JUMPDEST PUSH0 DUP3 DUP3 MSTORE PUSH1 0x20 DUP3 ADD SWAP1 POP SWAP3 SWAP2 POP POP JUMP JUMPDEST PUSH0 DUP2 SWAP1 POP PUSH1 0x20 DUP3 ADD SWAP1 POP SWAP2 SWAP1 POP JUMP JUMPDEST PUSH0 DUP2 MLOAD SWAP1 POP SWAP2 SWAP1 POP JUMP JUMPDEST PUSH0 DUP3 DUP3 MSTORE PUSH1 0x20 DUP3 ADD SWAP1 POP SWAP3 SWAP2 POP POP JUMP JUMPDEST DUP3 DUP2 DUP4 MCOPY PUSH0 DUP4 DUP4 ADD MSTORE POP POP POP JUMP JUMPDEST PUSH0 PUSH1 0x1F NOT PUSH1 0x1F DUP4 ADD AND SWAP1 POP SWAP2 SWAP1 POP JUMP JUMPDEST PUSH0 PUSH2 0xFDA DUP3 PUSH2 0xF98 JUMP JUMPDEST PUSH2 0xFE4 DUP2 DUP6 PUSH2 0xFA2 JUMP JUMPDEST SWAP4 POP PUSH2 0xFF4 DUP2 DUP6 PUSH1 0x20 DUP7 ADD PUSH2 0xFB2 JUMP JUMPDEST PUSH2 0xFFD DUP2 PUSH2 0xFC0 JUMP JUMPDEST DUP5 ADD SWAP2 POP POP SWAP3 SWAP2 POP POP JUMP JUMPDEST PUSH0 PUSH2 0x1013 DUP4 DUP4 PUSH2 0xFD0 JUMP JUMPDEST SWAP1 POP SWAP3 SWAP2 POP POP JUMP JUMPDEST PUSH0 PUSH1 0x20 DUP3 ADD SWAP1 POP SWAP2 SWAP1 POP JUMP JUMPDEST PUSH0 PUSH2 0x1031 DUP3 PUSH2 0xF6F JUMP JUMPDEST PUSH2 0x103B DUP2 DUP6 PUSH2 0xF79 JUMP JUMPDEST SWAP4 POP DUP4 PUSH1 0x20 DUP3 MUL DUP6 ADD PUSH2 0x104D DUP6 PUSH2 0xF89 JUMP JUMPDEST DUP1 PUSH0 JUMPDEST DUP6 DUP2 LT ISZERO PUSH2 0x1088 JUMPI DUP5 DUP5 SUB DUP10 MSTORE DUP2 MLOAD PUSH2 0x1069 DUP6 DUP3 PUSH2 0x1008 JUMP JUMPDEST SWAP5 POP PUSH2 0x1074 DUP4 PUSH2 0x101B JUMP JUMPDEST SWAP3 POP PUSH1 0x20 DUP11 ADD SWAP10 POP POP PUSH1 0x1 DUP2 ADD SWAP1 POP PUSH2 0x1050 JUMP JUMPDEST POP DUP3 SWAP8 POP DUP8 SWAP6 POP POP POP POP POP POP SWAP3 SWAP2 POP POP JUMP JUMPDEST PUSH0 PUSH1 0x60 DUP3 ADD SWAP1 POP DUP2 DUP2 SUB PUSH0 DUP4 ADD MSTORE PUSH2 0x10B2 DUP2 DUP7 PUSH2 0xE5C JUMP JUMPDEST SWAP1 POP DUP2 DUP2 SUB PUSH1 0x20 DUP4 ADD MSTORE PUSH2 0x10C6 DUP2 DUP6 PUSH2 0xF13 JUMP JUMPDEST SWAP1 POP DUP2 DUP2 SUB PUSH1 0x40 DUP4 ADD MSTORE PUSH2 0x10DA DUP2 DUP5 PUSH2 0x1027 JUMP JUMPDEST SWAP1 POP SWAP5 SWAP4 POP POP POP POP JUMP JUMPDEST PUSH2 0x10ED DUP2 PUSH2 0xE19 JUMP JUMPDEST DUP3 MSTORE POP POP JUMP JUMPDEST PUSH2 0x10FC DUP2 PUSH2 0xD40 JUMP JUMPDEST DUP3 MSTORE POP POP JUMP JUMPDEST PUSH0 DUP3 DUP3 MSTORE PUSH1 0x20 DUP3 ADD SWAP1 POP SWAP3 SWAP2 POP POP JUMP JUMPDEST PUSH0 PUSH2 0x111C DUP3 PUSH2 0xF98 JUMP JUMPDEST PUSH2 0x1126 DUP2 DUP6 PUSH2 0x1102 JUMP JUMPDEST SWAP4 POP PUSH2 0x1136 DUP2 DUP6 PUSH1 0x20 DUP7 ADD PUSH2 0xFB2 JUMP JUMPDEST PUSH2 0x113F DUP2 PUSH2 0xFC0 JUMP JUMPDEST DUP5 ADD SWAP2 POP POP SWAP3 SWAP2 POP POP JUMP JUMPDEST PUSH0 PUSH1 0xA0 DUP3 ADD SWAP1 POP PUSH2 0x115D PUSH0 DUP4 ADD DUP9 PUSH2 0x10E4 JUMP JUMPDEST PUSH2 0x116A PUSH1 0x20 DUP4 ADD DUP8 PUSH2 0x10F3 JUMP JUMPDEST DUP2 DUP2 SUB PUSH1 0x40 DUP4 ADD MSTORE PUSH2 0x117C DUP2 DUP7 PUSH2 0x1112 JUMP JUMPDEST SWAP1 POP PUSH2 0x118B PUSH1 0x60 DUP4 ADD DUP6 PUSH2 0x10F3 JUMP JUMPDEST PUSH2 0x1198 PUSH1 0x80 DUP4 ADD DUP5 PUSH2 0xDA9 JUMP JUMPDEST SWAP7 SWAP6 POP POP POP POP POP POP JUMP JUMPDEST PUSH2 0x11AB DUP2 PUSH2 0xE19 JUMP JUMPDEST DUP2 EQ PUSH2 0x11B5 JUMPI PUSH0 DUP1 REVERT JUMPDEST POP JUMP JUMPDEST PUSH0 DUP2 CALLDATALOAD SWAP1 POP PUSH2 0x11C6 DUP2 PUSH2 0x11A2 JUMP JUMPDEST SWAP3 SWAP2 POP POP JUMP JUMPDEST PUSH0 DUP1 REVERT JUMPDEST PUSH0 DUP1 REVERT JUMPDEST PUSH32 0x4E487B7100000000000000000000000000000000000000000000000000000000 PUSH0 MSTORE PUSH1 0x41 PUSH1 0x4 MSTORE PUSH1 0x24 PUSH0 REVERT JUMPDEST PUSH2 0x120A DUP3 PUSH2 0xFC0 JUMP JUMPDEST DUP2 ADD DUP2 DUP2 LT PUSH8 0xFFFFFFFFFFFFFFFF DUP3 GT OR ISZERO PUSH2 0x1229 JUMPI PUSH2 0x1228 PUSH2 0x11D4 JUMP JUMPDEST JUMPDEST DUP1 PUSH1 0x40 MSTORE POP POP POP JUMP JUMPDEST PUSH0 PUSH2 0x123B PUSH2 0xD2F JUMP JUMPDEST SWAP1 POP PUSH2 0x1247 DUP3 DUP3 PUSH2 0x1201 JUMP JUMPDEST SWAP2 SWAP1 POP JUMP JUMPDEST PUSH0 PUSH8 0xFFFFFFFFFFFFFFFF DUP3 GT ISZERO PUSH2 0x1266 JUMPI PUSH2 0x1265 PUSH2 0x11D4 JUMP JUMPDEST JUMPDEST PUSH2 0x126F DUP3 PUSH2 0xFC0 JUMP JUMPDEST SWAP1 POP PUSH1 0x20 DUP2 ADD SWAP1 POP SWAP2 SWAP1 POP JUMP JUMPDEST DUP3 DUP2 DUP4 CALLDATACOPY PUSH0 DUP4 DUP4 ADD MSTORE POP POP POP JUMP JUMPDEST PUSH0 PUSH2 0x129C PUSH2 0x1297 DUP5 PUSH2 0x124C JUMP JUMPDEST PUSH2 0x1232 JUMP JUMPDEST SWAP1 POP DUP3 DUP2 MSTORE PUSH1 0x20 DUP2 ADD DUP5 DUP5 DUP5 ADD GT ISZERO PUSH2 0x12B8 JUMPI PUSH2 0x12B7 PUSH2 0x11D0 JUMP JUMPDEST JUMPDEST PUSH2 0x12C3 DUP5 DUP3 DUP6 PUSH2 0x127C JUMP JUMPDEST POP SWAP4 SWAP3 POP POP POP JUMP JUMPDEST PUSH0 DUP3 PUSH1 0x1F DUP4 ADD SLT PUSH2 0x12DF JUMPI PUSH2 0x12DE PUSH2 0x11CC JUMP JUMPDEST JUMPDEST DUP2 CALLDATALOAD PUSH2 0x12EF DUP5 DUP3 PUSH1 0x20 DUP7 ADD PUSH2 0x128A JUMP JUMPDEST SWAP2 POP POP SWAP3 SWAP2 POP POP JUMP JUMPDEST PUSH0 DUP1 PUSH0 PUSH1 0x60 DUP5 DUP7 SUB SLT ISZERO PUSH2 0x130F JUMPI PUSH2 0x130E PUSH2 0xD38 JUMP JUMPDEST JUMPDEST PUSH0 PUSH2 0x131C DUP7 DUP3 DUP8 ADD PUSH2 0x11B8 JUMP JUMPDEST SWAP4 POP POP PUSH1 0x20 PUSH2 0x132D DUP7 DUP3 DUP8 ADD PUSH2 0xD5F JUMP JUMPDEST SWAP3 POP POP PUSH1 0x40 DUP5 ADD CALLDATALOAD PUSH8 0xFFFFFFFFFFFFFFFF DUP2 GT ISZERO PUSH2 0x134E JUMPI PUSH2 0x134D PUSH2 0xD3C JUMP JUMPDEST JUMPDEST PUSH2 0x135A DUP7 DUP3 DUP8 ADD PUSH2 0x12CB JUMP JUMPDEST SWAP2 POP POP SWAP3 POP SWAP3 POP SWAP3 JUMP JUMPDEST PUSH0 PUSH1 0x20 DUP3 ADD SWAP1 POP PUSH2 0x1377 PUSH0 DUP4 ADD DUP5 PUSH2 0x10F3 JUMP JUMPDEST SWAP3 SWAP2 POP POP JUMP JUMPDEST PUSH0 PUSH1 0x20 DUP3 DUP5 SUB SLT ISZERO PUSH2 0x1392 JUMPI PUSH2 0x1391 PUSH2 0xD38 JUMP JUMPDEST JUMPDEST PUSH0 PUSH2 0x139F DUP5 DUP3 DUP6 ADD PUSH2 0x11B8 JUMP JUMPDEST SWAP2 POP POP SWAP3 SWAP2 POP POP JUMP JUMPDEST PUSH32 0x496E76616C696420726571756573742049440000000000000000000000000000 PUSH0 DUP3 ADD MSTORE POP JUMP JUMPDEST PUSH0 PUSH2 0x13DC PUSH1 0x12 DUP4 PUSH2 0x1102 JUMP JUMPDEST SWAP2 POP PUSH2 0x13E7 DUP3 PUSH2 0x13A8 JUMP JUMPDEST PUSH1 0x20 DUP3 ADD SWAP1 POP SWAP2 SWAP1 POP JUMP JUMPDEST PUSH0 PUSH1 0x20 DUP3 ADD SWAP1 POP DUP2 DUP2 SUB PUSH0 DUP4 ADD MSTORE PUSH2 0x1409 DUP2 PUSH2 0x13D0 JUMP JUMPDEST SWAP1 POP SWAP2 SWAP1 POP JUMP JUMPDEST PUSH32 0x4E487B7100000000000000000000000000000000000000000000000000000000 PUSH0 MSTORE PUSH1 0x32 PUSH1 0x4 MSTORE PUSH1 0x24 PUSH0 REVERT JUMPDEST PUSH32 0x5265717565737420616C72656164792066696E616C697A656400000000000000 PUSH0 DUP3 ADD MSTORE POP JUMP JUMPDEST PUSH0 PUSH2 0x1471 PUSH1 0x19 DUP4 PUSH2 0x1102 JUMP JUMPDEST SWAP2 POP PUSH2 0x147C DUP3 PUSH2 0x143D JUMP JUMPDEST PUSH1 0x20 DUP3 ADD SWAP1 POP SWAP2 SWAP1 POP JUMP JUMPDEST PUSH0 PUSH1 0x20 DUP3 ADD SWAP1 POP DUP2 DUP2 SUB PUSH0 DUP4 ADD MSTORE PUSH2 0x149E DUP2 PUSH2 0x1465 JUMP JUMPDEST SWAP1 POP SWAP2 SWAP1 POP JUMP JUMPDEST PUSH32 0x4E487B7100000000000000000000000000000000000000000000000000000000 PUSH0 MSTORE PUSH1 0x12 PUSH1 0x4 MSTORE PUSH1 0x24 PUSH0 REVERT JUMPDEST PUSH32 0x4E487B7100000000000000000000000000000000000000000000000000000000 PUSH0 MSTORE PUSH1 0x11 PUSH1 0x4 MSTORE PUSH1 0x24 PUSH0 REVERT JUMPDEST PUSH0 PUSH2 0x1509 DUP3 PUSH2 0xD40 JUMP JUMPDEST SWAP2 POP PUSH2 0x1514 DUP4 PUSH2 0xD40 JUMP JUMPDEST SWAP3 POP DUP3 PUSH2 0x1524 JUMPI PUSH2 0x1523 PUSH2 0x14A5 JUMP JUMPDEST JUMPDEST DUP3 DUP3 DIV SWAP1 POP SWAP3 SWAP2 POP POP JUMP JUMPDEST PUSH32 0x496E73756666696369656E7420766F7465730000000000000000000000000000 PUSH0 DUP3 ADD MSTORE POP JUMP JUMPDEST PUSH0 PUSH2 0x1563 PUSH1 0x12 DUP4 PUSH2 0x1102 JUMP JUMPDEST SWAP2 POP PUSH2 0x156E DUP3 PUSH2 0x152F JUMP JUMPDEST PUSH1 0x20 DUP3 ADD SWAP1 POP SWAP2 SWAP1 POP JUMP JUMPDEST PUSH0 PUSH1 0x20 DUP3 ADD SWAP1 POP DUP2 DUP2 SUB PUSH0 DUP4 ADD MSTORE PUSH2 0x1590 DUP2 PUSH2 0x1557 JUMP JUMPDEST SWAP1 POP SWAP2 SWAP1 POP JUMP JUMPDEST PUSH32 0x496E73756666696369656E7420636F6E74726163742062616C616E6365000000 PUSH0 DUP3 ADD MSTORE POP JUMP JUMPDEST PUSH0 PUSH2 0x15CB PUSH1 0x1D DUP4 PUSH2 0x1102 JUMP JUMPDEST SWAP2 POP PUSH2 0x15D6 DUP3 PUSH2 0x1597 JUMP JUMPDEST PUSH1 0x20 DUP3 ADD SWAP1 POP SWAP2 SWAP1 POP JUMP JUMPDEST PUSH0 PUSH1 0x20 DUP3 ADD SWAP1 POP DUP2 DUP2 SUB PUSH0 DUP4 ADD MSTORE PUSH2 0x15F8 DUP2 PUSH2 0x15BF JUMP JUMPDEST SWAP1 POP SWAP2 SWAP1 POP JUMP JUMPDEST PUSH0 DUP2 SWAP1 POP SWAP3 SWAP2 POP POP JUMP JUMPDEST POP JUMP JUMPDEST PUSH0 PUSH2 0x1617 PUSH0 DUP4 PUSH2 0x15FF JUMP JUMPDEST SWAP2 POP PUSH2 0x1622 DUP3 PUSH2 0x1609 JUMP JUMPDEST PUSH0 DUP3 ADD SWAP1 POP SWAP2 SWAP1 POP JUMP JUMPDEST PUSH0 PUSH2 0x1636 DUP3 PUSH2 0x160C JUMP JUMPDEST SWAP2 POP DUP2 SWAP1 POP SWAP2 SWAP1 POP JUMP JUMPDEST PUSH32 0x5472616E73666572206661696C65640000000000000000000000000000000000 PUSH0 DUP3 ADD MSTORE POP JUMP JUMPDEST PUSH0 PUSH2 0x1674 PUSH1 0xF DUP4 PUSH2 0x1102 JUMP JUMPDEST SWAP2 POP PUSH2 0x167F DUP3 PUSH2 0x1640 JUMP JUMPDEST PUSH1 0x20 DUP3 ADD SWAP1 POP SWAP2 SWAP1 POP JUMP JUMPDEST PUSH0 PUSH1 0x20 DUP3 ADD SWAP1 POP DUP2 DUP2 SUB PUSH0 DUP4 ADD MSTORE PUSH2 0x16A1 DUP2 PUSH2 0x1668 JUMP JUMPDEST SWAP1 POP SWAP2 SWAP1 POP JUMP JUMPDEST PUSH32 0x4E487B7100000000000000000000000000000000000000000000000000000000 PUSH0 MSTORE PUSH1 0x22 PUSH1 0x4 MSTORE PUSH1 0x24 PUSH0 REVERT JUMPDEST PUSH0 PUSH1 0x2 DUP3 DIV SWAP1 POP PUSH1 0x1 DUP3 AND DUP1 PUSH2 0x16EC JUMPI PUSH1 0x7F DUP3 AND SWAP2 POP JUMPDEST PUSH1 0x20 DUP3 LT DUP2 SUB PUSH2 0x16FF JUMPI PUSH2 0x16FE PUSH2 0x16A8 JUMP JUMPDEST JUMPDEST POP SWAP2 SWAP1 POP JUMP JUMPDEST PUSH32 0x496E76616C69642070726F6A6563742061646472657373000000000000000000 PUSH0 DUP3 ADD MSTORE POP JUMP JUMPDEST PUSH0 PUSH2 0x1739 PUSH1 0x17 DUP4 PUSH2 0x1102 JUMP JUMPDEST SWAP2 POP PUSH2 0x1744 DUP3 PUSH2 0x1705 JUMP JUMPDEST PUSH1 0x20 DUP3 ADD SWAP1 POP SWAP2 SWAP1 POP JUMP JUMPDEST PUSH0 PUSH1 0x20 DUP3 ADD SWAP1 POP DUP2 DUP2 SUB PUSH0 DUP4 ADD MSTORE PUSH2 0x1766 DUP2 PUSH2 0x172D JUMP JUMPDEST SWAP1 POP SWAP2 SWAP1 POP JUMP JUMPDEST PUSH32 0x52657175657374656420616D6F756E74206D7573742062652067726561746572 PUSH0 DUP3 ADD MSTORE PUSH32 0x207468616E203000000000000000000000000000000000000000000000000000 PUSH1 0x20 DUP3 ADD MSTORE POP JUMP JUMPDEST PUSH0 PUSH2 0x17C7 PUSH1 0x27 DUP4 PUSH2 0x1102 JUMP JUMPDEST SWAP2 POP PUSH2 0x17D2 DUP3 PUSH2 0x176D JUMP JUMPDEST PUSH1 0x40 DUP3 ADD SWAP1 POP SWAP2 SWAP1 POP JUMP JUMPDEST PUSH0 PUSH1 0x20 DUP3 ADD SWAP1 POP DUP2 DUP2 SUB PUSH0 DUP4 ADD MSTORE PUSH2 0x17F4 DUP2 PUSH2 0x17BB JUMP JUMPDEST SWAP1 POP SWAP2 SWAP1 POP JUMP JUMPDEST PUSH32 0x50726F6A656374206465736372697074696F6E2063616E6E6F7420626520656D PUSH0 DUP3 ADD MSTORE PUSH32 0x7074790000000000000000000000000000000000000000000000000000000000 PUSH1 0x20 DUP3 ADD MSTORE POP JUMP JUMPDEST PUSH0 PUSH2 0x1855 PUSH1 0x23 DUP4 PUSH2 0x1102 JUMP JUMPDEST SWAP2 POP PUSH2 0x1860 DUP3 PUSH2 0x17FB JUMP JUMPDEST PUSH1 0x40 DUP3 ADD SWAP1 POP SWAP2 SWAP1 POP JUMP JUMPDEST PUSH0 PUSH1 0x20 DUP3 ADD SWAP1 POP DUP2 DUP2 SUB PUSH0 DUP4 ADD MSTORE PUSH2 0x1882 DUP2 PUSH2 0x1849 JUMP JUMPDEST SWAP1 POP SWAP2 SWAP1 POP JUMP JUMPDEST PUSH0 DUP2 SWAP1 POP DUP2 PUSH0 MSTORE PUSH1 0x20 PUSH0 KECCAK256 SWAP1 POP SWAP2 SWAP1 POP JUMP JUMPDEST PUSH0 PUSH1 0x20 PUSH1 0x1F DUP4 ADD DIV SWAP1 POP SWAP2 SWAP1 POP JUMP JUMPDEST PUSH0 DUP3 DUP3 SHL SWAP1 POP SWAP3 SWAP2 POP POP JUMP JUMPDEST PUSH0 PUSH1 0x8 DUP4 MUL PUSH2 0x18E5 PUSH32 0xFFFFFFFFFFFFFFFFFFFFFFFFFFFFFFFFFFFFFFFFFFFFFFFFFFFFFFFFFFFFFFFF DUP3 PUSH2 0x18AA JUMP JUMPDEST PUSH2 0x18EF DUP7 DUP4 PUSH2 0x18AA JUMP JUMPDEST SWAP6 POP DUP1 NOT DUP5 AND SWAP4 POP DUP1 DUP7 AND DUP5 OR SWAP3 POP POP POP SWAP4 SWAP3 POP POP POP JUMP JUMPDEST PUSH0 DUP2 SWAP1 POP SWAP2 SWAP1 POP JUMP JUMPDEST PUSH0 PUSH2 0x192A PUSH2 0x1925 PUSH2 0x1920 DUP5 PUSH2 0xD40 JUMP JUMPDEST PUSH2 0x1907 JUMP JUMPDEST PUSH2 0xD40 JUMP JUMPDEST SWAP1 POP SWAP2 SWAP1 POP JUMP JUMPDEST PUSH0 DUP2 SWAP1 POP SWAP2 SWAP1 POP JUMP JUMPDEST PUSH2 0x1943 DUP4 PUSH2 0x1910 JUMP JUMPDEST PUSH2 0x1957 PUSH2 0x194F DUP3 PUSH2 0x1931 JUMP JUMPDEST DUP5 DUP5 SLOAD PUSH2 0x18B6 JUMP JUMPDEST DUP3 SSTORE POP POP POP POP JUMP JUMPDEST PUSH0 SWAP1 JUMP JUMPDEST PUSH2 0x196B PUSH2 0x195F JUMP JUMPDEST PUSH2 0x1976 DUP2 DUP5 DUP5 PUSH2 0x193A JUMP JUMPDEST POP POP POP JUMP JUMPDEST JUMPDEST DUP2 DUP2 LT ISZERO PUSH2 0x1999 JUMPI PUSH2 0x198E PUSH0 DUP3 PUSH2 0x1963 JUMP JUMPDEST PUSH1 0x1 DUP2 ADD SWAP1 POP PUSH2 0x197C JUMP JUMPDEST POP POP JUMP JUMPDEST PUSH1 0x1F DUP3 GT ISZERO PUSH2 0x19DE JUMPI PUSH2 0x19AF DUP2 PUSH2 0x1889 JUMP JUMPDEST PUSH2 0x19B8 DUP5 PUSH2 0x189B JUMP JUMPDEST DUP2 ADD PUSH1 0x20 DUP6 LT ISZERO PUSH2 0x19C7 JUMPI DUP2 SWAP1 POP JUMPDEST PUSH2 0x19DB PUSH2 0x19D3 DUP6 PUSH2 0x189B JUMP JUMPDEST DUP4 ADD DUP3 PUSH2 0x197B JUMP JUMPDEST POP POP JUMPDEST POP POP POP JUMP JUMPDEST PUSH0 DUP3 DUP3 SHR SWAP1 POP SWAP3 SWAP2 POP POP JUMP JUMPDEST PUSH0 PUSH2 0x19FE PUSH0 NOT DUP5 PUSH1 0x8 MUL PUSH2 0x19E3 JUMP JUMPDEST NOT DUP1 DUP4 AND SWAP2 POP POP SWAP3 SWAP2 POP POP JUMP JUMPDEST PUSH0 PUSH2 0x1A16 DUP4 DUP4 PUSH2 0x19EF JUMP JUMPDEST SWAP2 POP DUP3 PUSH1 0x2 MUL DUP3 OR SWAP1 POP SWAP3 SWAP2 POP POP JUMP JUMPDEST PUSH2 0x1A2F DUP3 PUSH2 0xF98 JUMP JUMPDEST PUSH8 0xFFFFFFFFFFFFFFFF DUP2 GT ISZERO PUSH2 0x1A48 JUMPI PUSH2 0x1A47 PUSH2 0x11D4 JUMP JUMPDEST JUMPDEST PUSH2 0x1A52 DUP3 SLOAD PUSH2 0x16D5 JUMP JUMPDEST PUSH2 0x1A5D DUP3 DUP3 DUP6 PUSH2 0x199D JUMP JUMPDEST PUSH0 PUSH1 0x20 SWAP1 POP PUSH1 0x1F DUP4 GT PUSH1 0x1 DUP2 EQ PUSH2 0x1A8E JUMPI PUSH0 DUP5 ISZERO PUSH2 0x1A7C JUMPI DUP3 DUP8 ADD MLOAD SWAP1 POP JUMPDEST PUSH2 0x1A86 DUP6 DUP3 PUSH2 0x1A0B JUMP JUMPDEST DUP7 SSTORE POP PUSH2 0x1AED JUMP JUMPDEST PUSH1 0x1F NOT DUP5 AND PUSH2 0x1A9C DUP7 PUSH2 0x1889 JUMP JUMPDEST PUSH0 JUMPDEST DUP3 DUP2 LT ISZERO PUSH2 0x1AC3 JUMPI DUP5 DUP10 ADD MLOAD DUP3 SSTORE PUSH1 0x1 DUP3 ADD SWAP2 POP PUSH1 0x20 DUP6 ADD SWAP5 POP PUSH1 0x20 DUP2 ADD SWAP1 POP PUSH2 0x1A9E JUMP JUMPDEST DUP7 DUP4 LT ISZERO PUSH2 0x1AE0 JUMPI DUP5 DUP10 ADD MLOAD PUSH2 0x1ADC PUSH1 0x1F DUP10 AND DUP3 PUSH2 0x19EF JUMP JUMPDEST DUP4 SSTORE POP JUMPDEST PUSH1 0x1 PUSH1 0x2 DUP9 MUL ADD DUP9 SSTORE POP POP POP JUMPDEST POP POP POP POP POP POP JUMP JUMPDEST PUSH0 PUSH2 0x1AFF DUP3 PUSH2 0xD40 JUMP JUMPDEST SWAP2 POP PUSH2 0x1B0A DUP4 PUSH2 0xD40 JUMP JUMPDEST SWAP3 POP DUP3 DUP3 SUB SWAP1 POP DUP2 DUP2 GT ISZERO PUSH2 0x1B22 JUMPI PUSH2 0x1B21 PUSH2 0x14D2 JUMP JUMPDEST JUMPDEST SWAP3 SWAP2 POP POP JUMP JUMPDEST PUSH32 0x4E6F20766F74696E6720706F7765720000000000000000000000000000000000 PUSH0 DUP3 ADD MSTORE POP JUMP JUMPDEST PUSH0 PUSH2 0x1B5C PUSH1 0xF DUP4 PUSH2 0x1102 JUMP JUMPDEST SWAP2 POP PUSH2 0x1B67 DUP3 PUSH2 0x1B28 JUMP JUMPDEST PUSH1 0x20 DUP3 ADD SWAP1 POP SWAP2 SWAP1 POP JUMP JUMPDEST PUSH0 PUSH1 0x20 DUP3 ADD SWAP1 POP DUP2 DUP2 SUB PUSH0 DUP4 ADD MSTORE PUSH2 0x1B89 DUP2 PUSH2 0x1B50 JUMP JUMPDEST SWAP1 POP SWAP2 SWAP1 POP JUMP JUMPDEST PUSH32 0x416C726561647920766F74656400000000000000000000000000000000000000 PUSH0 DUP3 ADD MSTORE POP JUMP JUMPDEST PUSH0 PUSH2 0x1BC4 PUSH1 0xD DUP4 PUSH2 0x1102 JUMP JUMPDEST SWAP2 POP PUSH2 0x1BCF DUP3 PUSH2 0x1B90 JUMP JUMPDEST PUSH1 0x20 DUP3 ADD SWAP1 POP SWAP2 SWAP1 POP JUMP JUMPDEST PUSH0 PUSH1 0x20 DUP3 ADD SWAP1 POP DUP2 DUP2 SUB PUSH0 DUP4 ADD MSTORE PUSH2 0x1BF1 DUP2 PUSH2 0x1BB8 JUMP JUMPDEST SWAP1 POP SWAP2 SWAP1 POP JUMP JUMPDEST PUSH0 PUSH2 0x1C02 DUP3 PUSH2 0xD40 JUMP JUMPDEST SWAP2 POP PUSH2 0x1C0D DUP4 PUSH2 0xD40 JUMP JUMPDEST SWAP3 POP DUP3 DUP3 ADD SWAP1 POP DUP1 DUP3 GT ISZERO PUSH2 0x1C25 JUMPI PUSH2 0x1C24 PUSH2 0x14D2 JUMP JUMPDEST JUMPDEST SWAP3 SWAP2 POP POP JUMP JUMPDEST PUSH32 0x446F6E6174696F6E206D7573742062652067726561746572207468616E203000 PUSH0 DUP3 ADD MSTORE POP JUMP JUMPDEST PUSH0 PUSH2 0x1C5F PUSH1 0x1F DUP4 PUSH2 0x1102 JUMP JUMPDEST SWAP2 POP PUSH2 0x1C6A DUP3 PUSH2 0x1C2B JUMP JUMPDEST PUSH1 0x20 DUP3 ADD SWAP1 POP SWAP2 SWAP1 POP JUMP JUMPDEST PUSH0 PUSH1 0x20 DUP3 ADD SWAP1 POP DUP2 DUP2 SUB PUSH0 DUP4 ADD MSTORE PUSH2 0x1C8C DUP2 PUSH2 0x1C53 JUMP JUMPDEST SWAP1 POP SWAP2 SWAP1 POP JUMP INVALID LOG2 PUSH5 0x6970667358 0x22 SLT KECCAK256 KECCAK256 0x2A 0xD2 DUP2 0x4E 0xE2 LT 0xDD 0x2C 0xA9 PUSH25 0x8324599409393ADD98ED7740D8FD451285A3B4881D64736F6C PUSH4 0x4300081A STOP CALLER "
				},
				"gasEstimates": {
					"creation": {
						"codeDepositCost": "1473800",
						"executionCost": "1539",
						"totalCost": "1475339"
					},
					"external": {
						"donate()": "infinite",
						"donorVotingPower(address)": "2802",
						"finalizeRequest(uint256)": "infinite",
						"fundingRequests(uint256)": "infinite",
						"getFundingHistory()": "infinite",
						"submitFundingRequest(address,uint256,string)": "infinite",
						"totalDonations()": "2446",
						"voteOnRequest(uint256)": "infinite"
					}
				},
				"methodIdentifiers": {
					"donate()": "ed88c68e",
					"donorVotingPower(address)": "d4971f61",
					"finalizeRequest(uint256)": "03441006",
					"fundingRequests(uint256)": "ba561486",
					"getFundingHistory()": "b1e92059",
					"submitFundingRequest(address,uint256,string)": "c28a3309",
					"totalDonations()": "de2ed893",
					"voteOnRequest(uint256)": "e2274075"
				}
			},
			"storageLayout": {
				"storage": [
					{
						"astId": 18,
						"contract": "contracts/DecentralizedCharityFund.sol:DecentralizedCharityFund",
						"label": "totalDonations",
						"offset": 0,
						"slot": "0",
						"type": "t_uint256"
					},
					{
						"astId": 22,
						"contract": "contracts/DecentralizedCharityFund.sol:DecentralizedCharityFund",
						"label": "donorVotingPower",
						"offset": 0,
						"slot": "1",
						"type": "t_mapping(t_address,t_uint256)"
					},
					{
						"astId": 26,
						"contract": "contracts/DecentralizedCharityFund.sol:DecentralizedCharityFund",
						"label": "fundingRequests",
						"offset": 0,
						"slot": "2",
						"type": "t_array(t_struct(FundingRequest)16_storage)dyn_storage"
					}
				],
				"types": {
					"t_address": {
						"encoding": "inplace",
						"label": "address",
						"numberOfBytes": "20"
					},
					"t_array(t_struct(FundingRequest)16_storage)dyn_storage": {
						"base": "t_struct(FundingRequest)16_storage",
						"encoding": "dynamic_array",
						"label": "struct DecentralizedCharityFund.FundingRequest[]",
						"numberOfBytes": "32"
					},
					"t_bool": {
						"encoding": "inplace",
						"label": "bool",
						"numberOfBytes": "1"
					},
					"t_mapping(t_address,t_bool)": {
						"encoding": "mapping",
						"key": "t_address",
						"label": "mapping(address => bool)",
						"numberOfBytes": "32",
						"value": "t_bool"
					},
					"t_mapping(t_address,t_uint256)": {
						"encoding": "mapping",
						"key": "t_address",
						"label": "mapping(address => uint256)",
						"numberOfBytes": "32",
						"value": "t_uint256"
					},
					"t_string_storage": {
						"encoding": "bytes",
						"label": "string",
						"numberOfBytes": "32"
					},
					"t_struct(FundingRequest)16_storage": {
						"encoding": "inplace",
						"label": "struct DecentralizedCharityFund.FundingRequest",
						"members": [
							{
								"astId": 3,
								"contract": "contracts/DecentralizedCharityFund.sol:DecentralizedCharityFund",
								"label": "projectAddress",
								"offset": 0,
								"slot": "0",
								"type": "t_address"
							},
							{
								"astId": 5,
								"contract": "contracts/DecentralizedCharityFund.sol:DecentralizedCharityFund",
								"label": "requestedAmount",
								"offset": 0,
								"slot": "1",
								"type": "t_uint256"
							},
							{
								"astId": 7,
								"contract": "contracts/DecentralizedCharityFund.sol:DecentralizedCharityFund",
								"label": "projectDescription",
								"offset": 0,
								"slot": "2",
								"type": "t_string_storage"
							},
							{
								"astId": 9,
								"contract": "contracts/DecentralizedCharityFund.sol:DecentralizedCharityFund",
								"label": "votesReceived",
								"offset": 0,
								"slot": "3",
								"type": "t_uint256"
							},
							{
								"astId": 11,
								"contract": "contracts/DecentralizedCharityFund.sol:DecentralizedCharityFund",
								"label": "isFinalized",
								"offset": 0,
								"slot": "4",
								"type": "t_bool"
							},
							{
								"astId": 15,
								"contract": "contracts/DecentralizedCharityFund.sol:DecentralizedCharityFund",
								"label": "hasVoted",
								"offset": 0,
								"slot": "5",
								"type": "t_mapping(t_address,t_bool)"
							}
						],
						"numberOfBytes": "192"
					},
					"t_uint256": {
						"encoding": "inplace",
						"label": "uint256",
						"numberOfBytes": "32"
					}
				}
			},
			"userdoc": {
				"kind": "user",
				"methods": {},
				"version": 1
			}
		}
	}
}